{
  "_format": "hh-sol-artifact-1",
  "contractName": "MultiSigWallet",
  "sourceName": "contracts/multiSigWallet.sol",
  "abi": [
    {
      "inputs": [
        {
          "internalType": "address[]",
          "name": "_owners",
          "type": "address[]"
        },
        {
          "internalType": "uint256",
          "name": "_numConfirmationsRequired",
          "type": "uint256"
        }
      ],
      "stateMutability": "nonpayable",
      "type": "constructor"
    },
    {
      "anonymous": false,
      "inputs": [
        {
          "indexed": true,
          "internalType": "address",
          "name": "owner",
          "type": "address"
        },
        {
          "indexed": true,
          "internalType": "uint256",
          "name": "txIndex",
          "type": "uint256"
        }
      ],
      "name": "ConfirmTransaction",
      "type": "event"
    },
    {
      "anonymous": false,
      "inputs": [
        {
          "indexed": true,
          "internalType": "address",
          "name": "sender",
          "type": "address"
        },
        {
          "indexed": false,
          "internalType": "uint256",
          "name": "amount",
          "type": "uint256"
        },
        {
          "indexed": false,
          "internalType": "uint256",
          "name": "balance",
          "type": "uint256"
        }
      ],
      "name": "Deposit",
      "type": "event"
    },
    {
      "anonymous": false,
      "inputs": [
        {
          "indexed": true,
          "internalType": "address",
          "name": "owner",
          "type": "address"
        },
        {
          "indexed": true,
          "internalType": "uint256",
          "name": "txIndex",
          "type": "uint256"
        }
      ],
      "name": "ExecuteTransaction",
      "type": "event"
    },
    {
      "anonymous": false,
      "inputs": [
        {
          "indexed": true,
          "internalType": "address",
          "name": "owner",
          "type": "address"
        },
        {
          "indexed": true,
          "internalType": "uint256",
          "name": "txIndex",
          "type": "uint256"
        }
      ],
      "name": "RevokeConfirmation",
      "type": "event"
    },
    {
      "anonymous": false,
      "inputs": [
        {
          "indexed": true,
          "internalType": "address",
          "name": "owner",
          "type": "address"
        },
        {
          "indexed": true,
          "internalType": "uint256",
          "name": "txIndex",
          "type": "uint256"
        },
        {
          "indexed": true,
          "internalType": "address",
          "name": "to",
          "type": "address"
        },
        {
          "indexed": false,
          "internalType": "uint256",
          "name": "value",
          "type": "uint256"
        },
        {
          "indexed": false,
          "internalType": "string",
          "name": "message",
          "type": "string"
        }
      ],
      "name": "SubmitTransaction",
      "type": "event"
    },
    {
      "anonymous": false,
      "inputs": [
        {
          "indexed": false,
          "internalType": "address",
          "name": "_token",
          "type": "address"
        },
        {
          "indexed": false,
          "internalType": "address",
          "name": "_from",
          "type": "address"
        },
        {
          "indexed": false,
          "internalType": "address",
          "name": "_to",
          "type": "address"
        },
        {
          "indexed": true,
          "internalType": "uint256",
          "name": "_amount",
          "type": "uint256"
        }
      ],
      "name": "TokenTransfered",
      "type": "event"
    },
    {
      "inputs": [
        {
          "internalType": "address",
          "name": "newOwners",
          "type": "address"
        }
      ],
      "name": "addOwners",
      "outputs": [],
      "stateMutability": "nonpayable",
      "type": "function"
    },
    {
      "inputs": [
        {
          "internalType": "uint256",
          "name": "_txIndex",
          "type": "uint256"
        }
      ],
      "name": "confirmTransaction",
      "outputs": [],
      "stateMutability": "nonpayable",
      "type": "function"
    },
    {
      "inputs": [
        {
          "internalType": "uint256",
          "name": "_txIndex",
          "type": "uint256"
        },
        {
          "internalType": "address",
          "name": "tokenAddress",
          "type": "address"
        },
        {
          "internalType": "uint256",
          "name": "amount",
          "type": "uint256"
        },
        {
          "internalType": "bytes32",
          "name": "hash",
          "type": "bytes32"
        },
        {
          "internalType": "bytes",
          "name": "signature",
          "type": "bytes"
        }
      ],
      "name": "executeTransaction",
      "outputs": [],
      "stateMutability": "nonpayable",
      "type": "function"
    },
    {
      "inputs": [],
      "name": "getOwners",
      "outputs": [
        {
          "internalType": "address[]",
          "name": "",
          "type": "address[]"
        }
      ],
      "stateMutability": "view",
      "type": "function"
    },
    {
      "inputs": [
        {
          "internalType": "uint256",
          "name": "_txIndex",
          "type": "uint256"
        }
      ],
      "name": "getTransaction",
      "outputs": [
        {
          "internalType": "address",
          "name": "to",
          "type": "address"
        },
        {
          "internalType": "uint256",
          "name": "value",
          "type": "uint256"
        },
        {
          "internalType": "string",
          "name": "message",
          "type": "string"
        },
        {
          "internalType": "bool",
          "name": "executed",
          "type": "bool"
        },
        {
          "internalType": "uint256",
          "name": "numConfirmations",
          "type": "uint256"
        }
      ],
      "stateMutability": "view",
      "type": "function"
    },
    {
      "inputs": [],
      "name": "getTransactionCount",
      "outputs": [
        {
          "internalType": "uint256",
          "name": "",
          "type": "uint256"
        }
      ],
      "stateMutability": "view",
      "type": "function"
    },
    {
      "inputs": [
        {
          "internalType": "address",
          "name": "oldOwners",
          "type": "address"
        }
      ],
      "name": "removeOwners",
      "outputs": [],
      "stateMutability": "nonpayable",
      "type": "function"
    },
    {
      "inputs": [
        {
          "internalType": "uint256",
          "name": "_txIndex",
          "type": "uint256"
        }
      ],
      "name": "revokeConfirmation",
      "outputs": [],
      "stateMutability": "nonpayable",
      "type": "function"
    },
    {
      "inputs": [
        {
          "internalType": "address",
          "name": "_to",
          "type": "address"
        },
        {
          "internalType": "uint256",
          "name": "_value",
          "type": "uint256"
        },
        {
          "internalType": "string",
          "name": "_message",
          "type": "string"
        }
      ],
      "name": "submitTransaction",
      "outputs": [],
      "stateMutability": "nonpayable",
      "type": "function"
    }
  ],
  "bytecode": "0x60806040523480156200001157600080fd5b50604051620039f5380380620039f583398181016040528101906200003791906200050d565b60008251116200007e576040517f08c379a00000000000000000000000000000000000000000000000000000000081526004016200007590620005d4565b60405180910390fd5b60008111801562000090575081518111155b620000d2576040517f08c379a0000000000000000000000000000000000000000000000000000000008152600401620000c9906200066c565b60405180910390fd5b60005b8251811015620002d4576000838281518110620000f757620000f66200068e565b5b60200260200101519050600073ffffffffffffffffffffffffffffffffffffffff168173ffffffffffffffffffffffffffffffffffffffff160362000173576040517f08c379a00000000000000000000000000000000000000000000000000000000081526004016200016a906200070d565b60405180910390fd5b600160008273ffffffffffffffffffffffffffffffffffffffff1673ffffffffffffffffffffffffffffffffffffffff16815260200190815260200160002060009054906101000a900460ff161562000203576040517f08c379a0000000000000000000000000000000000000000000000000000000008152600401620001fa906200077f565b60405180910390fd5b60018060008373ffffffffffffffffffffffffffffffffffffffff1673ffffffffffffffffffffffffffffffffffffffff16815260200190815260200160002060006101000a81548160ff0219169083151502179055506000819080600181540180825580915050600190039060005260206000200160009091909190916101000a81548173ffffffffffffffffffffffffffffffffffffffff021916908373ffffffffffffffffffffffffffffffffffffffff160217905550508080620002cb90620007d0565b915050620000d5565b508060028190555050506200081d565b6000604051905090565b600080fd5b600080fd5b600080fd5b6000601f19601f8301169050919050565b7f4e487b7100000000000000000000000000000000000000000000000000000000600052604160045260246000fd5b6200034882620002fd565b810181811067ffffffffffffffff821117156200036a57620003696200030e565b5b80604052505050565b60006200037f620002e4565b90506200038d82826200033d565b919050565b600067ffffffffffffffff821115620003b057620003af6200030e565b5b602082029050602081019050919050565b600080fd5b600073ffffffffffffffffffffffffffffffffffffffff82169050919050565b6000620003f382620003c6565b9050919050565b6200040581620003e6565b81146200041157600080fd5b50565b6000815190506200042581620003fa565b92915050565b6000620004426200043c8462000392565b62000373565b90508083825260208201905060208402830185811115620004685762000467620003c1565b5b835b8181101562000495578062000480888262000414565b8452602084019350506020810190506200046a565b5050509392505050565b600082601f830112620004b757620004b6620002f8565b5b8151620004c98482602086016200042b565b91505092915050565b6000819050919050565b620004e781620004d2565b8114620004f357600080fd5b50565b6000815190506200050781620004dc565b92915050565b60008060408385031215620005275762000526620002ee565b5b600083015167ffffffffffffffff811115620005485762000547620002f3565b5b62000556858286016200049f565b92505060206200056985828601620004f6565b9150509250929050565b600082825260208201905092915050565b7f6f776e6572732072657175697265640000000000000000000000000000000000600082015250565b6000620005bc600f8362000573565b9150620005c98262000584565b602082019050919050565b60006020820190508181036000830152620005ef81620005ad565b9050919050565b7f696e76616c6964206e756d626572206f6620726571756972656420636f6e666960008201527f726d6174696f6e73000000000000000000000000000000000000000000000000602082015250565b60006200065460288362000573565b91506200066182620005f6565b604082019050919050565b60006020820190508181036000830152620006878162000645565b9050919050565b7f4e487b7100000000000000000000000000000000000000000000000000000000600052603260045260246000fd5b7f696e76616c6964206f776e657200000000000000000000000000000000000000600082015250565b6000620006f5600d8362000573565b91506200070282620006bd565b602082019050919050565b600060208201905081810360008301526200072881620006e6565b9050919050565b7f6f776e6572206e6f7420756e6971756500000000000000000000000000000000600082015250565b60006200076760108362000573565b915062000774826200072f565b602082019050919050565b600060208201905081810360008301526200079a8162000758565b9050919050565b7f4e487b7100000000000000000000000000000000000000000000000000000000600052601160045260246000fd5b6000620007dd82620004d2565b91507fffffffffffffffffffffffffffffffffffffffffffffffffffffffffffffffff8203620008125762000811620007a1565b5b600182019050919050565b6131c8806200082d6000396000f3fe608060405234801561001057600080fd5b50600436106100935760003560e01c80635f3b1f3b116100665780635f3b1f3b14610122578063a0e67e2b1461013e578063b64c14fe1461015c578063c01a8c8414610178578063d52d99cc1461019457610093565b806303d79d281461009857806320ea8d86146100b45780632e7700f0146100d057806333ea3dc8146100ee575b600080fd5b6100b260048036038101906100ad9190611d61565b6101b0565b005b6100ce60048036038101906100c99190611dd0565b610441565b005b6100d861071b565b6040516100e59190611e0c565b60405180910390f35b61010860048036038101906101039190611dd0565b610728565b604051610119959493929190611ed0565b60405180910390f35b61013c60048036038101906101379190611f2a565b61083b565b005b610146610a1e565b6040516101539190612015565b60405180910390f35b61017660048036038101906101719190611f2a565b610aac565b005b610192600480360381019061018d9190611dd0565b610c02565b005b6101ae60048036038101906101a9919061210e565b610f6d565b005b600160003373ffffffffffffffffffffffffffffffffffffffff1673ffffffffffffffffffffffffffffffffffffffff16815260200190815260200160002060009054906101000a900460ff1661023c576040517f08c379a0000000000000000000000000000000000000000000000000000000008152600401610233906121f1565b60405180910390fd5b33600460008273ffffffffffffffffffffffffffffffffffffffff1673ffffffffffffffffffffffffffffffffffffffff16815260200190815260200160002060009054906101000a900460ff166102c9576040517f08c379a00000000000000000000000000000000000000000000000000000000081526004016102c09061225d565b60405180910390fd5b6000600680549050905060066040518060a001604052808773ffffffffffffffffffffffffffffffffffffffff1681526020018681526020018581526020016000151581526020016000815250908060018154018082558091505060019003906000526020600020906005020160009091909190915060008201518160000160006101000a81548173ffffffffffffffffffffffffffffffffffffffff021916908373ffffffffffffffffffffffffffffffffffffffff1602179055506020820151816001015560408201518160020190816103a59190612489565b5060608201518160030160006101000a81548160ff0219169083151502179055506080820151816004015550508473ffffffffffffffffffffffffffffffffffffffff16813373ffffffffffffffffffffffffffffffffffffffff167f557adc301c59c014874da9dd74ad580f3d8a99947a7df3947967947d8e89920e878760405161043292919061255b565b60405180910390a45050505050565b600160003373ffffffffffffffffffffffffffffffffffffffff1673ffffffffffffffffffffffffffffffffffffffff16815260200190815260200160002060009054906101000a900460ff166104cd576040517f08c379a00000000000000000000000000000000000000000000000000000000081526004016104c4906121f1565b60405180910390fd5b806006805490508110610515576040517f08c379a000000000000000000000000000000000000000000000000000000000815260040161050c906125d7565b60405180910390fd5b816006818154811061052a576105296125f7565b5b906000526020600020906005020160030160009054906101000a900460ff1615610589576040517f08c379a000000000000000000000000000000000000000000000000000000000815260040161058090612672565b60405180910390fd5b60006006848154811061059f5761059e6125f7565b5b906000526020600020906005020190506003600085815260200190815260200160002060003373ffffffffffffffffffffffffffffffffffffffff1673ffffffffffffffffffffffffffffffffffffffff16815260200190815260200160002060009054906101000a900460ff1661064c576040517f08c379a0000000000000000000000000000000000000000000000000000000008152600401610643906126de565b60405180910390fd5b6001816004016000828254610661919061272d565b9250508190555060006003600086815260200190815260200160002060003373ffffffffffffffffffffffffffffffffffffffff1673ffffffffffffffffffffffffffffffffffffffff16815260200190815260200160002060006101000a81548160ff021916908315150217905550833373ffffffffffffffffffffffffffffffffffffffff167ff0dca620e2e81f7841d07bcc105e1704fb01475b278a9d4c236e1c62945edd5560405160405180910390a350505050565b6000600680549050905090565b6000806060600080600060068781548110610746576107456125f7565b5b906000526020600020906005020190508060000160009054906101000a900473ffffffffffffffffffffffffffffffffffffffff168160010154826002018360030160009054906101000a900460ff1684600401548280546107a7906122ac565b80601f01602080910402602001604051908101604052809291908181526020018280546107d3906122ac565b80156108205780601f106107f557610100808354040283529160200191610820565b820191906000526020600020905b81548152906001019060200180831161080357829003601f168201915b50505050509250955095509550955095505091939590929450565b600160003373ffffffffffffffffffffffffffffffffffffffff1673ffffffffffffffffffffffffffffffffffffffff16815260200190815260200160002060009054906101000a900460ff166108c7576040517f08c379a00000000000000000000000000000000000000000000000000000000081526004016108be906121f1565b60405180910390fd5b600073ffffffffffffffffffffffffffffffffffffffff168173ffffffffffffffffffffffffffffffffffffffff1603610936576040517f08c379a000000000000000000000000000000000000000000000000000000000815260040161092d906127ad565b60405180910390fd5b600460008273ffffffffffffffffffffffffffffffffffffffff1673ffffffffffffffffffffffffffffffffffffffff16815260200190815260200160002060009054906101000a900460ff16156109c3576040517f08c379a00000000000000000000000000000000000000000000000000000000081526004016109ba90612819565b60405180910390fd5b6001600460008373ffffffffffffffffffffffffffffffffffffffff1673ffffffffffffffffffffffffffffffffffffffff16815260200190815260200160002060006101000a81548160ff02191690831515021790555050565b60606000805480602002602001604051908101604052809291908181526020018280548015610aa257602002820191906000526020600020905b8160009054906101000a900473ffffffffffffffffffffffffffffffffffffffff1673ffffffffffffffffffffffffffffffffffffffff1681526020019060010190808311610a58575b5050505050905090565b600160003373ffffffffffffffffffffffffffffffffffffffff1673ffffffffffffffffffffffffffffffffffffffff16815260200190815260200160002060009054906101000a900460ff16610b38576040517f08c379a0000000000000000000000000000000000000000000000000000000008152600401610b2f906121f1565b60405180910390fd5b600073ffffffffffffffffffffffffffffffffffffffff168173ffffffffffffffffffffffffffffffffffffffff1603610ba7576040517f08c379a0000000000000000000000000000000000000000000000000000000008152600401610b9e906127ad565b60405180910390fd5b6000600460008373ffffffffffffffffffffffffffffffffffffffff1673ffffffffffffffffffffffffffffffffffffffff16815260200190815260200160002060006101000a81548160ff02191690831515021790555050565b600160003373ffffffffffffffffffffffffffffffffffffffff1673ffffffffffffffffffffffffffffffffffffffff16815260200190815260200160002060009054906101000a900460ff16610c8e576040517f08c379a0000000000000000000000000000000000000000000000000000000008152600401610c85906121f1565b60405180910390fd5b806006805490508110610cd6576040517f08c379a0000000000000000000000000000000000000000000000000000000008152600401610ccd906125d7565b60405180910390fd5b8160068181548110610ceb57610cea6125f7565b5b906000526020600020906005020160030160009054906101000a900460ff1615610d4a576040517f08c379a0000000000000000000000000000000000000000000000000000000008152600401610d4190612672565b60405180910390fd5b826003600082815260200190815260200160002060003373ffffffffffffffffffffffffffffffffffffffff1673ffffffffffffffffffffffffffffffffffffffff16815260200190815260200160002060009054906101000a900460ff1615610de9576040517f08c379a0000000000000000000000000000000000000000000000000000000008152600401610de090612885565b60405180910390fd5b33600460008273ffffffffffffffffffffffffffffffffffffffff1673ffffffffffffffffffffffffffffffffffffffff16815260200190815260200160002060009054906101000a900460ff16610e76576040517f08c379a0000000000000000000000000000000000000000000000000000000008152600401610e6d9061225d565b60405180910390fd5b600060068681548110610e8c57610e8b6125f7565b5b906000526020600020906005020190506001816004016000828254610eb191906128a5565b9250508190555060016003600088815260200190815260200160002060003373ffffffffffffffffffffffffffffffffffffffff1673ffffffffffffffffffffffffffffffffffffffff16815260200190815260200160002060006101000a81548160ff021916908315150217905550853373ffffffffffffffffffffffffffffffffffffffff167f5cbe105e36805f7820e291f799d5794ff948af2a5f664e580382defb6339004160405160405180910390a3505050505050565b600160003373ffffffffffffffffffffffffffffffffffffffff1673ffffffffffffffffffffffffffffffffffffffff16815260200190815260200160002060009054906101000a900460ff16610ff9576040517f08c379a0000000000000000000000000000000000000000000000000000000008152600401610ff0906121f1565b60405180910390fd5b846006805490508110611041576040517f08c379a0000000000000000000000000000000000000000000000000000000008152600401611038906125d7565b60405180910390fd5b8560068181548110611056576110556125f7565b5b906000526020600020906005020160030160009054906101000a900460ff16156110b5576040517f08c379a00000000000000000000000000000000000000000000000000000000081526004016110ac90612672565b60405180910390fd5b33600460008273ffffffffffffffffffffffffffffffffffffffff1673ffffffffffffffffffffffffffffffffffffffff16815260200190815260200160002060009054906101000a900460ff16611142576040517f08c379a00000000000000000000000000000000000000000000000000000000081526004016111399061225d565b60405180910390fd5b600060068981548110611158576111576125f7565b5b90600052602060002090600502019050600087036111ab576040517f08c379a00000000000000000000000000000000000000000000000000000000081526004016111a290612925565b60405180910390fd5b600073ffffffffffffffffffffffffffffffffffffffff168873ffffffffffffffffffffffffffffffffffffffff160361121a576040517f08c379a000000000000000000000000000000000000000000000000000000000815260040161121190612991565b60405180910390fd5b60005b6000805490508110156112f2576000818154811061123e5761123d6125f7565b5b9060005260206000200160009054906101000a900473ffffffffffffffffffffffffffffffffffffffff1673ffffffffffffffffffffffffffffffffffffffff166112898888611557565b73ffffffffffffffffffffffffffffffffffffffff16146112df576040517f08c379a00000000000000000000000000000000000000000000000000000000081526004016112d6906129fd565b60405180910390fd5b80806112ea90612a1d565b91505061121d565b506005856040516113039190612aac565b908152602001604051809103902060009054906101000a900460ff161561135f576040517f08c379a000000000000000000000000000000000000000000000000000000000815260040161135690612b0f565b60405180910390fd5b6000889050878173ffffffffffffffffffffffffffffffffffffffff1663dd62ed3e33306040518363ffffffff1660e01b81526004016113a0929190612b2f565b602060405180830381865afa1580156113bd573d6000803e3d6000fd5b505050506040513d601f19601f820116820180604052508101906113e19190612b6d565b1015611422576040517f08c379a000000000000000000000000000000000000000000000000000000000815260040161141990612be6565b60405180910390fd5b6002548260040154101561146b576040517f08c379a000000000000000000000000000000000000000000000000000000000815260040161146290612c52565b60405180910390fd5b893373ffffffffffffffffffffffffffffffffffffffff167f5445f318f4f5fcfb66592e68e0cc5822aa15664039bd5f0ffde24c5a8142b1ac60405160405180910390a360018260030160006101000a81548160ff021916908315150217905550877fa7814aaf178d6c8e61b2703f3dc1b8328dd6c99cbb405bf8f1bb0cb1bbb051a58a333060405161150093929190612c72565b60405180910390a26115148133308b611596565b60016005876040516115269190612aac565b908152602001604051809103902060006101000a81548160ff02191690831515021790555050505050505050505050565b6000808360405160200161156b9190612d21565b60405160208183030381529060405280519060200120905061158d818461161f565b91505092915050565b611619846323b872dd60e01b8585856040516024016115b793929190612d47565b604051602081830303815290604052907bffffffffffffffffffffffffffffffffffffffffffffffffffffffff19166020820180517bffffffffffffffffffffffffffffffffffffffffffffffffffffffff8381831617835250505050611646565b50505050565b600080600061162e858561170d565b9150915061163b8161175e565b819250505092915050565b60006116a8826040518060400160405280602081526020017f5361666545524332303a206c6f772d6c6576656c2063616c6c206661696c65648152508573ffffffffffffffffffffffffffffffffffffffff166118c49092919063ffffffff16565b905060008151111561170857808060200190518101906116c89190612daa565b611707576040517f08c379a00000000000000000000000000000000000000000000000000000000081526004016116fe90612e49565b60405180910390fd5b5b505050565b600080604183510361174e5760008060006020860151925060408601519150606086015160001a9050611742878285856118dc565b94509450505050611757565b60006002915091505b9250929050565b6000600481111561177257611771612e69565b5b81600481111561178557611784612e69565b5b03156118c1576001600481111561179f5761179e612e69565b5b8160048111156117b2576117b1612e69565b5b036117f2576040517f08c379a00000000000000000000000000000000000000000000000000000000081526004016117e990612ee4565b60405180910390fd5b6002600481111561180657611805612e69565b5b81600481111561181957611818612e69565b5b03611859576040517f08c379a000000000000000000000000000000000000000000000000000000000815260040161185090612f50565b60405180910390fd5b6003600481111561186d5761186c612e69565b5b8160048111156118805761187f612e69565b5b036118c0576040517f08c379a00000000000000000000000000000000000000000000000000000000081526004016118b790612fe2565b60405180910390fd5b5b50565b60606118d384846000856119be565b90509392505050565b6000807f7fffffffffffffffffffffffffffffff5d576e7357a4501ddfe92f46681b20a08360001c11156119175760006003915091506119b5565b60006001878787876040516000815260200160405260405161193c949392919061302d565b6020604051602081039080840390855afa15801561195e573d6000803e3d6000fd5b505050602060405103519050600073ffffffffffffffffffffffffffffffffffffffff168173ffffffffffffffffffffffffffffffffffffffff16036119ac576000600192509250506119b5565b80600092509250505b94509492505050565b606082471015611a03576040517f08c379a00000000000000000000000000000000000000000000000000000000081526004016119fa906130e4565b60405180910390fd5b6000808673ffffffffffffffffffffffffffffffffffffffff168587604051611a2c9190612aac565b60006040518083038185875af1925050503d8060008114611a69576040519150601f19603f3d011682016040523d82523d6000602084013e611a6e565b606091505b5091509150611a7f87838387611a8b565b92505050949350505050565b60608315611aed576000835103611ae557611aa585611b00565b611ae4576040517f08c379a0000000000000000000000000000000000000000000000000000000008152600401611adb90613150565b60405180910390fd5b5b829050611af8565b611af78383611b23565b5b949350505050565b6000808273ffffffffffffffffffffffffffffffffffffffff163b119050919050565b600082511115611b365781518083602001fd5b806040517f08c379a0000000000000000000000000000000000000000000000000000000008152600401611b6a9190613170565b60405180910390fd5b6000604051905090565b600080fd5b600080fd5b600073ffffffffffffffffffffffffffffffffffffffff82169050919050565b6000611bb282611b87565b9050919050565b611bc281611ba7565b8114611bcd57600080fd5b50565b600081359050611bdf81611bb9565b92915050565b6000819050919050565b611bf881611be5565b8114611c0357600080fd5b50565b600081359050611c1581611bef565b92915050565b600080fd5b600080fd5b6000601f19601f8301169050919050565b7f4e487b7100000000000000000000000000000000000000000000000000000000600052604160045260246000fd5b611c6e82611c25565b810181811067ffffffffffffffff82111715611c8d57611c8c611c36565b5b80604052505050565b6000611ca0611b73565b9050611cac8282611c65565b919050565b600067ffffffffffffffff821115611ccc57611ccb611c36565b5b611cd582611c25565b9050602081019050919050565b82818337600083830152505050565b6000611d04611cff84611cb1565b611c96565b905082815260208101848484011115611d2057611d1f611c20565b5b611d2b848285611ce2565b509392505050565b600082601f830112611d4857611d47611c1b565b5b8135611d58848260208601611cf1565b91505092915050565b600080600060608486031215611d7a57611d79611b7d565b5b6000611d8886828701611bd0565b9350506020611d9986828701611c06565b925050604084013567ffffffffffffffff811115611dba57611db9611b82565b5b611dc686828701611d33565b9150509250925092565b600060208284031215611de657611de5611b7d565b5b6000611df484828501611c06565b91505092915050565b611e0681611be5565b82525050565b6000602082019050611e216000830184611dfd565b92915050565b611e3081611ba7565b82525050565b600081519050919050565b600082825260208201905092915050565b60005b83811015611e70578082015181840152602081019050611e55565b60008484015250505050565b6000611e8782611e36565b611e918185611e41565b9350611ea1818560208601611e52565b611eaa81611c25565b840191505092915050565b60008115159050919050565b611eca81611eb5565b82525050565b600060a082019050611ee56000830188611e27565b611ef26020830187611dfd565b8181036040830152611f048186611e7c565b9050611f136060830185611ec1565b611f206080830184611dfd565b9695505050505050565b600060208284031215611f4057611f3f611b7d565b5b6000611f4e84828501611bd0565b91505092915050565b600081519050919050565b600082825260208201905092915050565b6000819050602082019050919050565b611f8c81611ba7565b82525050565b6000611f9e8383611f83565b60208301905092915050565b6000602082019050919050565b6000611fc282611f57565b611fcc8185611f62565b9350611fd783611f73565b8060005b83811015612008578151611fef8882611f92565b9750611ffa83611faa565b925050600181019050611fdb565b5085935050505092915050565b6000602082019050818103600083015261202f8184611fb7565b905092915050565b6000819050919050565b61204a81612037565b811461205557600080fd5b50565b60008135905061206781612041565b92915050565b600067ffffffffffffffff82111561208857612087611c36565b5b61209182611c25565b9050602081019050919050565b60006120b16120ac8461206d565b611c96565b9050828152602081018484840111156120cd576120cc611c20565b5b6120d8848285611ce2565b509392505050565b600082601f8301126120f5576120f4611c1b565b5b813561210584826020860161209e565b91505092915050565b600080600080600060a0868803121561212a57612129611b7d565b5b600061213888828901611c06565b955050602061214988828901611bd0565b945050604061215a88828901611c06565b935050606061216b88828901612058565b925050608086013567ffffffffffffffff81111561218c5761218b611b82565b5b612198888289016120e0565b9150509295509295909350565b7f6e6f74206f776e65720000000000000000000000000000000000000000000000600082015250565b60006121db600983611e41565b91506121e6826121a5565b602082019050919050565b6000602082019050818103600083015261220a816121ce565b9050919050565b7f596f75206e65656420746f2062652061646465642061732061206f776e657200600082015250565b6000612247601f83611e41565b915061225282612211565b602082019050919050565b600060208201905081810360008301526122768161223a565b9050919050565b7f4e487b7100000000000000000000000000000000000000000000000000000000600052602260045260246000fd5b600060028204905060018216806122c457607f821691505b6020821081036122d7576122d661227d565b5b50919050565b60008190508160005260206000209050919050565b60006020601f8301049050919050565b600082821b905092915050565b60006008830261233f7fffffffffffffffffffffffffffffffffffffffffffffffffffffffffffffffff82612302565b6123498683612302565b95508019841693508086168417925050509392505050565b6000819050919050565b600061238661238161237c84611be5565b612361565b611be5565b9050919050565b6000819050919050565b6123a08361236b565b6123b46123ac8261238d565b84845461230f565b825550505050565b600090565b6123c96123bc565b6123d4818484612397565b505050565b5b818110156123f8576123ed6000826123c1565b6001810190506123da565b5050565b601f82111561243d5761240e816122dd565b612417846122f2565b81016020851015612426578190505b61243a612432856122f2565b8301826123d9565b50505b505050565b600082821c905092915050565b600061246060001984600802612442565b1980831691505092915050565b6000612479838361244f565b9150826002028217905092915050565b61249282611e36565b67ffffffffffffffff8111156124ab576124aa611c36565b5b6124b582546122ac565b6124c08282856123fc565b600060209050601f8311600181146124f357600084156124e1578287015190505b6124eb858261246d565b865550612553565b601f198416612501866122dd565b60005b8281101561252957848901518255600182019150602085019450602081019050612504565b868310156125465784890151612542601f89168261244f565b8355505b6001600288020188555050505b505050505050565b60006040820190506125706000830185611dfd565b81810360208301526125828184611e7c565b90509392505050565b7f747820646f6573206e6f74206578697374000000000000000000000000000000600082015250565b60006125c1601183611e41565b91506125cc8261258b565b602082019050919050565b600060208201905081810360008301526125f0816125b4565b9050919050565b7f4e487b7100000000000000000000000000000000000000000000000000000000600052603260045260246000fd5b7f747820616c726561647920657865637574656400000000000000000000000000600082015250565b600061265c601383611e41565b915061266782612626565b602082019050919050565b6000602082019050818103600083015261268b8161264f565b9050919050565b7f7478206e6f7420636f6e6669726d656400000000000000000000000000000000600082015250565b60006126c8601083611e41565b91506126d382612692565b602082019050919050565b600060208201905081810360008301526126f7816126bb565b9050919050565b7f4e487b7100000000000000000000000000000000000000000000000000000000600052601160045260246000fd5b600061273882611be5565b915061274383611be5565b925082820390508181111561275b5761275a6126fe565b5b92915050565b7f416464726573732063616e6e6f74206265203000000000000000000000000000600082015250565b6000612797601383611e41565b91506127a282612761565b602082019050919050565b600060208201905081810360008301526127c68161278a565b9050919050565b7f4f776e65727320616c7265616479206578697374730000000000000000000000600082015250565b6000612803601583611e41565b915061280e826127cd565b602082019050919050565b60006020820190508181036000830152612832816127f6565b9050919050565b7f747820616c726561647920636f6e6669726d6564000000000000000000000000600082015250565b600061286f601483611e41565b915061287a82612839565b602082019050919050565b6000602082019050818103600083015261289e81612862565b9050919050565b60006128b082611be5565b91506128bb83611be5565b92508282019050808211156128d3576128d26126fe565b5b92915050565b7f496e73756666696369656e7420616d6f756e7400000000000000000000000000600082015250565b600061290f601383611e41565b915061291a826128d9565b602082019050919050565b6000602082019050818103600083015261293e81612902565b9050919050565b7f416464726573732063616e6e6f74206265207a65726f00000000000000000000600082015250565b600061297b601683611e41565b915061298682612945565b602082019050919050565b600060208201905081810360008301526129aa8161296e565b9050919050565b7f41646472657373206973206e6f7420617574686f72697a656400000000000000600082015250565b60006129e7601983611e41565b91506129f2826129b1565b602082019050919050565b60006020820190508181036000830152612a16816129da565b9050919050565b6000612a2882611be5565b91507fffffffffffffffffffffffffffffffffffffffffffffffffffffffffffffffff8203612a5a57612a596126fe565b5b600182019050919050565b600081519050919050565b600081905092915050565b6000612a8682612a65565b612a908185612a70565b9350612aa0818560208601611e52565b80840191505092915050565b6000612ab88284612a7b565b915081905092915050565b7f416c7265616479207369676e6174757265207573656400000000000000000000600082015250565b6000612af9601683611e41565b9150612b0482612ac3565b602082019050919050565b60006020820190508181036000830152612b2881612aec565b9050919050565b6000604082019050612b446000830185611e27565b612b516020830184611e27565b9392505050565b600081519050612b6781611bef565b92915050565b600060208284031215612b8357612b82611b7d565b5b6000612b9184828501612b58565b91505092915050565b7f436865636b2074686520746f6b656e20616c6c6f77616e636500000000000000600082015250565b6000612bd0601983611e41565b9150612bdb82612b9a565b602082019050919050565b60006020820190508181036000830152612bff81612bc3565b9050919050565b7f63616e6e6f742065786563757465207478000000000000000000000000000000600082015250565b6000612c3c601183611e41565b9150612c4782612c06565b602082019050919050565b60006020820190508181036000830152612c6b81612c2f565b9050919050565b6000606082019050612c876000830186611e27565b612c946020830185611e27565b612ca16040830184611e27565b949350505050565b600081905092915050565b7f19457468657265756d205369676e6564204d6573736167653a0a333200000000600082015250565b6000612cea601c83612ca9565b9150612cf582612cb4565b601c82019050919050565b6000819050919050565b612d1b612d1682612037565b612d00565b82525050565b6000612d2c82612cdd565b9150612d388284612d0a565b60208201915081905092915050565b6000606082019050612d5c6000830186611e27565b612d696020830185611e27565b612d766040830184611dfd565b949350505050565b612d8781611eb5565b8114612d9257600080fd5b50565b600081519050612da481612d7e565b92915050565b600060208284031215612dc057612dbf611b7d565b5b6000612dce84828501612d95565b91505092915050565b7f5361666545524332303a204552433230206f7065726174696f6e20646964206e60008201527f6f74207375636365656400000000000000000000000000000000000000000000602082015250565b6000612e33602a83611e41565b9150612e3e82612dd7565b604082019050919050565b60006020820190508181036000830152612e6281612e26565b9050919050565b7f4e487b7100000000000000000000000000000000000000000000000000000000600052602160045260246000fd5b7f45434453413a20696e76616c6964207369676e61747572650000000000000000600082015250565b6000612ece601883611e41565b9150612ed982612e98565b602082019050919050565b60006020820190508181036000830152612efd81612ec1565b9050919050565b7f45434453413a20696e76616c6964207369676e6174757265206c656e67746800600082015250565b6000612f3a601f83611e41565b9150612f4582612f04565b602082019050919050565b60006020820190508181036000830152612f6981612f2d565b9050919050565b7f45434453413a20696e76616c6964207369676e6174757265202773272076616c60008201527f7565000000000000000000000000000000000000000000000000000000000000602082015250565b6000612fcc602283611e41565b9150612fd782612f70565b604082019050919050565b60006020820190508181036000830152612ffb81612fbf565b9050919050565b61300b81612037565b82525050565b600060ff82169050919050565b61302781613011565b82525050565b60006080820190506130426000830187613002565b61304f602083018661301e565b61305c6040830185613002565b6130696060830184613002565b95945050505050565b7f416464726573733a20696e73756666696369656e742062616c616e636520666f60008201527f722063616c6c0000000000000000000000000000000000000000000000000000602082015250565b60006130ce602683611e41565b91506130d982613072565b604082019050919050565b600060208201905081810360008301526130fd816130c1565b9050919050565b7f416464726573733a2063616c6c20746f206e6f6e2d636f6e7472616374000000600082015250565b600061313a601d83611e41565b915061314582613104565b602082019050919050565b600060208201905081810360008301526131698161312d565b9050919050565b6000602082019050818103600083015261318a8184611e7c565b90509291505056fea2646970667358221220252bc544c1b3784bda2f0a343052f217c3108feeeed816bb9e362d16d36117b064736f6c63430008100033",
  "linkReferences": {},
  "deployedLinkReferences": {}
}