{
  "_format": "hh-sol-artifact-1",
  "contractName": "K4NftCarSignatureEdition1",
  "sourceName": "contracts/K4NftCarSignatureEdition1.sol",
  "abi": [
    {
      "inputs": [],
      "stateMutability": "nonpayable",
      "type": "constructor"
    },
    {
      "anonymous": false,
      "inputs": [
        {
          "indexed": true,
          "internalType": "address",
          "name": "owner",
          "type": "address"
        },
        {
          "indexed": true,
          "internalType": "address",
          "name": "approved",
          "type": "address"
        },
        {
          "indexed": true,
          "internalType": "uint256",
          "name": "tokenId",
          "type": "uint256"
        }
      ],
      "name": "Approval",
      "type": "event"
    },
    {
      "anonymous": false,
      "inputs": [
        {
          "indexed": true,
          "internalType": "address",
          "name": "owner",
          "type": "address"
        },
        {
          "indexed": true,
          "internalType": "address",
          "name": "operator",
          "type": "address"
        },
        {
          "indexed": false,
          "internalType": "bool",
          "name": "approved",
          "type": "bool"
        }
      ],
      "name": "ApprovalForAll",
      "type": "event"
    },
    {
      "anonymous": false,
      "inputs": [
        {
          "indexed": false,
          "internalType": "address",
          "name": "_from",
          "type": "address"
        },
        {
          "indexed": true,
          "internalType": "uint256",
          "name": "_tokenId",
          "type": "uint256"
        },
        {
          "indexed": true,
          "internalType": "uint256",
          "name": "_quantity",
          "type": "uint256"
        },
        {
          "indexed": false,
          "internalType": "bool",
          "name": "_success",
          "type": "bool"
        },
        {
          "indexed": false,
          "internalType": "uint256",
          "name": "_contractID",
          "type": "uint256"
        }
      ],
      "name": "NFTMinted",
      "type": "event"
    },
    {
      "anonymous": false,
      "inputs": [
        {
          "indexed": true,
          "internalType": "address",
          "name": "previousOwner",
          "type": "address"
        },
        {
          "indexed": true,
          "internalType": "address",
          "name": "newOwner",
          "type": "address"
        }
      ],
      "name": "OwnershipTransferred",
      "type": "event"
    },
    {
      "anonymous": false,
      "inputs": [
        {
          "indexed": false,
          "internalType": "address",
          "name": "_token",
          "type": "address"
        },
        {
          "indexed": false,
          "internalType": "address",
          "name": "_from",
          "type": "address"
        },
        {
          "indexed": false,
          "internalType": "address",
          "name": "_to",
          "type": "address"
        },
        {
          "indexed": true,
          "internalType": "uint256",
          "name": "_amount",
          "type": "uint256"
        }
      ],
      "name": "TokenTransfered",
      "type": "event"
    },
    {
      "anonymous": false,
      "inputs": [
        {
          "indexed": true,
          "internalType": "address",
          "name": "from",
          "type": "address"
        },
        {
          "indexed": true,
          "internalType": "address",
          "name": "to",
          "type": "address"
        },
        {
          "indexed": true,
          "internalType": "uint256",
          "name": "tokenId",
          "type": "uint256"
        }
      ],
      "name": "Transfer",
      "type": "event"
    },
    {
      "inputs": [
        {
          "internalType": "address",
          "name": "to",
          "type": "address"
        },
        {
          "internalType": "uint256",
          "name": "tokenId",
          "type": "uint256"
        }
      ],
      "name": "approve",
      "outputs": [],
      "stateMutability": "nonpayable",
      "type": "function"
    },
    {
      "inputs": [
        {
          "internalType": "address",
          "name": "owner",
          "type": "address"
        }
      ],
      "name": "balanceOf",
      "outputs": [
        {
          "internalType": "uint256",
          "name": "",
          "type": "uint256"
        }
      ],
      "stateMutability": "view",
      "type": "function"
    },
    {
      "inputs": [],
      "name": "contractURI",
      "outputs": [
        {
          "internalType": "string",
          "name": "",
          "type": "string"
        }
      ],
      "stateMutability": "pure",
      "type": "function"
    },
    {
      "inputs": [],
      "name": "flipSaleStatus",
      "outputs": [],
      "stateMutability": "nonpayable",
      "type": "function"
    },
    {
      "inputs": [
        {
          "internalType": "uint256",
          "name": "tokenId",
          "type": "uint256"
        }
      ],
      "name": "getApproved",
      "outputs": [
        {
          "internalType": "address",
          "name": "",
          "type": "address"
        }
      ],
      "stateMutability": "view",
      "type": "function"
    },
    {
      "inputs": [
        {
          "internalType": "address",
          "name": "owner",
          "type": "address"
        },
        {
          "internalType": "address",
          "name": "operator",
          "type": "address"
        }
      ],
      "name": "isApprovedForAll",
      "outputs": [
        {
          "internalType": "bool",
          "name": "",
          "type": "bool"
        }
      ],
      "stateMutability": "view",
      "type": "function"
    },
    {
      "inputs": [],
      "name": "isSaleActive",
      "outputs": [
        {
          "internalType": "bool",
          "name": "",
          "type": "bool"
        }
      ],
      "stateMutability": "view",
      "type": "function"
    },
    {
      "inputs": [],
      "name": "name",
      "outputs": [
        {
          "internalType": "string",
          "name": "",
          "type": "string"
        }
      ],
      "stateMutability": "view",
      "type": "function"
    },
    {
      "inputs": [],
      "name": "owner",
      "outputs": [
        {
          "internalType": "address",
          "name": "",
          "type": "address"
        }
      ],
      "stateMutability": "view",
      "type": "function"
    },
    {
      "inputs": [
        {
          "internalType": "uint256",
          "name": "tokenId",
          "type": "uint256"
        }
      ],
      "name": "ownerOf",
      "outputs": [
        {
          "internalType": "address",
          "name": "",
          "type": "address"
        }
      ],
      "stateMutability": "view",
      "type": "function"
    },
    {
      "inputs": [],
      "name": "renounceOwnership",
      "outputs": [],
      "stateMutability": "nonpayable",
      "type": "function"
    },
    {
      "inputs": [
        {
          "internalType": "uint256[]",
          "name": "tokenId",
          "type": "uint256[]"
        },
        {
          "internalType": "uint256",
          "name": "quantity",
          "type": "uint256"
        },
        {
          "internalType": "bytes32",
          "name": "hash",
          "type": "bytes32"
        },
        {
          "internalType": "bytes",
          "name": "signature",
          "type": "bytes"
        }
      ],
      "name": "safeMintUsingEther",
      "outputs": [],
      "stateMutability": "payable",
      "type": "function"
    },
    {
      "inputs": [
        {
          "internalType": "uint256[]",
          "name": "tokenId",
          "type": "uint256[]"
        },
        {
          "internalType": "address",
          "name": "tokenAddress",
          "type": "address"
        },
        {
          "internalType": "uint256",
          "name": "amount",
          "type": "uint256"
        },
        {
          "internalType": "uint256",
          "name": "quantity",
          "type": "uint256"
        },
        {
          "internalType": "bytes32",
          "name": "hash",
          "type": "bytes32"
        },
        {
          "internalType": "bytes",
          "name": "signature",
          "type": "bytes"
        }
      ],
      "name": "safeMintUsingToken",
      "outputs": [],
      "stateMutability": "nonpayable",
      "type": "function"
    },
    {
      "inputs": [
        {
          "internalType": "address",
          "name": "from",
          "type": "address"
        },
        {
          "internalType": "address",
          "name": "to",
          "type": "address"
        },
        {
          "internalType": "uint256",
          "name": "tokenId",
          "type": "uint256"
        }
      ],
      "name": "safeTransferFrom",
      "outputs": [],
      "stateMutability": "nonpayable",
      "type": "function"
    },
    {
      "inputs": [
        {
          "internalType": "address",
          "name": "from",
          "type": "address"
        },
        {
          "internalType": "address",
          "name": "to",
          "type": "address"
        },
        {
          "internalType": "uint256",
          "name": "tokenId",
          "type": "uint256"
        },
        {
          "internalType": "bytes",
          "name": "data",
          "type": "bytes"
        }
      ],
      "name": "safeTransferFrom",
      "outputs": [],
      "stateMutability": "nonpayable",
      "type": "function"
    },
    {
      "inputs": [
        {
          "internalType": "address",
          "name": "operator",
          "type": "address"
        },
        {
          "internalType": "bool",
          "name": "approved",
          "type": "bool"
        }
      ],
      "name": "setApprovalForAll",
      "outputs": [],
      "stateMutability": "nonpayable",
      "type": "function"
    },
    {
      "inputs": [
        {
          "internalType": "bytes4",
          "name": "interfaceId",
          "type": "bytes4"
        }
      ],
      "name": "supportsInterface",
      "outputs": [
        {
          "internalType": "bool",
          "name": "",
          "type": "bool"
        }
      ],
      "stateMutability": "view",
      "type": "function"
    },
    {
      "inputs": [],
      "name": "symbol",
      "outputs": [
        {
          "internalType": "string",
          "name": "",
          "type": "string"
        }
      ],
      "stateMutability": "view",
      "type": "function"
    },
    {
      "inputs": [
        {
          "internalType": "uint256",
          "name": "tokenId",
          "type": "uint256"
        }
      ],
      "name": "tokenURI",
      "outputs": [
        {
          "internalType": "string",
          "name": "",
          "type": "string"
        }
      ],
      "stateMutability": "view",
      "type": "function"
    },
    {
      "inputs": [
        {
          "internalType": "address",
          "name": "from",
          "type": "address"
        },
        {
          "internalType": "address",
          "name": "to",
          "type": "address"
        },
        {
          "internalType": "uint256",
          "name": "tokenId",
          "type": "uint256"
        }
      ],
      "name": "transferFrom",
      "outputs": [],
      "stateMutability": "nonpayable",
      "type": "function"
    },
    {
      "inputs": [
        {
          "internalType": "address",
          "name": "newOwner",
          "type": "address"
        }
      ],
      "name": "transferOwnership",
      "outputs": [],
      "stateMutability": "nonpayable",
      "type": "function"
    },
    {
      "inputs": [
        {
          "internalType": "address payable",
          "name": "recipient",
          "type": "address"
        }
      ],
      "name": "withdraw",
      "outputs": [],
      "stateMutability": "nonpayable",
      "type": "function"
    },
    {
      "inputs": [
        {
          "internalType": "address",
          "name": "tokenAddress",
          "type": "address"
        },
        {
          "internalType": "address",
          "name": "recipient",
          "type": "address"
        }
      ],
      "name": "withdrawToken",
      "outputs": [],
      "stateMutability": "nonpayable",
      "type": "function"
    }
  ],
  "bytecode": "0x60806040526001600860006101000a81548160ff0219169083151502179055503480156200002c57600080fd5b50604051806060016040528060348152602001620051db603491396040518060400160405280600781526020017f4b3443415253450000000000000000000000000000000000000000000000000081525081600090816200008e919062000419565b508060019081620000a0919062000419565b505050620000c3620000b7620000d160201b60201c565b620000d960201b60201c565b600160078190555062000500565b600033905090565b6000600660009054906101000a900473ffffffffffffffffffffffffffffffffffffffff16905081600660006101000a81548173ffffffffffffffffffffffffffffffffffffffff021916908373ffffffffffffffffffffffffffffffffffffffff1602179055508173ffffffffffffffffffffffffffffffffffffffff168173ffffffffffffffffffffffffffffffffffffffff167f8be0079c531659141344cd1fd0a4f28419497f9722a3daafe3b4186f6b6457e060405160405180910390a35050565b600081519050919050565b7f4e487b7100000000000000000000000000000000000000000000000000000000600052604160045260246000fd5b7f4e487b7100000000000000000000000000000000000000000000000000000000600052602260045260246000fd5b600060028204905060018216806200022157607f821691505b602082108103620002375762000236620001d9565b5b50919050565b60008190508160005260206000209050919050565b60006020601f8301049050919050565b600082821b905092915050565b600060088302620002a17fffffffffffffffffffffffffffffffffffffffffffffffffffffffffffffffff8262000262565b620002ad868362000262565b95508019841693508086168417925050509392505050565b6000819050919050565b6000819050919050565b6000620002fa620002f4620002ee84620002c5565b620002cf565b620002c5565b9050919050565b6000819050919050565b6200031683620002d9565b6200032e620003258262000301565b8484546200026f565b825550505050565b600090565b6200034562000336565b620003528184846200030b565b505050565b5b818110156200037a576200036e6000826200033b565b60018101905062000358565b5050565b601f821115620003c95762000393816200023d565b6200039e8462000252565b81016020851015620003ae578190505b620003c6620003bd8562000252565b83018262000357565b50505b505050565b600082821c905092915050565b6000620003ee60001984600802620003ce565b1980831691505092915050565b6000620004098383620003db565b9150826002028217905092915050565b62000424826200019f565b67ffffffffffffffff81111562000440576200043f620001aa565b5b6200044c825462000208565b620004598282856200037e565b600060209050601f8311600181146200049157600084156200047c578287015190505b620004888582620003fb565b865550620004f8565b601f198416620004a1866200023d565b60005b82811015620004cb57848901518255600182019150602085019450602081019050620004a4565b86831015620004eb5784890151620004e7601f891682620003db565b8355505b6001600288020188555050505b505050505050565b614ccb80620005106000396000f3fe6080604052600436106101405760003560e01c806370a08231116100b6578063b88d4fde1161006f578063b88d4fde14610437578063c87b56dd14610460578063ce03ec931461049d578063e8a3d485146104b4578063e985e9c5146104df578063f2fde38b1461051c57610140565b806370a082311461033b578063715018a614610378578063733dba6d1461038f5780638da5cb5b146103b857806395d89b41146103e3578063a22cb4651461040e57610140565b806327986a1b1161010857806327986a1b1461023c5780633aeac4e11461025857806342842e0e1461028157806351cff8d9146102aa578063564566a8146102d35780636352211e146102fe57610140565b806301ffc9a71461014557806306fdde0314610182578063081812fc146101ad578063095ea7b3146101ea57806323b872dd14610213575b600080fd5b34801561015157600080fd5b5061016c6004803603810190610167919061302d565b610545565b6040516101799190613075565b60405180910390f35b34801561018e57600080fd5b50610197610627565b6040516101a49190613120565b60405180910390f35b3480156101b957600080fd5b506101d460048036038101906101cf9190613178565b6106b9565b6040516101e191906131e6565b60405180910390f35b3480156101f657600080fd5b50610211600480360381019061020c919061322d565b6106ff565b005b34801561021f57600080fd5b5061023a6004803603810190610235919061326d565b610816565b005b610256600480360381019061025191906134f3565b610876565b005b34801561026457600080fd5b5061027f600480360381019061027a9190613592565b610c55565b005b34801561028d57600080fd5b506102a860048036038101906102a3919061326d565b610e16565b005b3480156102b657600080fd5b506102d160048036038101906102cc9190613610565b610e36565b005b3480156102df57600080fd5b506102e8610ef7565b6040516102f59190613075565b60405180910390f35b34801561030a57600080fd5b5061032560048036038101906103209190613178565b610f0a565b60405161033291906131e6565b60405180910390f35b34801561034757600080fd5b50610362600480360381019061035d919061363d565b610f90565b60405161036f9190613679565b60405180910390f35b34801561038457600080fd5b5061038d611047565b005b34801561039b57600080fd5b506103b660048036038101906103b19190613694565b61105b565b005b3480156103c457600080fd5b506103cd6115a7565b6040516103da91906131e6565b60405180910390f35b3480156103ef57600080fd5b506103f86115d1565b6040516104059190613120565b60405180910390f35b34801561041a57600080fd5b5061043560048036038101906104309190613785565b611663565b005b34801561044357600080fd5b5061045e600480360381019061045991906137c5565b611679565b005b34801561046c57600080fd5b5061048760048036038101906104829190613178565b6116db565b6040516104949190613120565b60405180910390f35b3480156104a957600080fd5b506104b2611743565b005b3480156104c057600080fd5b506104c9611777565b6040516104d69190613120565b60405180910390f35b3480156104eb57600080fd5b5061050660048036038101906105019190613592565b611797565b6040516105139190613075565b60405180910390f35b34801561052857600080fd5b50610543600480360381019061053e919061363d565b61182b565b005b60007f80ac58cd000000000000000000000000000000000000000000000000000000007bffffffffffffffffffffffffffffffffffffffffffffffffffffffff1916827bffffffffffffffffffffffffffffffffffffffffffffffffffffffff1916148061061057507f5b5e139f000000000000000000000000000000000000000000000000000000007bffffffffffffffffffffffffffffffffffffffffffffffffffffffff1916827bffffffffffffffffffffffffffffffffffffffffffffffffffffffff1916145b80610620575061061f826118ae565b5b9050919050565b60606000805461063690613877565b80601f016020809104026020016040519081016040528092919081815260200182805461066290613877565b80156106af5780601f10610684576101008083540402835291602001916106af565b820191906000526020600020905b81548152906001019060200180831161069257829003601f168201915b5050505050905090565b60006106c482611918565b6004600083815260200190815260200160002060009054906101000a900473ffffffffffffffffffffffffffffffffffffffff169050919050565b600061070a82610f0a565b90508073ffffffffffffffffffffffffffffffffffffffff168373ffffffffffffffffffffffffffffffffffffffff160361077a576040517f08c379a00000000000000000000000000000000000000000000000000000000081526004016107719061391a565b60405180910390fd5b8073ffffffffffffffffffffffffffffffffffffffff16610799611963565b73ffffffffffffffffffffffffffffffffffffffff1614806107c857506107c7816107c2611963565b611797565b5b610807576040517f08c379a00000000000000000000000000000000000000000000000000000000081526004016107fe906139ac565b60405180910390fd5b610811838361196b565b505050565b610827610821611963565b82611a24565b610866576040517f08c379a000000000000000000000000000000000000000000000000000000000815260040161085d90613a3e565b60405180910390fd5b610871838383611ab9565b505050565b61087e611db2565b600a8311156108c2576040517f08c379a00000000000000000000000000000000000000000000000000000000081526004016108b990613aaa565b60405180910390fd5b60008303610905576040517f08c379a00000000000000000000000000000000000000000000000000000000081526004016108fc90613b16565b60405180910390fd5b600860009054906101000a900460ff16610954576040517f08c379a000000000000000000000000000000000000000000000000000000000815260040161094b90613b82565b60405180910390fd5b60003403610997576040517f08c379a000000000000000000000000000000000000000000000000000000000815260040161098e90613bee565b60405180910390fd5b61099f6115a7565b73ffffffffffffffffffffffffffffffffffffffff166109bf8383611e01565b73ffffffffffffffffffffffffffffffffffffffff1614610a15576040517f08c379a0000000000000000000000000000000000000000000000000000000008152600401610a0c90613c5a565b60405180910390fd5b600981604051610a259190613cc1565b908152602001604051809103902060009054906101000a900460ff1615610a81576040517f08c379a0000000000000000000000000000000000000000000000000000000008152600401610a7890613d24565b60405180910390fd5b82845114610ac4576040517f08c379a0000000000000000000000000000000000000000000000000000000008152600401610abb90613d90565b60405180910390fd5b60005b83811015610c0f576103e8858281518110610ae557610ae4613db0565b5b602002602001015111158015610b1b5750610b19858281518110610b0c57610b0b613db0565b5b6020026020010151611e40565b155b15610ba257610b4433868381518110610b3757610b36613db0565b5b6020026020010151611e81565b83858281518110610b5857610b57613db0565b5b60200260200101517f188e84d45b0d0f75d776c5ba8d2b1c0507f62d92d3a1817c370bdacdd1e510ee336001600b604051610b9593929190613ddf565b60405180910390a3610bfc565b83858281518110610bb657610bb5613db0565b5b60200260200101517f188e84d45b0d0f75d776c5ba8d2b1c0507f62d92d3a1817c370bdacdd1e510ee336000600b604051610bf393929190613ddf565b60405180910390a35b8080610c0790613e45565b915050610ac7565b506001600982604051610c229190613cc1565b908152602001604051809103902060006101000a81548160ff021916908315150217905550610c4f611e9f565b50505050565b610c5d611ea9565b600073ffffffffffffffffffffffffffffffffffffffff168173ffffffffffffffffffffffffffffffffffffffff1603610ccc576040517f08c379a0000000000000000000000000000000000000000000000000000000008152600401610cc390613ed9565b60405180910390fd5b600082905060008173ffffffffffffffffffffffffffffffffffffffff166370a08231306040518263ffffffff1660e01b8152600401610d0c91906131e6565b602060405180830381865afa158015610d29573d6000803e3d6000fd5b505050506040513d601f19601f82011682018060405250810190610d4d9190613f0e565b11610d8d576040517f08c379a0000000000000000000000000000000000000000000000000000000008152600401610d8490613f87565b60405180910390fd5b610e1181838373ffffffffffffffffffffffffffffffffffffffff166370a08231306040518263ffffffff1660e01b8152600401610dcb91906131e6565b602060405180830381865afa158015610de8573d6000803e3d6000fd5b505050506040513d601f19601f82011682018060405250810190610e0c9190613f0e565b611f27565b505050565b610e3183838360405180602001604052806000815250611679565b505050565b610e3e611ea9565b600073ffffffffffffffffffffffffffffffffffffffff168173ffffffffffffffffffffffffffffffffffffffff1603610ead576040517f08c379a0000000000000000000000000000000000000000000000000000000008152600401610ea490613ed9565b60405180910390fd5b8073ffffffffffffffffffffffffffffffffffffffff166108fc479081150290604051600060405180830381858888f19350505050158015610ef3573d6000803e3d6000fd5b5050565b600860009054906101000a900460ff1681565b600080610f1683611fad565b9050600073ffffffffffffffffffffffffffffffffffffffff168173ffffffffffffffffffffffffffffffffffffffff1603610f87576040517f08c379a0000000000000000000000000000000000000000000000000000000008152600401610f7e90613ff3565b60405180910390fd5b80915050919050565b60008073ffffffffffffffffffffffffffffffffffffffff168273ffffffffffffffffffffffffffffffffffffffff1603611000576040517f08c379a0000000000000000000000000000000000000000000000000000000008152600401610ff790614085565b60405180910390fd5b600360008373ffffffffffffffffffffffffffffffffffffffff1673ffffffffffffffffffffffffffffffffffffffff168152602001908152602001600020549050919050565b61104f611ea9565b6110596000611fea565b565b600a83111561109f576040517f08c379a000000000000000000000000000000000000000000000000000000000815260040161109690613aaa565b60405180910390fd5b600083036110e2576040517f08c379a00000000000000000000000000000000000000000000000000000000081526004016110d990613b16565b60405180910390fd5b600860009054906101000a900460ff16611131576040517f08c379a000000000000000000000000000000000000000000000000000000000815260040161112890613b82565b60405180910390fd5b60008403611174576040517f08c379a000000000000000000000000000000000000000000000000000000000815260040161116b90613bee565b60405180910390fd5b600073ffffffffffffffffffffffffffffffffffffffff168573ffffffffffffffffffffffffffffffffffffffff16036111e3576040517f08c379a00000000000000000000000000000000000000000000000000000000081526004016111da90613ed9565b60405180910390fd5b6111eb6115a7565b73ffffffffffffffffffffffffffffffffffffffff1661120b8383611e01565b73ffffffffffffffffffffffffffffffffffffffff1614611261576040517f08c379a000000000000000000000000000000000000000000000000000000000815260040161125890613c5a565b60405180910390fd5b6009816040516112719190613cc1565b908152602001604051809103902060009054906101000a900460ff16156112cd576040517f08c379a00000000000000000000000000000000000000000000000000000000081526004016112c490613d24565b60405180910390fd5b82865114611310576040517f08c379a000000000000000000000000000000000000000000000000000000000815260040161130790613d90565b60405180910390fd5b6000859050848173ffffffffffffffffffffffffffffffffffffffff1663dd62ed3e33306040518363ffffffff1660e01b81526004016113519291906140a5565b602060405180830381865afa15801561136e573d6000803e3d6000fd5b505050506040513d601f19601f820116820180604052508101906113929190613f0e565b10156113d3576040517f08c379a00000000000000000000000000000000000000000000000000000000081526004016113ca9061411a565b60405180910390fd5b60005b8481101561151e576103e88882815181106113f4576113f3613db0565b5b60200260200101511115801561142a575061142888828151811061141b5761141a613db0565b5b6020026020010151611e40565b155b156114b1576114533389838151811061144657611445613db0565b5b6020026020010151611e81565b8488828151811061146757611466613db0565b5b60200260200101517f188e84d45b0d0f75d776c5ba8d2b1c0507f62d92d3a1817c370bdacdd1e510ee336001600b6040516114a493929190613ddf565b60405180910390a361150b565b848882815181106114c5576114c4613db0565b5b60200260200101517f188e84d45b0d0f75d776c5ba8d2b1c0507f62d92d3a1817c370bdacdd1e510ee336000600b60405161150293929190613ddf565b60405180910390a35b808061151690613e45565b9150506113d6565b5060016009836040516115319190613cc1565b908152602001604051809103902060006101000a81548160ff021916908315150217905550847fa7814aaf178d6c8e61b2703f3dc1b8328dd6c99cbb405bf8f1bb0cb1bbb051a587333060405161158a9392919061413a565b60405180910390a261159e813330886120b0565b50505050505050565b6000600660009054906101000a900473ffffffffffffffffffffffffffffffffffffffff16905090565b6060600180546115e090613877565b80601f016020809104026020016040519081016040528092919081815260200182805461160c90613877565b80156116595780601f1061162e57610100808354040283529160200191611659565b820191906000526020600020905b81548152906001019060200180831161163c57829003601f168201915b5050505050905090565b61167561166e611963565b8383612139565b5050565b61168a611684611963565b83611a24565b6116c9576040517f08c379a00000000000000000000000000000000000000000000000000000000081526004016116c090613a3e565b60405180910390fd5b6116d5848484846122a5565b50505050565b60606116e682611918565b60006116f0612301565b90506000815111611710576040518060200160405280600081525061173b565b8061171a84612321565b60405160200161172b9291906141ad565b6040516020818303038152906040525b915050919050565b61174b611ea9565b600860009054906101000a900460ff1615600860006101000a81548160ff021916908315150217905550565b6060604051806060016040528060238152602001614c7360239139905090565b6000600560008473ffffffffffffffffffffffffffffffffffffffff1673ffffffffffffffffffffffffffffffffffffffff16815260200190815260200160002060008373ffffffffffffffffffffffffffffffffffffffff1673ffffffffffffffffffffffffffffffffffffffff16815260200190815260200160002060009054906101000a900460ff16905092915050565b611833611ea9565b600073ffffffffffffffffffffffffffffffffffffffff168173ffffffffffffffffffffffffffffffffffffffff16036118a2576040517f08c379a000000000000000000000000000000000000000000000000000000000815260040161189990614243565b60405180910390fd5b6118ab81611fea565b50565b60007f01ffc9a7000000000000000000000000000000000000000000000000000000007bffffffffffffffffffffffffffffffffffffffffffffffffffffffff1916827bffffffffffffffffffffffffffffffffffffffffffffffffffffffff1916149050919050565b61192181611e40565b611960576040517f08c379a000000000000000000000000000000000000000000000000000000000815260040161195790613ff3565b60405180910390fd5b50565b600033905090565b816004600083815260200190815260200160002060006101000a81548173ffffffffffffffffffffffffffffffffffffffff021916908373ffffffffffffffffffffffffffffffffffffffff160217905550808273ffffffffffffffffffffffffffffffffffffffff166119de83610f0a565b73ffffffffffffffffffffffffffffffffffffffff167f8c5be1e5ebec7d5bd14f71427d1e84f3dd0314c0f7b2291e5b200ac8c7c3b92560405160405180910390a45050565b600080611a3083610f0a565b90508073ffffffffffffffffffffffffffffffffffffffff168473ffffffffffffffffffffffffffffffffffffffff161480611a725750611a718185611797565b5b80611ab057508373ffffffffffffffffffffffffffffffffffffffff16611a98846106b9565b73ffffffffffffffffffffffffffffffffffffffff16145b91505092915050565b8273ffffffffffffffffffffffffffffffffffffffff16611ad982610f0a565b73ffffffffffffffffffffffffffffffffffffffff1614611b2f576040517f08c379a0000000000000000000000000000000000000000000000000000000008152600401611b26906142d5565b60405180910390fd5b600073ffffffffffffffffffffffffffffffffffffffff168273ffffffffffffffffffffffffffffffffffffffff1603611b9e576040517f08c379a0000000000000000000000000000000000000000000000000000000008152600401611b9590614367565b60405180910390fd5b611bab83838360016123ef565b8273ffffffffffffffffffffffffffffffffffffffff16611bcb82610f0a565b73ffffffffffffffffffffffffffffffffffffffff1614611c21576040517f08c379a0000000000000000000000000000000000000000000000000000000008152600401611c18906142d5565b60405180910390fd5b6004600082815260200190815260200160002060006101000a81549073ffffffffffffffffffffffffffffffffffffffff02191690556001600360008573ffffffffffffffffffffffffffffffffffffffff1673ffffffffffffffffffffffffffffffffffffffff168152602001908152602001600020600082825403925050819055506001600360008473ffffffffffffffffffffffffffffffffffffffff1673ffffffffffffffffffffffffffffffffffffffff16815260200190815260200160002060008282540192505081905550816002600083815260200190815260200160002060006101000a81548173ffffffffffffffffffffffffffffffffffffffff021916908373ffffffffffffffffffffffffffffffffffffffff160217905550808273ffffffffffffffffffffffffffffffffffffffff168473ffffffffffffffffffffffffffffffffffffffff167fddf252ad1be2c89b69c2b068fc378daa952ba7f163c4a11628f55a4df523b3ef60405160405180910390a4611dad8383836001612515565b505050565b600260075403611df7576040517f08c379a0000000000000000000000000000000000000000000000000000000008152600401611dee906143d3565b60405180910390fd5b6002600781905550565b60008083604051602001611e159190614460565b604051602081830303815290604052805190602001209050611e37818461251b565b91505092915050565b60008073ffffffffffffffffffffffffffffffffffffffff16611e6283611fad565b73ffffffffffffffffffffffffffffffffffffffff1614159050919050565b611e9b828260405180602001604052806000815250612542565b5050565b6001600781905550565b611eb1611963565b73ffffffffffffffffffffffffffffffffffffffff16611ecf6115a7565b73ffffffffffffffffffffffffffffffffffffffff1614611f25576040517f08c379a0000000000000000000000000000000000000000000000000000000008152600401611f1c906144d2565b60405180910390fd5b565b611fa88363a9059cbb60e01b8484604051602401611f469291906144f2565b604051602081830303815290604052907bffffffffffffffffffffffffffffffffffffffffffffffffffffffff19166020820180517bffffffffffffffffffffffffffffffffffffffffffffffffffffffff838183161783525050505061259d565b505050565b60006002600083815260200190815260200160002060009054906101000a900473ffffffffffffffffffffffffffffffffffffffff169050919050565b6000600660009054906101000a900473ffffffffffffffffffffffffffffffffffffffff16905081600660006101000a81548173ffffffffffffffffffffffffffffffffffffffff021916908373ffffffffffffffffffffffffffffffffffffffff1602179055508173ffffffffffffffffffffffffffffffffffffffff168173ffffffffffffffffffffffffffffffffffffffff167f8be0079c531659141344cd1fd0a4f28419497f9722a3daafe3b4186f6b6457e060405160405180910390a35050565b612133846323b872dd60e01b8585856040516024016120d19392919061451b565b604051602081830303815290604052907bffffffffffffffffffffffffffffffffffffffffffffffffffffffff19166020820180517bffffffffffffffffffffffffffffffffffffffffffffffffffffffff838183161783525050505061259d565b50505050565b8173ffffffffffffffffffffffffffffffffffffffff168373ffffffffffffffffffffffffffffffffffffffff16036121a7576040517f08c379a000000000000000000000000000000000000000000000000000000000815260040161219e9061459e565b60405180910390fd5b80600560008573ffffffffffffffffffffffffffffffffffffffff1673ffffffffffffffffffffffffffffffffffffffff16815260200190815260200160002060008473ffffffffffffffffffffffffffffffffffffffff1673ffffffffffffffffffffffffffffffffffffffff16815260200190815260200160002060006101000a81548160ff0219169083151502179055508173ffffffffffffffffffffffffffffffffffffffff168373ffffffffffffffffffffffffffffffffffffffff167f17307eab39ab6107e8899845ad3d59bd9653f200f220920489ca2b5937696c31836040516122989190613075565b60405180910390a3505050565b6122b0848484611ab9565b6122bc84848484612664565b6122fb576040517f08c379a00000000000000000000000000000000000000000000000000000000081526004016122f290614630565b60405180910390fd5b50505050565b6060604051806060016040528060238152602001614c7360239139905090565b606060006001612330846127eb565b01905060008167ffffffffffffffff81111561234f5761234e6132c5565b5b6040519080825280601f01601f1916602001820160405280156123815781602001600182028036833780820191505090505b509050600082602001820190505b6001156123e4578080600190039150507f3031323334353637383961626364656600000000000000000000000000000000600a86061a8153600a85816123d8576123d7614650565b5b0494506000850361238f575b819350505050919050565b600181111561250f57600073ffffffffffffffffffffffffffffffffffffffff168473ffffffffffffffffffffffffffffffffffffffff16146124835780600360008673ffffffffffffffffffffffffffffffffffffffff1673ffffffffffffffffffffffffffffffffffffffff168152602001908152602001600020600082825461247b919061467f565b925050819055505b600073ffffffffffffffffffffffffffffffffffffffff168373ffffffffffffffffffffffffffffffffffffffff161461250e5780600360008573ffffffffffffffffffffffffffffffffffffffff1673ffffffffffffffffffffffffffffffffffffffff168152602001908152602001600020600082825461250691906146b3565b925050819055505b5b50505050565b50505050565b600080600061252a858561293e565b915091506125378161298f565b819250505092915050565b61254c8383612af5565b6125596000848484612664565b612598576040517f08c379a000000000000000000000000000000000000000000000000000000000815260040161258f90614630565b60405180910390fd5b505050565b60006125ff826040518060400160405280602081526020017f5361666545524332303a206c6f772d6c6576656c2063616c6c206661696c65648152508573ffffffffffffffffffffffffffffffffffffffff16612d129092919063ffffffff16565b905060008151111561265f578080602001905181019061261f91906146fc565b61265e576040517f08c379a00000000000000000000000000000000000000000000000000000000081526004016126559061479b565b60405180910390fd5b5b505050565b60006126858473ffffffffffffffffffffffffffffffffffffffff16612d2a565b156127de578373ffffffffffffffffffffffffffffffffffffffff1663150b7a026126ae611963565b8786866040518563ffffffff1660e01b81526004016126d09493929190614805565b6020604051808303816000875af192505050801561270c57506040513d601f19601f820116820180604052508101906127099190614866565b60015b61278e573d806000811461273c576040519150601f19603f3d011682016040523d82523d6000602084013e612741565b606091505b506000815103612786576040517f08c379a000000000000000000000000000000000000000000000000000000000815260040161277d90614630565b60405180910390fd5b805181602001fd5b63150b7a0260e01b7bffffffffffffffffffffffffffffffffffffffffffffffffffffffff1916817bffffffffffffffffffffffffffffffffffffffffffffffffffffffff1916149150506127e3565b600190505b949350505050565b600080600090507a184f03e93ff9f4daa797ed6e38ed64bf6a1f0100000000000000008310612849577a184f03e93ff9f4daa797ed6e38ed64bf6a1f010000000000000000838161283f5761283e614650565b5b0492506040810190505b6d04ee2d6d415b85acef81000000008310612886576d04ee2d6d415b85acef8100000000838161287c5761287b614650565b5b0492506020810190505b662386f26fc1000083106128b557662386f26fc1000083816128ab576128aa614650565b5b0492506010810190505b6305f5e10083106128de576305f5e10083816128d4576128d3614650565b5b0492506008810190505b61271083106129035761271083816128f9576128f8614650565b5b0492506004810190505b60648310612926576064838161291c5761291b614650565b5b0492506002810190505b600a8310612935576001810190505b80915050919050565b600080604183510361297f5760008060006020860151925060408601519150606086015160001a905061297387828585612d4d565b94509450505050612988565b60006002915091505b9250929050565b600060048111156129a3576129a2614893565b5b8160048111156129b6576129b5614893565b5b0315612af257600160048111156129d0576129cf614893565b5b8160048111156129e3576129e2614893565b5b03612a23576040517f08c379a0000000000000000000000000000000000000000000000000000000008152600401612a1a9061490e565b60405180910390fd5b60026004811115612a3757612a36614893565b5b816004811115612a4a57612a49614893565b5b03612a8a576040517f08c379a0000000000000000000000000000000000000000000000000000000008152600401612a819061497a565b60405180910390fd5b60036004811115612a9e57612a9d614893565b5b816004811115612ab157612ab0614893565b5b03612af1576040517f08c379a0000000000000000000000000000000000000000000000000000000008152600401612ae890614a0c565b60405180910390fd5b5b50565b600073ffffffffffffffffffffffffffffffffffffffff168273ffffffffffffffffffffffffffffffffffffffff1603612b64576040517f08c379a0000000000000000000000000000000000000000000000000000000008152600401612b5b90614a78565b60405180910390fd5b612b6d81611e40565b15612bad576040517f08c379a0000000000000000000000000000000000000000000000000000000008152600401612ba490614ae4565b60405180910390fd5b612bbb6000838360016123ef565b612bc481611e40565b15612c04576040517f08c379a0000000000000000000000000000000000000000000000000000000008152600401612bfb90614ae4565b60405180910390fd5b6001600360008473ffffffffffffffffffffffffffffffffffffffff1673ffffffffffffffffffffffffffffffffffffffff16815260200190815260200160002060008282540192505081905550816002600083815260200190815260200160002060006101000a81548173ffffffffffffffffffffffffffffffffffffffff021916908373ffffffffffffffffffffffffffffffffffffffff160217905550808273ffffffffffffffffffffffffffffffffffffffff16600073ffffffffffffffffffffffffffffffffffffffff167fddf252ad1be2c89b69c2b068fc378daa952ba7f163c4a11628f55a4df523b3ef60405160405180910390a4612d0e600083836001612515565b5050565b6060612d218484600085612e2f565b90509392505050565b6000808273ffffffffffffffffffffffffffffffffffffffff163b119050919050565b6000807f7fffffffffffffffffffffffffffffff5d576e7357a4501ddfe92f46681b20a08360001c1115612d88576000600391509150612e26565b600060018787878760405160008152602001604052604051612dad9493929190614b2f565b6020604051602081039080840390855afa158015612dcf573d6000803e3d6000fd5b505050602060405103519050600073ffffffffffffffffffffffffffffffffffffffff168173ffffffffffffffffffffffffffffffffffffffff1603612e1d57600060019250925050612e26565b80600092509250505b94509492505050565b606082471015612e74576040517f08c379a0000000000000000000000000000000000000000000000000000000008152600401612e6b90614be6565b60405180910390fd5b6000808673ffffffffffffffffffffffffffffffffffffffff168587604051612e9d9190613cc1565b60006040518083038185875af1925050503d8060008114612eda576040519150601f19603f3d011682016040523d82523d6000602084013e612edf565b606091505b5091509150612ef087838387612efc565b92505050949350505050565b60608315612f5e576000835103612f5657612f1685612d2a565b612f55576040517f08c379a0000000000000000000000000000000000000000000000000000000008152600401612f4c90614c52565b60405180910390fd5b5b829050612f69565b612f688383612f71565b5b949350505050565b600082511115612f845781518083602001fd5b806040517f08c379a0000000000000000000000000000000000000000000000000000000008152600401612fb89190613120565b60405180910390fd5b6000604051905090565b600080fd5b600080fd5b60007fffffffff0000000000000000000000000000000000000000000000000000000082169050919050565b61300a81612fd5565b811461301557600080fd5b50565b60008135905061302781613001565b92915050565b60006020828403121561304357613042612fcb565b5b600061305184828501613018565b91505092915050565b60008115159050919050565b61306f8161305a565b82525050565b600060208201905061308a6000830184613066565b92915050565b600081519050919050565b600082825260208201905092915050565b60005b838110156130ca5780820151818401526020810190506130af565b60008484015250505050565b6000601f19601f8301169050919050565b60006130f282613090565b6130fc818561309b565b935061310c8185602086016130ac565b613115816130d6565b840191505092915050565b6000602082019050818103600083015261313a81846130e7565b905092915050565b6000819050919050565b61315581613142565b811461316057600080fd5b50565b6000813590506131728161314c565b92915050565b60006020828403121561318e5761318d612fcb565b5b600061319c84828501613163565b91505092915050565b600073ffffffffffffffffffffffffffffffffffffffff82169050919050565b60006131d0826131a5565b9050919050565b6131e0816131c5565b82525050565b60006020820190506131fb60008301846131d7565b92915050565b61320a816131c5565b811461321557600080fd5b50565b60008135905061322781613201565b92915050565b6000806040838503121561324457613243612fcb565b5b600061325285828601613218565b925050602061326385828601613163565b9150509250929050565b60008060006060848603121561328657613285612fcb565b5b600061329486828701613218565b93505060206132a586828701613218565b92505060406132b686828701613163565b9150509250925092565b600080fd5b7f4e487b7100000000000000000000000000000000000000000000000000000000600052604160045260246000fd5b6132fd826130d6565b810181811067ffffffffffffffff8211171561331c5761331b6132c5565b5b80604052505050565b600061332f612fc1565b905061333b82826132f4565b919050565b600067ffffffffffffffff82111561335b5761335a6132c5565b5b602082029050602081019050919050565b600080fd5b600061338461337f84613340565b613325565b905080838252602082019050602084028301858111156133a7576133a661336c565b5b835b818110156133d057806133bc8882613163565b8452602084019350506020810190506133a9565b5050509392505050565b600082601f8301126133ef576133ee6132c0565b5b81356133ff848260208601613371565b91505092915050565b6000819050919050565b61341b81613408565b811461342657600080fd5b50565b60008135905061343881613412565b92915050565b600080fd5b600067ffffffffffffffff82111561345e5761345d6132c5565b5b613467826130d6565b9050602081019050919050565b82818337600083830152505050565b600061349661349184613443565b613325565b9050828152602081018484840111156134b2576134b161343e565b5b6134bd848285613474565b509392505050565b600082601f8301126134da576134d96132c0565b5b81356134ea848260208601613483565b91505092915050565b6000806000806080858703121561350d5761350c612fcb565b5b600085013567ffffffffffffffff81111561352b5761352a612fd0565b5b613537878288016133da565b945050602061354887828801613163565b935050604061355987828801613429565b925050606085013567ffffffffffffffff81111561357a57613579612fd0565b5b613586878288016134c5565b91505092959194509250565b600080604083850312156135a9576135a8612fcb565b5b60006135b785828601613218565b92505060206135c885828601613218565b9150509250929050565b60006135dd826131a5565b9050919050565b6135ed816135d2565b81146135f857600080fd5b50565b60008135905061360a816135e4565b92915050565b60006020828403121561362657613625612fcb565b5b6000613634848285016135fb565b91505092915050565b60006020828403121561365357613652612fcb565b5b600061366184828501613218565b91505092915050565b61367381613142565b82525050565b600060208201905061368e600083018461366a565b92915050565b60008060008060008060c087890312156136b1576136b0612fcb565b5b600087013567ffffffffffffffff8111156136cf576136ce612fd0565b5b6136db89828a016133da565b96505060206136ec89828a01613218565b95505060406136fd89828a01613163565b945050606061370e89828a01613163565b935050608061371f89828a01613429565b92505060a087013567ffffffffffffffff8111156137405761373f612fd0565b5b61374c89828a016134c5565b9150509295509295509295565b6137628161305a565b811461376d57600080fd5b50565b60008135905061377f81613759565b92915050565b6000806040838503121561379c5761379b612fcb565b5b60006137aa85828601613218565b92505060206137bb85828601613770565b9150509250929050565b600080600080608085870312156137df576137de612fcb565b5b60006137ed87828801613218565b94505060206137fe87828801613218565b935050604061380f87828801613163565b925050606085013567ffffffffffffffff8111156138305761382f612fd0565b5b61383c878288016134c5565b91505092959194509250565b7f4e487b7100000000000000000000000000000000000000000000000000000000600052602260045260246000fd5b6000600282049050600182168061388f57607f821691505b6020821081036138a2576138a1613848565b5b50919050565b7f4552433732313a20617070726f76616c20746f2063757272656e74206f776e6560008201527f7200000000000000000000000000000000000000000000000000000000000000602082015250565b600061390460218361309b565b915061390f826138a8565b604082019050919050565b60006020820190508181036000830152613933816138f7565b9050919050565b7f4552433732313a20617070726f76652063616c6c6572206973206e6f7420746f60008201527f6b656e206f776e6572206f7220617070726f76656420666f7220616c6c000000602082015250565b6000613996603d8361309b565b91506139a18261393a565b604082019050919050565b600060208201905081810360008301526139c581613989565b9050919050565b7f4552433732313a2063616c6c6572206973206e6f7420746f6b656e206f776e6560008201527f72206f7220617070726f76656400000000000000000000000000000000000000602082015250565b6000613a28602d8361309b565b9150613a33826139cc565b604082019050919050565b60006020820190508181036000830152613a5781613a1b565b9050919050565b7f43616e6e6f7420627579206d6f7265207468616e203130206e66747300000000600082015250565b6000613a94601c8361309b565b9150613a9f82613a5e565b602082019050919050565b60006020820190508181036000830152613ac381613a87565b9050919050565b7f496e73756666696369656e74207175616e746974790000000000000000000000600082015250565b6000613b0060158361309b565b9150613b0b82613aca565b602082019050919050565b60006020820190508181036000830152613b2f81613af3565b9050919050565b7f53616c6520496e61637469766500000000000000000000000000000000000000600082015250565b6000613b6c600d8361309b565b9150613b7782613b36565b602082019050919050565b60006020820190508181036000830152613b9b81613b5f565b9050919050565b7f496e73756666696369656e7420616d6f756e7400000000000000000000000000600082015250565b6000613bd860138361309b565b9150613be382613ba2565b602082019050919050565b60006020820190508181036000830152613c0781613bcb565b9050919050565b7f41646472657373206973206e6f7420617574686f72697a656400000000000000600082015250565b6000613c4460198361309b565b9150613c4f82613c0e565b602082019050919050565b60006020820190508181036000830152613c7381613c37565b9050919050565b600081519050919050565b600081905092915050565b6000613c9b82613c7a565b613ca58185613c85565b9350613cb58185602086016130ac565b80840191505092915050565b6000613ccd8284613c90565b915081905092915050565b7f416c7265616479207369676e6174757265207573656400000000000000000000600082015250565b6000613d0e60168361309b565b9150613d1982613cd8565b602082019050919050565b60006020820190508181036000830152613d3d81613d01565b9050919050565b7f496e76616c696420706172616d65746572000000000000000000000000000000600082015250565b6000613d7a60118361309b565b9150613d8582613d44565b602082019050919050565b60006020820190508181036000830152613da981613d6d565b9050919050565b7f4e487b7100000000000000000000000000000000000000000000000000000000600052603260045260246000fd5b6000606082019050613df460008301866131d7565b613e016020830185613066565b613e0e604083018461366a565b949350505050565b7f4e487b7100000000000000000000000000000000000000000000000000000000600052601160045260246000fd5b6000613e5082613142565b91507fffffffffffffffffffffffffffffffffffffffffffffffffffffffffffffffff8203613e8257613e81613e16565b5b600182019050919050565b7f416464726573732063616e6e6f74206265207a65726f00000000000000000000600082015250565b6000613ec360168361309b565b9150613ece82613e8d565b602082019050919050565b60006020820190508181036000830152613ef281613eb6565b9050919050565b600081519050613f088161314c565b92915050565b600060208284031215613f2457613f23612fcb565b5b6000613f3284828501613ef9565b91505092915050565b7f496e73756666696369656e742062616c616e6365000000000000000000000000600082015250565b6000613f7160148361309b565b9150613f7c82613f3b565b602082019050919050565b60006020820190508181036000830152613fa081613f64565b9050919050565b7f4552433732313a20696e76616c696420746f6b656e2049440000000000000000600082015250565b6000613fdd60188361309b565b9150613fe882613fa7565b602082019050919050565b6000602082019050818103600083015261400c81613fd0565b9050919050565b7f4552433732313a2061646472657373207a65726f206973206e6f74206120766160008201527f6c6964206f776e65720000000000000000000000000000000000000000000000602082015250565b600061406f60298361309b565b915061407a82614013565b604082019050919050565b6000602082019050818103600083015261409e81614062565b9050919050565b60006040820190506140ba60008301856131d7565b6140c760208301846131d7565b9392505050565b7f436865636b2074686520746f6b656e20616c6c6f77616e636500000000000000600082015250565b600061410460198361309b565b915061410f826140ce565b602082019050919050565b60006020820190508181036000830152614133816140f7565b9050919050565b600060608201905061414f60008301866131d7565b61415c60208301856131d7565b61416960408301846131d7565b949350505050565b600081905092915050565b600061418782613090565b6141918185614171565b93506141a18185602086016130ac565b80840191505092915050565b60006141b9828561417c565b91506141c5828461417c565b91508190509392505050565b7f4f776e61626c653a206e6577206f776e657220697320746865207a65726f206160008201527f6464726573730000000000000000000000000000000000000000000000000000602082015250565b600061422d60268361309b565b9150614238826141d1565b604082019050919050565b6000602082019050818103600083015261425c81614220565b9050919050565b7f4552433732313a207472616e736665722066726f6d20696e636f72726563742060008201527f6f776e6572000000000000000000000000000000000000000000000000000000602082015250565b60006142bf60258361309b565b91506142ca82614263565b604082019050919050565b600060208201905081810360008301526142ee816142b2565b9050919050565b7f4552433732313a207472616e7366657220746f20746865207a65726f2061646460008201527f7265737300000000000000000000000000000000000000000000000000000000602082015250565b600061435160248361309b565b915061435c826142f5565b604082019050919050565b6000602082019050818103600083015261438081614344565b9050919050565b7f5265656e7472616e637947756172643a207265656e7472616e742063616c6c00600082015250565b60006143bd601f8361309b565b91506143c882614387565b602082019050919050565b600060208201905081810360008301526143ec816143b0565b9050919050565b7f19457468657265756d205369676e6564204d6573736167653a0a333200000000600082015250565b6000614429601c83614171565b9150614434826143f3565b601c82019050919050565b6000819050919050565b61445a61445582613408565b61443f565b82525050565b600061446b8261441c565b91506144778284614449565b60208201915081905092915050565b7f4f776e61626c653a2063616c6c6572206973206e6f7420746865206f776e6572600082015250565b60006144bc60208361309b565b91506144c782614486565b602082019050919050565b600060208201905081810360008301526144eb816144af565b9050919050565b600060408201905061450760008301856131d7565b614514602083018461366a565b9392505050565b600060608201905061453060008301866131d7565b61453d60208301856131d7565b61454a604083018461366a565b949350505050565b7f4552433732313a20617070726f766520746f2063616c6c657200000000000000600082015250565b600061458860198361309b565b915061459382614552565b602082019050919050565b600060208201905081810360008301526145b78161457b565b9050919050565b7f4552433732313a207472616e7366657220746f206e6f6e20455243373231526560008201527f63656976657220696d706c656d656e7465720000000000000000000000000000602082015250565b600061461a60328361309b565b9150614625826145be565b604082019050919050565b600060208201905081810360008301526146498161460d565b9050919050565b7f4e487b7100000000000000000000000000000000000000000000000000000000600052601260045260246000fd5b600061468a82613142565b915061469583613142565b92508282039050818111156146ad576146ac613e16565b5b92915050565b60006146be82613142565b91506146c983613142565b92508282019050808211156146e1576146e0613e16565b5b92915050565b6000815190506146f681613759565b92915050565b60006020828403121561471257614711612fcb565b5b6000614720848285016146e7565b91505092915050565b7f5361666545524332303a204552433230206f7065726174696f6e20646964206e60008201527f6f74207375636365656400000000000000000000000000000000000000000000602082015250565b6000614785602a8361309b565b915061479082614729565b604082019050919050565b600060208201905081810360008301526147b481614778565b9050919050565b600082825260208201905092915050565b60006147d782613c7a565b6147e181856147bb565b93506147f18185602086016130ac565b6147fa816130d6565b840191505092915050565b600060808201905061481a60008301876131d7565b61482760208301866131d7565b614834604083018561366a565b818103606083015261484681846147cc565b905095945050505050565b60008151905061486081613001565b92915050565b60006020828403121561487c5761487b612fcb565b5b600061488a84828501614851565b91505092915050565b7f4e487b7100000000000000000000000000000000000000000000000000000000600052602160045260246000fd5b7f45434453413a20696e76616c6964207369676e61747572650000000000000000600082015250565b60006148f860188361309b565b9150614903826148c2565b602082019050919050565b60006020820190508181036000830152614927816148eb565b9050919050565b7f45434453413a20696e76616c6964207369676e6174757265206c656e67746800600082015250565b6000614964601f8361309b565b915061496f8261492e565b602082019050919050565b6000602082019050818103600083015261499381614957565b9050919050565b7f45434453413a20696e76616c6964207369676e6174757265202773272076616c60008201527f7565000000000000000000000000000000000000000000000000000000000000602082015250565b60006149f660228361309b565b9150614a018261499a565b604082019050919050565b60006020820190508181036000830152614a25816149e9565b9050919050565b7f4552433732313a206d696e7420746f20746865207a65726f2061646472657373600082015250565b6000614a6260208361309b565b9150614a6d82614a2c565b602082019050919050565b60006020820190508181036000830152614a9181614a55565b9050919050565b7f4552433732313a20746f6b656e20616c7265616479206d696e74656400000000600082015250565b6000614ace601c8361309b565b9150614ad982614a98565b602082019050919050565b60006020820190508181036000830152614afd81614ac1565b9050919050565b614b0d81613408565b82525050565b600060ff82169050919050565b614b2981614b13565b82525050565b6000608082019050614b446000830187614b04565b614b516020830186614b20565b614b5e6040830185614b04565b614b6b6060830184614b04565b95945050505050565b7f416464726573733a20696e73756666696369656e742062616c616e636520666f60008201527f722063616c6c0000000000000000000000000000000000000000000000000000602082015250565b6000614bd060268361309b565b9150614bdb82614b74565b604082019050919050565b60006020820190508181036000830152614bff81614bc3565b9050919050565b7f416464726573733a2063616c6c20746f206e6f6e2d636f6e7472616374000000600082015250565b6000614c3c601d8361309b565b9150614c4782614c06565b602082019050919050565b60006020820190508181036000830152614c6b81614c2f565b905091905056fe68747470733a2f2f67616d652e6b3472616c6c792e696f2f6e66742f6361722f31312fa26469706673582212202400662f572ed0220538dddadfbd4a0b15430b3207451257cc2351a1a82fd6dc64736f6c634300081000334b34205369676e61747572652045646974696f6e202331202d204368726973746f66204b6c6175736e6572204d656d6f7269616c",
  "linkReferences": {},
  "deployedLinkReferences": {}
}