{
  "_format": "hh-sol-artifact-1",
  "contractName": "K4NftCarSignatureEdition1",
  "sourceName": "contracts/K4Rally_Edition1.sol",
  "abi": [
    {
      "inputs": [],
      "stateMutability": "nonpayable",
      "type": "constructor"
    },
    {
      "anonymous": false,
      "inputs": [
        {
          "indexed": true,
          "internalType": "address",
          "name": "owner",
          "type": "address"
        },
        {
          "indexed": true,
          "internalType": "address",
          "name": "approved",
          "type": "address"
        },
        {
          "indexed": true,
          "internalType": "uint256",
          "name": "tokenId",
          "type": "uint256"
        }
      ],
      "name": "Approval",
      "type": "event"
    },
    {
      "anonymous": false,
      "inputs": [
        {
          "indexed": true,
          "internalType": "address",
          "name": "owner",
          "type": "address"
        },
        {
          "indexed": true,
          "internalType": "address",
          "name": "operator",
          "type": "address"
        },
        {
          "indexed": false,
          "internalType": "bool",
          "name": "approved",
          "type": "bool"
        }
      ],
      "name": "ApprovalForAll",
      "type": "event"
    },
    {
      "anonymous": false,
      "inputs": [
        {
          "indexed": false,
          "internalType": "address",
          "name": "_from",
          "type": "address"
        },
        {
          "indexed": true,
          "internalType": "uint256",
          "name": "_tokenId",
          "type": "uint256"
        },
        {
          "indexed": true,
          "internalType": "uint256",
          "name": "_quantity",
          "type": "uint256"
        },
        {
          "indexed": false,
          "internalType": "uint256",
          "name": "_contractID",
          "type": "uint256"
        }
      ],
      "name": "NFTMinted",
      "type": "event"
    },
    {
      "anonymous": false,
      "inputs": [
        {
          "indexed": true,
          "internalType": "address",
          "name": "previousOwner",
          "type": "address"
        },
        {
          "indexed": true,
          "internalType": "address",
          "name": "newOwner",
          "type": "address"
        }
      ],
      "name": "OwnershipTransferred",
      "type": "event"
    },
    {
      "anonymous": false,
      "inputs": [
        {
          "indexed": false,
          "internalType": "address",
          "name": "account",
          "type": "address"
        }
      ],
      "name": "Paused",
      "type": "event"
    },
    {
      "anonymous": false,
      "inputs": [
        {
          "indexed": false,
          "internalType": "address",
          "name": "_token",
          "type": "address"
        },
        {
          "indexed": false,
          "internalType": "address",
          "name": "_from",
          "type": "address"
        },
        {
          "indexed": false,
          "internalType": "address",
          "name": "_to",
          "type": "address"
        },
        {
          "indexed": true,
          "internalType": "uint256",
          "name": "_amount",
          "type": "uint256"
        }
      ],
      "name": "TokenTransfered",
      "type": "event"
    },
    {
      "anonymous": false,
      "inputs": [
        {
          "indexed": true,
          "internalType": "address",
          "name": "from",
          "type": "address"
        },
        {
          "indexed": true,
          "internalType": "address",
          "name": "to",
          "type": "address"
        },
        {
          "indexed": true,
          "internalType": "uint256",
          "name": "tokenId",
          "type": "uint256"
        }
      ],
      "name": "Transfer",
      "type": "event"
    },
    {
      "anonymous": false,
      "inputs": [
        {
          "indexed": false,
          "internalType": "address",
          "name": "account",
          "type": "address"
        }
      ],
      "name": "Unpaused",
      "type": "event"
    },
    {
      "inputs": [
        {
          "internalType": "address",
          "name": "to",
          "type": "address"
        },
        {
          "internalType": "uint256",
          "name": "tokenId",
          "type": "uint256"
        }
      ],
      "name": "approve",
      "outputs": [],
      "stateMutability": "nonpayable",
      "type": "function"
    },
    {
      "inputs": [
        {
          "internalType": "address",
          "name": "owner",
          "type": "address"
        }
      ],
      "name": "balanceOf",
      "outputs": [
        {
          "internalType": "uint256",
          "name": "",
          "type": "uint256"
        }
      ],
      "stateMutability": "view",
      "type": "function"
    },
    {
      "inputs": [],
      "name": "contractURI",
      "outputs": [
        {
          "internalType": "string",
          "name": "",
          "type": "string"
        }
      ],
      "stateMutability": "pure",
      "type": "function"
    },
    {
      "inputs": [],
      "name": "flipSaleStatus",
      "outputs": [],
      "stateMutability": "nonpayable",
      "type": "function"
    },
    {
      "inputs": [
        {
          "internalType": "uint256",
          "name": "tokenId",
          "type": "uint256"
        }
      ],
      "name": "getApproved",
      "outputs": [
        {
          "internalType": "address",
          "name": "",
          "type": "address"
        }
      ],
      "stateMutability": "view",
      "type": "function"
    },
    {
      "inputs": [],
      "name": "getContractBalance",
      "outputs": [
        {
          "internalType": "uint256",
          "name": "",
          "type": "uint256"
        }
      ],
      "stateMutability": "view",
      "type": "function"
    },
    {
      "inputs": [
        {
          "internalType": "address",
          "name": "owner",
          "type": "address"
        },
        {
          "internalType": "address",
          "name": "operator",
          "type": "address"
        }
      ],
      "name": "isApprovedForAll",
      "outputs": [
        {
          "internalType": "bool",
          "name": "",
          "type": "bool"
        }
      ],
      "stateMutability": "view",
      "type": "function"
    },
    {
      "inputs": [],
      "name": "isSaleActive",
      "outputs": [
        {
          "internalType": "bool",
          "name": "",
          "type": "bool"
        }
      ],
      "stateMutability": "view",
      "type": "function"
    },
    {
      "inputs": [],
      "name": "name",
      "outputs": [
        {
          "internalType": "string",
          "name": "",
          "type": "string"
        }
      ],
      "stateMutability": "view",
      "type": "function"
    },
    {
      "inputs": [],
      "name": "nftTotalSupply",
      "outputs": [
        {
          "internalType": "uint256",
          "name": "",
          "type": "uint256"
        }
      ],
      "stateMutability": "view",
      "type": "function"
    },
    {
      "inputs": [],
      "name": "owner",
      "outputs": [
        {
          "internalType": "address",
          "name": "",
          "type": "address"
        }
      ],
      "stateMutability": "view",
      "type": "function"
    },
    {
      "inputs": [
        {
          "internalType": "uint256",
          "name": "tokenId",
          "type": "uint256"
        }
      ],
      "name": "ownerOf",
      "outputs": [
        {
          "internalType": "address",
          "name": "",
          "type": "address"
        }
      ],
      "stateMutability": "view",
      "type": "function"
    },
    {
      "inputs": [],
      "name": "paused",
      "outputs": [
        {
          "internalType": "bool",
          "name": "",
          "type": "bool"
        }
      ],
      "stateMutability": "view",
      "type": "function"
    },
    {
      "inputs": [],
      "name": "renounceOwnership",
      "outputs": [],
      "stateMutability": "nonpayable",
      "type": "function"
    },
    {
      "inputs": [
        {
          "internalType": "uint256[]",
          "name": "tokenId",
          "type": "uint256[]"
        },
        {
          "internalType": "uint256",
          "name": "quantity",
          "type": "uint256"
        },
        {
          "internalType": "bytes32",
          "name": "hash",
          "type": "bytes32"
        },
        {
          "internalType": "bytes",
          "name": "signature",
          "type": "bytes"
        }
      ],
      "name": "safeMintUsingEther",
      "outputs": [],
      "stateMutability": "payable",
      "type": "function"
    },
    {
      "inputs": [
        {
          "internalType": "uint256[]",
          "name": "tokenId",
          "type": "uint256[]"
        },
        {
          "internalType": "address",
          "name": "tokenAddress",
          "type": "address"
        },
        {
          "internalType": "uint256",
          "name": "amount",
          "type": "uint256"
        },
        {
          "internalType": "uint256",
          "name": "quantity",
          "type": "uint256"
        },
        {
          "internalType": "bytes32",
          "name": "hash",
          "type": "bytes32"
        },
        {
          "internalType": "bytes",
          "name": "signature",
          "type": "bytes"
        }
      ],
      "name": "safeMintUsingToken",
      "outputs": [],
      "stateMutability": "nonpayable",
      "type": "function"
    },
    {
      "inputs": [
        {
          "internalType": "address",
          "name": "from",
          "type": "address"
        },
        {
          "internalType": "address",
          "name": "to",
          "type": "address"
        },
        {
          "internalType": "uint256",
          "name": "tokenId",
          "type": "uint256"
        }
      ],
      "name": "safeTransferFrom",
      "outputs": [],
      "stateMutability": "nonpayable",
      "type": "function"
    },
    {
      "inputs": [
        {
          "internalType": "address",
          "name": "from",
          "type": "address"
        },
        {
          "internalType": "address",
          "name": "to",
          "type": "address"
        },
        {
          "internalType": "uint256",
          "name": "tokenId",
          "type": "uint256"
        },
        {
          "internalType": "bytes",
          "name": "data",
          "type": "bytes"
        }
      ],
      "name": "safeTransferFrom",
      "outputs": [],
      "stateMutability": "nonpayable",
      "type": "function"
    },
    {
      "inputs": [
        {
          "internalType": "address",
          "name": "operator",
          "type": "address"
        },
        {
          "internalType": "bool",
          "name": "approved",
          "type": "bool"
        }
      ],
      "name": "setApprovalForAll",
      "outputs": [],
      "stateMutability": "nonpayable",
      "type": "function"
    },
    {
      "inputs": [
        {
          "internalType": "bytes",
          "name": "",
          "type": "bytes"
        }
      ],
      "name": "signatureUsed",
      "outputs": [
        {
          "internalType": "bool",
          "name": "",
          "type": "bool"
        }
      ],
      "stateMutability": "view",
      "type": "function"
    },
    {
      "inputs": [
        {
          "internalType": "bytes4",
          "name": "interfaceId",
          "type": "bytes4"
        }
      ],
      "name": "supportsInterface",
      "outputs": [
        {
          "internalType": "bool",
          "name": "",
          "type": "bool"
        }
      ],
      "stateMutability": "view",
      "type": "function"
    },
    {
      "inputs": [],
      "name": "symbol",
      "outputs": [
        {
          "internalType": "string",
          "name": "",
          "type": "string"
        }
      ],
      "stateMutability": "view",
      "type": "function"
    },
    {
      "inputs": [
        {
          "internalType": "uint256",
          "name": "tokenId",
          "type": "uint256"
        }
      ],
      "name": "tokenURI",
      "outputs": [
        {
          "internalType": "string",
          "name": "",
          "type": "string"
        }
      ],
      "stateMutability": "view",
      "type": "function"
    },
    {
      "inputs": [
        {
          "internalType": "address",
          "name": "from",
          "type": "address"
        },
        {
          "internalType": "address",
          "name": "to",
          "type": "address"
        },
        {
          "internalType": "uint256",
          "name": "tokenId",
          "type": "uint256"
        }
      ],
      "name": "transferFrom",
      "outputs": [],
      "stateMutability": "nonpayable",
      "type": "function"
    },
    {
      "inputs": [
        {
          "internalType": "address",
          "name": "newOwner",
          "type": "address"
        }
      ],
      "name": "transferOwnership",
      "outputs": [],
      "stateMutability": "nonpayable",
      "type": "function"
    },
    {
      "inputs": [
        {
          "internalType": "address payable",
          "name": "recipient",
          "type": "address"
        }
      ],
      "name": "withdraw",
      "outputs": [],
      "stateMutability": "nonpayable",
      "type": "function"
    }
  ],
  "bytecode": "0x60806040526000600960006101000a81548160ff0219169083151502179055503480156200002c57600080fd5b5060405180606001604052806033815260200162004fe0603391396040518060400160405280600781526020017f4b3443415253450000000000000000000000000000000000000000000000000081525081600090816200008e919062000434565b508060019081620000a0919062000434565b5050506000600660006101000a81548160ff021916908315150217905550620000de620000d2620000ec60201b60201c565b620000f460201b60201c565b60016007819055506200051b565b600033905090565b6000600660019054906101000a900473ffffffffffffffffffffffffffffffffffffffff16905081600660016101000a81548173ffffffffffffffffffffffffffffffffffffffff021916908373ffffffffffffffffffffffffffffffffffffffff1602179055508173ffffffffffffffffffffffffffffffffffffffff168173ffffffffffffffffffffffffffffffffffffffff167f8be0079c531659141344cd1fd0a4f28419497f9722a3daafe3b4186f6b6457e060405160405180910390a35050565b600081519050919050565b7f4e487b7100000000000000000000000000000000000000000000000000000000600052604160045260246000fd5b7f4e487b7100000000000000000000000000000000000000000000000000000000600052602260045260246000fd5b600060028204905060018216806200023c57607f821691505b602082108103620002525762000251620001f4565b5b50919050565b60008190508160005260206000209050919050565b60006020601f8301049050919050565b600082821b905092915050565b600060088302620002bc7fffffffffffffffffffffffffffffffffffffffffffffffffffffffffffffffff826200027d565b620002c886836200027d565b95508019841693508086168417925050509392505050565b6000819050919050565b6000819050919050565b6000620003156200030f6200030984620002e0565b620002ea565b620002e0565b9050919050565b6000819050919050565b6200033183620002f4565b6200034962000340826200031c565b8484546200028a565b825550505050565b600090565b6200036062000351565b6200036d81848462000326565b505050565b5b8181101562000395576200038960008262000356565b60018101905062000373565b5050565b601f821115620003e457620003ae8162000258565b620003b9846200026d565b81016020851015620003c9578190505b620003e1620003d8856200026d565b83018262000372565b50505b505050565b600082821c905092915050565b60006200040960001984600802620003e9565b1980831691505092915050565b6000620004248383620003f6565b9150826002028217905092915050565b6200043f82620001ba565b67ffffffffffffffff8111156200045b576200045a620001c5565b5b62000467825462000223565b6200047482828562000399565b600060209050601f831160018114620004ac576000841562000497578287015190505b620004a3858262000416565b86555062000513565b601f198416620004bc8662000258565b60005b82811015620004e657848901518255600182019150602085019450602081019050620004bf565b8683101562000506578489015162000502601f891682620003f6565b8355505b6001600288020188555050505b505050505050565b614ab5806200052b6000396000f3fe6080604052600436106101815760003560e01c806370a08231116100d1578063b88d4fde1161008a578063ce03ec9311610064578063ce03ec9314610573578063e8a3d4851461058a578063e985e9c5146105b5578063f2fde38b146105f257610181565b8063b88d4fde146104d0578063bb10c829146104f9578063c87b56dd1461053657610181565b806370a08231146103d4578063715018a614610411578063733dba6d146104285780638da5cb5b1461045157806395d89b411461047c578063a22cb465146104a757610181565b806327986a1b1161013e578063564566a811610118578063564566a8146103165780635c975abb146103415780636352211e1461036c5780636f9fb98a146103a957610181565b806327986a1b146102a857806342842e0e146102c457806351cff8d9146102ed57610181565b806301ffc9a71461018657806306fdde03146101c3578063081812fc146101ee578063095ea7b31461022b5780630bb237841461025457806323b872dd1461027f575b600080fd5b34801561019257600080fd5b506101ad60048036038101906101a89190612e25565b61061b565b6040516101ba9190612e6d565b60405180910390f35b3480156101cf57600080fd5b506101d86106fd565b6040516101e59190612f18565b60405180910390f35b3480156101fa57600080fd5b5061021560048036038101906102109190612f70565b61078f565b6040516102229190612fde565b60405180910390f35b34801561023757600080fd5b50610252600480360381019061024d9190613025565b6107d5565b005b34801561026057600080fd5b506102696108ec565b6040516102769190613074565b60405180910390f35b34801561028b57600080fd5b506102a660048036038101906102a1919061308f565b6108f2565b005b6102c260048036038101906102bd9190613315565b610952565b005b3480156102d057600080fd5b506102eb60048036038101906102e6919061308f565b610c45565b005b3480156102f957600080fd5b50610314600480360381019061030f91906133f2565b610c65565b005b34801561032257600080fd5b5061032b610d2c565b6040516103389190612e6d565b60405180910390f35b34801561034d57600080fd5b50610356610d3f565b6040516103639190612e6d565b60405180910390f35b34801561037857600080fd5b50610393600480360381019061038e9190612f70565b610d56565b6040516103a09190612fde565b60405180910390f35b3480156103b557600080fd5b506103be610ddc565b6040516103cb9190613074565b60405180910390f35b3480156103e057600080fd5b506103fb60048036038101906103f6919061341f565b610de4565b6040516104089190613074565b60405180910390f35b34801561041d57600080fd5b50610426610e9b565b005b34801561043457600080fd5b5061044f600480360381019061044a919061344c565b610eaf565b005b34801561045d57600080fd5b506104666113ef565b6040516104739190612fde565b60405180910390f35b34801561048857600080fd5b50610491611419565b60405161049e9190612f18565b60405180910390f35b3480156104b357600080fd5b506104ce60048036038101906104c9919061353d565b6114ab565b005b3480156104dc57600080fd5b506104f760048036038101906104f2919061357d565b6114c1565b005b34801561050557600080fd5b50610520600480360381019061051b9190613600565b611523565b60405161052d9190612e6d565b60405180910390f35b34801561054257600080fd5b5061055d60048036038101906105589190612f70565b611559565b60405161056a9190612f18565b60405180910390f35b34801561057f57600080fd5b506105886115c1565b005b34801561059657600080fd5b5061059f6115f5565b6040516105ac9190612f18565b60405180910390f35b3480156105c157600080fd5b506105dc60048036038101906105d79190613649565b611615565b6040516105e99190612e6d565b60405180910390f35b3480156105fe57600080fd5b506106196004803603810190610614919061341f565b6116a9565b005b60007f80ac58cd000000000000000000000000000000000000000000000000000000007bffffffffffffffffffffffffffffffffffffffffffffffffffffffff1916827bffffffffffffffffffffffffffffffffffffffffffffffffffffffff191614806106e657507f5b5e139f000000000000000000000000000000000000000000000000000000007bffffffffffffffffffffffffffffffffffffffffffffffffffffffff1916827bffffffffffffffffffffffffffffffffffffffffffffffffffffffff1916145b806106f657506106f58261172c565b5b9050919050565b60606000805461070c906136b8565b80601f0160208091040260200160405190810160405280929190818152602001828054610738906136b8565b80156107855780601f1061075a57610100808354040283529160200191610785565b820191906000526020600020905b81548152906001019060200180831161076857829003601f168201915b5050505050905090565b600061079a82611796565b6004600083815260200190815260200160002060009054906101000a900473ffffffffffffffffffffffffffffffffffffffff169050919050565b60006107e082610d56565b90508073ffffffffffffffffffffffffffffffffffffffff168373ffffffffffffffffffffffffffffffffffffffff1603610850576040517f08c379a00000000000000000000000000000000000000000000000000000000081526004016108479061375b565b60405180910390fd5b8073ffffffffffffffffffffffffffffffffffffffff1661086f6117e1565b73ffffffffffffffffffffffffffffffffffffffff16148061089e575061089d816108986117e1565b611615565b5b6108dd576040517f08c379a00000000000000000000000000000000000000000000000000000000081526004016108d4906137ed565b60405180910390fd5b6108e783836117e9565b505050565b60085481565b6109036108fd6117e1565b826118a2565b610942576040517f08c379a00000000000000000000000000000000000000000000000000000000081526004016109399061387f565b60405180910390fd5b61094d838383611937565b505050565b61095a611c30565b60006008549050600960009054906101000a900460ff166109b0576040517f08c379a00000000000000000000000000000000000000000000000000000000081526004016109a7906138eb565b60405180910390fd5b600084036109f3576040517f08c379a00000000000000000000000000000000000000000000000000000000081526004016109ea90613957565b60405180910390fd5b6109fb6113ef565b73ffffffffffffffffffffffffffffffffffffffff16610a1b8484611c7f565b73ffffffffffffffffffffffffffffffffffffffff1614610a71576040517f08c379a0000000000000000000000000000000000000000000000000000000008152600401610a68906139c3565b60405180910390fd5b600a82604051610a819190613a2a565b908152602001604051809103902060009054906101000a900460ff1615610add576040517f08c379a0000000000000000000000000000000000000000000000000000000008152600401610ad490613a8d565b60405180910390fd5b60005b84811015610bf75784865114610b2b576040517f08c379a0000000000000000000000000000000000000000000000000000000008152600401610b2290613b1f565b60405180910390fd5b610b4f33878381518110610b4257610b41613b3f565b5b6020026020010151611cbe565b6001868281518110610b6457610b63613b3f565b5b60200260200101818151610b789190613b9d565b91508181525050600182610b8c9190613b9d565b915084868281518110610ba257610ba1613b3f565b5b60200260200101517f7bc3ddf0bf2ada973906c61001cd8f787646720bb7da90229e5bf81fa71bab6d33600b604051610bdc929190613bd1565b60405180910390a38080610bef90613bfa565b915050610ae0565b50806008819055506001600a83604051610c119190613a2a565b908152602001604051809103902060006101000a81548160ff02191690831515021790555050610c3f611cdc565b50505050565b610c60838383604051806020016040528060008152506114c1565b505050565b610c6d611ce6565b600073ffffffffffffffffffffffffffffffffffffffff168173ffffffffffffffffffffffffffffffffffffffff1603610cdc576040517f08c379a0000000000000000000000000000000000000000000000000000000008152600401610cd390613c8e565b60405180910390fd5b60004790508173ffffffffffffffffffffffffffffffffffffffff166108fc829081150290604051600060405180830381858888f19350505050158015610d27573d6000803e3d6000fd5b505050565b600960009054906101000a900460ff1681565b6000600660009054906101000a900460ff16905090565b600080610d6283611d64565b9050600073ffffffffffffffffffffffffffffffffffffffff168173ffffffffffffffffffffffffffffffffffffffff1603610dd3576040517f08c379a0000000000000000000000000000000000000000000000000000000008152600401610dca90613cfa565b60405180910390fd5b80915050919050565b600047905090565b60008073ffffffffffffffffffffffffffffffffffffffff168273ffffffffffffffffffffffffffffffffffffffff1603610e54576040517f08c379a0000000000000000000000000000000000000000000000000000000008152600401610e4b90613d8c565b60405180910390fd5b600360008373ffffffffffffffffffffffffffffffffffffffff1673ffffffffffffffffffffffffffffffffffffffff168152602001908152602001600020549050919050565b610ea3611ce6565b610ead6000611da1565b565b610eb7611c30565b600960009054906101000a900460ff16610f06576040517f08c379a0000000000000000000000000000000000000000000000000000000008152600401610efd906138eb565b60405180910390fd5b60006008549050600086905060008173ffffffffffffffffffffffffffffffffffffffff1663dd62ed3e33306040518363ffffffff1660e01b8152600401610f4f929190613dac565b602060405180830381865afa158015610f6c573d6000803e3d6000fd5b505050506040513d601f19601f82011682018060405250810190610f909190613dea565b905060008614158015610fa4575060008714155b610fe3576040517f08c379a0000000000000000000000000000000000000000000000000000000008152600401610fda90613e89565b60405180910390fd5b600073ffffffffffffffffffffffffffffffffffffffff168873ffffffffffffffffffffffffffffffffffffffff1603611052576040517f08c379a000000000000000000000000000000000000000000000000000000000815260040161104990613c8e565b60405180910390fd5b86811015611095576040517f08c379a000000000000000000000000000000000000000000000000000000000815260040161108c90613ef5565b60405180910390fd5b868273ffffffffffffffffffffffffffffffffffffffff166370a08231336040518263ffffffff1660e01b81526004016110cf9190612fde565b602060405180830381865afa1580156110ec573d6000803e3d6000fd5b505050506040513d601f19601f820116820180604052508101906111109190613dea565b1015611151576040517f08c379a000000000000000000000000000000000000000000000000000000000815260040161114890613f61565b60405180910390fd5b6111596113ef565b73ffffffffffffffffffffffffffffffffffffffff166111798686611c7f565b73ffffffffffffffffffffffffffffffffffffffff16146111cf576040517f08c379a00000000000000000000000000000000000000000000000000000000081526004016111c6906139c3565b60405180910390fd5b600a846040516111df9190613a2a565b908152602001604051809103902060009054906101000a900460ff161561123b576040517f08c379a000000000000000000000000000000000000000000000000000000000815260040161123290613a8d565b60405180910390fd5b60005b8681101561139d57868a5114611289576040517f08c379a000000000000000000000000000000000000000000000000000000000815260040161128090613b1f565b60405180910390fd5b6112958333308b611e67565b6112b9338b83815181106112ac576112ab613b3f565b5b6020026020010151611cbe565b60018a82815181106112ce576112cd613b3f565b5b602002602001018181516112e29190613b9d565b915081815250506001846112f69190613b9d565b9350868a828151811061130c5761130b613b3f565b5b60200260200101517f7bc3ddf0bf2ada973906c61001cd8f787646720bb7da90229e5bf81fa71bab6d33600b604051611346929190613bd1565b60405180910390a3877fa7814aaf178d6c8e61b2703f3dc1b8328dd6c99cbb405bf8f1bb0cb1bbb051a58a333060405161138293929190613f81565b60405180910390a2808061139590613bfa565b91505061123e565b50826008819055506001600a856040516113b79190613a2a565b908152602001604051809103902060006101000a81548160ff0219169083151502179055505050506113e7611cdc565b505050505050565b6000600660019054906101000a900473ffffffffffffffffffffffffffffffffffffffff16905090565b606060018054611428906136b8565b80601f0160208091040260200160405190810160405280929190818152602001828054611454906136b8565b80156114a15780601f10611476576101008083540402835291602001916114a1565b820191906000526020600020905b81548152906001019060200180831161148457829003601f168201915b5050505050905090565b6114bd6114b66117e1565b8383611ef0565b5050565b6114d26114cc6117e1565b836118a2565b611511576040517f08c379a00000000000000000000000000000000000000000000000000000000081526004016115089061387f565b60405180910390fd5b61151d8484848461205c565b50505050565b600a818051602081018201805184825260208301602085012081835280955050505050506000915054906101000a900460ff1681565b606061156482611796565b600061156e6120b8565b9050600081511161158e57604051806020016040528060008152506115b9565b80611598846120d8565b6040516020016115a9929190613ff4565b6040516020818303038152906040525b915050919050565b6115c9611ce6565b600960009054906101000a900460ff1615600960006101000a81548160ff021916908315150217905550565b6060604051806060016040528060238152602001614a5d60239139905090565b6000600560008473ffffffffffffffffffffffffffffffffffffffff1673ffffffffffffffffffffffffffffffffffffffff16815260200190815260200160002060008373ffffffffffffffffffffffffffffffffffffffff1673ffffffffffffffffffffffffffffffffffffffff16815260200190815260200160002060009054906101000a900460ff16905092915050565b6116b1611ce6565b600073ffffffffffffffffffffffffffffffffffffffff168173ffffffffffffffffffffffffffffffffffffffff1603611720576040517f08c379a00000000000000000000000000000000000000000000000000000000081526004016117179061408a565b60405180910390fd5b61172981611da1565b50565b60007f01ffc9a7000000000000000000000000000000000000000000000000000000007bffffffffffffffffffffffffffffffffffffffffffffffffffffffff1916827bffffffffffffffffffffffffffffffffffffffffffffffffffffffff1916149050919050565b61179f816121a6565b6117de576040517f08c379a00000000000000000000000000000000000000000000000000000000081526004016117d590613cfa565b60405180910390fd5b50565b600033905090565b816004600083815260200190815260200160002060006101000a81548173ffffffffffffffffffffffffffffffffffffffff021916908373ffffffffffffffffffffffffffffffffffffffff160217905550808273ffffffffffffffffffffffffffffffffffffffff1661185c83610d56565b73ffffffffffffffffffffffffffffffffffffffff167f8c5be1e5ebec7d5bd14f71427d1e84f3dd0314c0f7b2291e5b200ac8c7c3b92560405160405180910390a45050565b6000806118ae83610d56565b90508073ffffffffffffffffffffffffffffffffffffffff168473ffffffffffffffffffffffffffffffffffffffff1614806118f057506118ef8185611615565b5b8061192e57508373ffffffffffffffffffffffffffffffffffffffff166119168461078f565b73ffffffffffffffffffffffffffffffffffffffff16145b91505092915050565b8273ffffffffffffffffffffffffffffffffffffffff1661195782610d56565b73ffffffffffffffffffffffffffffffffffffffff16146119ad576040517f08c379a00000000000000000000000000000000000000000000000000000000081526004016119a49061411c565b60405180910390fd5b600073ffffffffffffffffffffffffffffffffffffffff168273ffffffffffffffffffffffffffffffffffffffff1603611a1c576040517f08c379a0000000000000000000000000000000000000000000000000000000008152600401611a13906141ae565b60405180910390fd5b611a2983838360016121e7565b8273ffffffffffffffffffffffffffffffffffffffff16611a4982610d56565b73ffffffffffffffffffffffffffffffffffffffff1614611a9f576040517f08c379a0000000000000000000000000000000000000000000000000000000008152600401611a969061411c565b60405180910390fd5b6004600082815260200190815260200160002060006101000a81549073ffffffffffffffffffffffffffffffffffffffff02191690556001600360008573ffffffffffffffffffffffffffffffffffffffff1673ffffffffffffffffffffffffffffffffffffffff168152602001908152602001600020600082825403925050819055506001600360008473ffffffffffffffffffffffffffffffffffffffff1673ffffffffffffffffffffffffffffffffffffffff16815260200190815260200160002060008282540192505081905550816002600083815260200190815260200160002060006101000a81548173ffffffffffffffffffffffffffffffffffffffff021916908373ffffffffffffffffffffffffffffffffffffffff160217905550808273ffffffffffffffffffffffffffffffffffffffff168473ffffffffffffffffffffffffffffffffffffffff167fddf252ad1be2c89b69c2b068fc378daa952ba7f163c4a11628f55a4df523b3ef60405160405180910390a4611c2b838383600161230d565b505050565b600260075403611c75576040517f08c379a0000000000000000000000000000000000000000000000000000000008152600401611c6c9061421a565b60405180910390fd5b6002600781905550565b60008083604051602001611c9391906142a7565b604051602081830303815290604052805190602001209050611cb58184612313565b91505092915050565b611cd882826040518060200160405280600081525061233a565b5050565b6001600781905550565b611cee6117e1565b73ffffffffffffffffffffffffffffffffffffffff16611d0c6113ef565b73ffffffffffffffffffffffffffffffffffffffff1614611d62576040517f08c379a0000000000000000000000000000000000000000000000000000000008152600401611d5990614319565b60405180910390fd5b565b60006002600083815260200190815260200160002060009054906101000a900473ffffffffffffffffffffffffffffffffffffffff169050919050565b6000600660019054906101000a900473ffffffffffffffffffffffffffffffffffffffff16905081600660016101000a81548173ffffffffffffffffffffffffffffffffffffffff021916908373ffffffffffffffffffffffffffffffffffffffff1602179055508173ffffffffffffffffffffffffffffffffffffffff168173ffffffffffffffffffffffffffffffffffffffff167f8be0079c531659141344cd1fd0a4f28419497f9722a3daafe3b4186f6b6457e060405160405180910390a35050565b611eea846323b872dd60e01b858585604051602401611e8893929190614339565b604051602081830303815290604052907bffffffffffffffffffffffffffffffffffffffffffffffffffffffff19166020820180517bffffffffffffffffffffffffffffffffffffffffffffffffffffffff8381831617835250505050612395565b50505050565b8173ffffffffffffffffffffffffffffffffffffffff168373ffffffffffffffffffffffffffffffffffffffff1603611f5e576040517f08c379a0000000000000000000000000000000000000000000000000000000008152600401611f55906143bc565b60405180910390fd5b80600560008573ffffffffffffffffffffffffffffffffffffffff1673ffffffffffffffffffffffffffffffffffffffff16815260200190815260200160002060008473ffffffffffffffffffffffffffffffffffffffff1673ffffffffffffffffffffffffffffffffffffffff16815260200190815260200160002060006101000a81548160ff0219169083151502179055508173ffffffffffffffffffffffffffffffffffffffff168373ffffffffffffffffffffffffffffffffffffffff167f17307eab39ab6107e8899845ad3d59bd9653f200f220920489ca2b5937696c318360405161204f9190612e6d565b60405180910390a3505050565b612067848484611937565b6120738484848461245c565b6120b2576040517f08c379a00000000000000000000000000000000000000000000000000000000081526004016120a99061444e565b60405180910390fd5b50505050565b6060604051806060016040528060238152602001614a5d60239139905090565b6060600060016120e7846125e3565b01905060008167ffffffffffffffff811115612106576121056130e7565b5b6040519080825280601f01601f1916602001820160405280156121385781602001600182028036833780820191505090505b509050600082602001820190505b60011561219b578080600190039150507f3031323334353637383961626364656600000000000000000000000000000000600a86061a8153600a858161218f5761218e61446e565b5b04945060008503612146575b819350505050919050565b60008073ffffffffffffffffffffffffffffffffffffffff166121c883611d64565b73ffffffffffffffffffffffffffffffffffffffff1614159050919050565b600181111561230757600073ffffffffffffffffffffffffffffffffffffffff168473ffffffffffffffffffffffffffffffffffffffff161461227b5780600360008673ffffffffffffffffffffffffffffffffffffffff1673ffffffffffffffffffffffffffffffffffffffff1681526020019081526020016000206000828254612273919061449d565b925050819055505b600073ffffffffffffffffffffffffffffffffffffffff168373ffffffffffffffffffffffffffffffffffffffff16146123065780600360008573ffffffffffffffffffffffffffffffffffffffff1673ffffffffffffffffffffffffffffffffffffffff16815260200190815260200160002060008282546122fe9190613b9d565b925050819055505b5b50505050565b50505050565b60008060006123228585612736565b9150915061232f81612787565b819250505092915050565b61234483836128ed565b612351600084848461245c565b612390576040517f08c379a00000000000000000000000000000000000000000000000000000000081526004016123879061444e565b60405180910390fd5b505050565b60006123f7826040518060400160405280602081526020017f5361666545524332303a206c6f772d6c6576656c2063616c6c206661696c65648152508573ffffffffffffffffffffffffffffffffffffffff16612b0a9092919063ffffffff16565b9050600081511115612457578080602001905181019061241791906144e6565b612456576040517f08c379a000000000000000000000000000000000000000000000000000000000815260040161244d90614585565b60405180910390fd5b5b505050565b600061247d8473ffffffffffffffffffffffffffffffffffffffff16612b22565b156125d6578373ffffffffffffffffffffffffffffffffffffffff1663150b7a026124a66117e1565b8786866040518563ffffffff1660e01b81526004016124c894939291906145ef565b6020604051808303816000875af192505050801561250457506040513d601f19601f820116820180604052508101906125019190614650565b60015b612586573d8060008114612534576040519150601f19603f3d011682016040523d82523d6000602084013e612539565b606091505b50600081510361257e576040517f08c379a00000000000000000000000000000000000000000000000000000000081526004016125759061444e565b60405180910390fd5b805181602001fd5b63150b7a0260e01b7bffffffffffffffffffffffffffffffffffffffffffffffffffffffff1916817bffffffffffffffffffffffffffffffffffffffffffffffffffffffff1916149150506125db565b600190505b949350505050565b600080600090507a184f03e93ff9f4daa797ed6e38ed64bf6a1f0100000000000000008310612641577a184f03e93ff9f4daa797ed6e38ed64bf6a1f01000000000000000083816126375761263661446e565b5b0492506040810190505b6d04ee2d6d415b85acef8100000000831061267e576d04ee2d6d415b85acef810000000083816126745761267361446e565b5b0492506020810190505b662386f26fc1000083106126ad57662386f26fc1000083816126a3576126a261446e565b5b0492506010810190505b6305f5e10083106126d6576305f5e10083816126cc576126cb61446e565b5b0492506008810190505b61271083106126fb5761271083816126f1576126f061446e565b5b0492506004810190505b6064831061271e57606483816127145761271361446e565b5b0492506002810190505b600a831061272d576001810190505b80915050919050565b60008060418351036127775760008060006020860151925060408601519150606086015160001a905061276b87828585612b45565b94509450505050612780565b60006002915091505b9250929050565b6000600481111561279b5761279a61467d565b5b8160048111156127ae576127ad61467d565b5b03156128ea57600160048111156127c8576127c761467d565b5b8160048111156127db576127da61467d565b5b0361281b576040517f08c379a0000000000000000000000000000000000000000000000000000000008152600401612812906146f8565b60405180910390fd5b6002600481111561282f5761282e61467d565b5b8160048111156128425761284161467d565b5b03612882576040517f08c379a000000000000000000000000000000000000000000000000000000000815260040161287990614764565b60405180910390fd5b600360048111156128965761289561467d565b5b8160048111156128a9576128a861467d565b5b036128e9576040517f08c379a00000000000000000000000000000000000000000000000000000000081526004016128e0906147f6565b60405180910390fd5b5b50565b600073ffffffffffffffffffffffffffffffffffffffff168273ffffffffffffffffffffffffffffffffffffffff160361295c576040517f08c379a000000000000000000000000000000000000000000000000000000000815260040161295390614862565b60405180910390fd5b612965816121a6565b156129a5576040517f08c379a000000000000000000000000000000000000000000000000000000000815260040161299c906148ce565b60405180910390fd5b6129b36000838360016121e7565b6129bc816121a6565b156129fc576040517f08c379a00000000000000000000000000000000000000000000000000000000081526004016129f3906148ce565b60405180910390fd5b6001600360008473ffffffffffffffffffffffffffffffffffffffff1673ffffffffffffffffffffffffffffffffffffffff16815260200190815260200160002060008282540192505081905550816002600083815260200190815260200160002060006101000a81548173ffffffffffffffffffffffffffffffffffffffff021916908373ffffffffffffffffffffffffffffffffffffffff160217905550808273ffffffffffffffffffffffffffffffffffffffff16600073ffffffffffffffffffffffffffffffffffffffff167fddf252ad1be2c89b69c2b068fc378daa952ba7f163c4a11628f55a4df523b3ef60405160405180910390a4612b0660008383600161230d565b5050565b6060612b198484600085612c27565b90509392505050565b6000808273ffffffffffffffffffffffffffffffffffffffff163b119050919050565b6000807f7fffffffffffffffffffffffffffffff5d576e7357a4501ddfe92f46681b20a08360001c1115612b80576000600391509150612c1e565b600060018787878760405160008152602001604052604051612ba59493929190614919565b6020604051602081039080840390855afa158015612bc7573d6000803e3d6000fd5b505050602060405103519050600073ffffffffffffffffffffffffffffffffffffffff168173ffffffffffffffffffffffffffffffffffffffff1603612c1557600060019250925050612c1e565b80600092509250505b94509492505050565b606082471015612c6c576040517f08c379a0000000000000000000000000000000000000000000000000000000008152600401612c63906149d0565b60405180910390fd5b6000808673ffffffffffffffffffffffffffffffffffffffff168587604051612c959190613a2a565b60006040518083038185875af1925050503d8060008114612cd2576040519150601f19603f3d011682016040523d82523d6000602084013e612cd7565b606091505b5091509150612ce887838387612cf4565b92505050949350505050565b60608315612d56576000835103612d4e57612d0e85612b22565b612d4d576040517f08c379a0000000000000000000000000000000000000000000000000000000008152600401612d4490614a3c565b60405180910390fd5b5b829050612d61565b612d608383612d69565b5b949350505050565b600082511115612d7c5781518083602001fd5b806040517f08c379a0000000000000000000000000000000000000000000000000000000008152600401612db09190612f18565b60405180910390fd5b6000604051905090565b600080fd5b600080fd5b60007fffffffff0000000000000000000000000000000000000000000000000000000082169050919050565b612e0281612dcd565b8114612e0d57600080fd5b50565b600081359050612e1f81612df9565b92915050565b600060208284031215612e3b57612e3a612dc3565b5b6000612e4984828501612e10565b91505092915050565b60008115159050919050565b612e6781612e52565b82525050565b6000602082019050612e826000830184612e5e565b92915050565b600081519050919050565b600082825260208201905092915050565b60005b83811015612ec2578082015181840152602081019050612ea7565b60008484015250505050565b6000601f19601f8301169050919050565b6000612eea82612e88565b612ef48185612e93565b9350612f04818560208601612ea4565b612f0d81612ece565b840191505092915050565b60006020820190508181036000830152612f328184612edf565b905092915050565b6000819050919050565b612f4d81612f3a565b8114612f5857600080fd5b50565b600081359050612f6a81612f44565b92915050565b600060208284031215612f8657612f85612dc3565b5b6000612f9484828501612f5b565b91505092915050565b600073ffffffffffffffffffffffffffffffffffffffff82169050919050565b6000612fc882612f9d565b9050919050565b612fd881612fbd565b82525050565b6000602082019050612ff36000830184612fcf565b92915050565b61300281612fbd565b811461300d57600080fd5b50565b60008135905061301f81612ff9565b92915050565b6000806040838503121561303c5761303b612dc3565b5b600061304a85828601613010565b925050602061305b85828601612f5b565b9150509250929050565b61306e81612f3a565b82525050565b60006020820190506130896000830184613065565b92915050565b6000806000606084860312156130a8576130a7612dc3565b5b60006130b686828701613010565b93505060206130c786828701613010565b92505060406130d886828701612f5b565b9150509250925092565b600080fd5b7f4e487b7100000000000000000000000000000000000000000000000000000000600052604160045260246000fd5b61311f82612ece565b810181811067ffffffffffffffff8211171561313e5761313d6130e7565b5b80604052505050565b6000613151612db9565b905061315d8282613116565b919050565b600067ffffffffffffffff82111561317d5761317c6130e7565b5b602082029050602081019050919050565b600080fd5b60006131a66131a184613162565b613147565b905080838252602082019050602084028301858111156131c9576131c861318e565b5b835b818110156131f257806131de8882612f5b565b8452602084019350506020810190506131cb565b5050509392505050565b600082601f830112613211576132106130e2565b5b8135613221848260208601613193565b91505092915050565b6000819050919050565b61323d8161322a565b811461324857600080fd5b50565b60008135905061325a81613234565b92915050565b600080fd5b600067ffffffffffffffff8211156132805761327f6130e7565b5b61328982612ece565b9050602081019050919050565b82818337600083830152505050565b60006132b86132b384613265565b613147565b9050828152602081018484840111156132d4576132d3613260565b5b6132df848285613296565b509392505050565b600082601f8301126132fc576132fb6130e2565b5b813561330c8482602086016132a5565b91505092915050565b6000806000806080858703121561332f5761332e612dc3565b5b600085013567ffffffffffffffff81111561334d5761334c612dc8565b5b613359878288016131fc565b945050602061336a87828801612f5b565b935050604061337b8782880161324b565b925050606085013567ffffffffffffffff81111561339c5761339b612dc8565b5b6133a8878288016132e7565b91505092959194509250565b60006133bf82612f9d565b9050919050565b6133cf816133b4565b81146133da57600080fd5b50565b6000813590506133ec816133c6565b92915050565b60006020828403121561340857613407612dc3565b5b6000613416848285016133dd565b91505092915050565b60006020828403121561343557613434612dc3565b5b600061344384828501613010565b91505092915050565b60008060008060008060c0878903121561346957613468612dc3565b5b600087013567ffffffffffffffff81111561348757613486612dc8565b5b61349389828a016131fc565b96505060206134a489828a01613010565b95505060406134b589828a01612f5b565b94505060606134c689828a01612f5b565b93505060806134d789828a0161324b565b92505060a087013567ffffffffffffffff8111156134f8576134f7612dc8565b5b61350489828a016132e7565b9150509295509295509295565b61351a81612e52565b811461352557600080fd5b50565b60008135905061353781613511565b92915050565b6000806040838503121561355457613553612dc3565b5b600061356285828601613010565b925050602061357385828601613528565b9150509250929050565b6000806000806080858703121561359757613596612dc3565b5b60006135a587828801613010565b94505060206135b687828801613010565b93505060406135c787828801612f5b565b925050606085013567ffffffffffffffff8111156135e8576135e7612dc8565b5b6135f4878288016132e7565b91505092959194509250565b60006020828403121561361657613615612dc3565b5b600082013567ffffffffffffffff81111561363457613633612dc8565b5b613640848285016132e7565b91505092915050565b600080604083850312156136605761365f612dc3565b5b600061366e85828601613010565b925050602061367f85828601613010565b9150509250929050565b7f4e487b7100000000000000000000000000000000000000000000000000000000600052602260045260246000fd5b600060028204905060018216806136d057607f821691505b6020821081036136e3576136e2613689565b5b50919050565b7f4552433732313a20617070726f76616c20746f2063757272656e74206f776e6560008201527f7200000000000000000000000000000000000000000000000000000000000000602082015250565b6000613745602183612e93565b9150613750826136e9565b604082019050919050565b6000602082019050818103600083015261377481613738565b9050919050565b7f4552433732313a20617070726f76652063616c6c6572206973206e6f7420746f60008201527f6b656e206f776e6572206f7220617070726f76656420666f7220616c6c000000602082015250565b60006137d7603d83612e93565b91506137e28261377b565b604082019050919050565b60006020820190508181036000830152613806816137ca565b9050919050565b7f4552433732313a2063616c6c6572206973206e6f7420746f6b656e206f776e6560008201527f72206f7220617070726f76656400000000000000000000000000000000000000602082015250565b6000613869602d83612e93565b91506138748261380d565b604082019050919050565b600060208201905081810360008301526138988161385c565b9050919050565b7f53616c65206973206e6f74206163746976650000000000000000000000000000600082015250565b60006138d5601283612e93565b91506138e08261389f565b602082019050919050565b60006020820190508181036000830152613904816138c8565b9050919050565b7f5175616e746974792063616e6e6f74206265207a65726f000000000000000000600082015250565b6000613941601783612e93565b915061394c8261390b565b602082019050919050565b6000602082019050818103600083015261397081613934565b9050919050565b7f41646472657373206973206e6f7420616c6c6f776c6973746564000000000000600082015250565b60006139ad601a83612e93565b91506139b882613977565b602082019050919050565b600060208201905081810360008301526139dc816139a0565b9050919050565b600081519050919050565b600081905092915050565b6000613a04826139e3565b613a0e81856139ee565b9350613a1e818560208601612ea4565b80840191505092915050565b6000613a3682846139f9565b915081905092915050565b7f5369676e61747572652068617320616c7265616479206265656e20757365642e600082015250565b6000613a77602083612e93565b9150613a8282613a41565b602082019050919050565b60006020820190508181036000830152613aa681613a6a565b9050919050565b7f546f6b656e496420616e64207175616e74697479206c656e6774682073686f7560008201527f6c64206265206d61746368000000000000000000000000000000000000000000602082015250565b6000613b09602b83612e93565b9150613b1482613aad565b604082019050919050565b60006020820190508181036000830152613b3881613afc565b9050919050565b7f4e487b7100000000000000000000000000000000000000000000000000000000600052603260045260246000fd5b7f4e487b7100000000000000000000000000000000000000000000000000000000600052601160045260246000fd5b6000613ba882612f3a565b9150613bb383612f3a565b9250828201905080821115613bcb57613bca613b6e565b5b92915050565b6000604082019050613be66000830185612fcf565b613bf36020830184613065565b9392505050565b6000613c0582612f3a565b91507fffffffffffffffffffffffffffffffffffffffffffffffffffffffffffffffff8203613c3757613c36613b6e565b5b600182019050919050565b7f416464726573732063616e6e6f74206265207a65726f00000000000000000000600082015250565b6000613c78601683612e93565b9150613c8382613c42565b602082019050919050565b60006020820190508181036000830152613ca781613c6b565b9050919050565b7f4552433732313a20696e76616c696420746f6b656e2049440000000000000000600082015250565b6000613ce4601883612e93565b9150613cef82613cae565b602082019050919050565b60006020820190508181036000830152613d1381613cd7565b9050919050565b7f4552433732313a2061646472657373207a65726f206973206e6f74206120766160008201527f6c6964206f776e65720000000000000000000000000000000000000000000000602082015250565b6000613d76602983612e93565b9150613d8182613d1a565b604082019050919050565b60006020820190508181036000830152613da581613d69565b9050919050565b6000604082019050613dc16000830185612fcf565b613dce6020830184612fcf565b9392505050565b600081519050613de481612f44565b92915050565b600060208284031215613e0057613dff612dc3565b5b6000613e0e84828501613dd5565b91505092915050565b7f5175616e74697479206f7220416d6f756e742063616e6e6f74206265207a657260008201527f6f00000000000000000000000000000000000000000000000000000000000000602082015250565b6000613e73602183612e93565b9150613e7e82613e17565b604082019050919050565b60006020820190508181036000830152613ea281613e66565b9050919050565b7f436865636b2074686520746f6b656e20616c6c6f77616e636500000000000000600082015250565b6000613edf601983612e93565b9150613eea82613ea9565b602082019050919050565b60006020820190508181036000830152613f0e81613ed2565b9050919050565b7f496e73756666696369656e7420746f6b656e2062616c616e6365000000000000600082015250565b6000613f4b601a83612e93565b9150613f5682613f15565b602082019050919050565b60006020820190508181036000830152613f7a81613f3e565b9050919050565b6000606082019050613f966000830186612fcf565b613fa36020830185612fcf565b613fb06040830184612fcf565b949350505050565b600081905092915050565b6000613fce82612e88565b613fd88185613fb8565b9350613fe8818560208601612ea4565b80840191505092915050565b60006140008285613fc3565b915061400c8284613fc3565b91508190509392505050565b7f4f776e61626c653a206e6577206f776e657220697320746865207a65726f206160008201527f6464726573730000000000000000000000000000000000000000000000000000602082015250565b6000614074602683612e93565b915061407f82614018565b604082019050919050565b600060208201905081810360008301526140a381614067565b9050919050565b7f4552433732313a207472616e736665722066726f6d20696e636f72726563742060008201527f6f776e6572000000000000000000000000000000000000000000000000000000602082015250565b6000614106602583612e93565b9150614111826140aa565b604082019050919050565b60006020820190508181036000830152614135816140f9565b9050919050565b7f4552433732313a207472616e7366657220746f20746865207a65726f2061646460008201527f7265737300000000000000000000000000000000000000000000000000000000602082015250565b6000614198602483612e93565b91506141a38261413c565b604082019050919050565b600060208201905081810360008301526141c78161418b565b9050919050565b7f5265656e7472616e637947756172643a207265656e7472616e742063616c6c00600082015250565b6000614204601f83612e93565b915061420f826141ce565b602082019050919050565b60006020820190508181036000830152614233816141f7565b9050919050565b7f19457468657265756d205369676e6564204d6573736167653a0a333200000000600082015250565b6000614270601c83613fb8565b915061427b8261423a565b601c82019050919050565b6000819050919050565b6142a161429c8261322a565b614286565b82525050565b60006142b282614263565b91506142be8284614290565b60208201915081905092915050565b7f4f776e61626c653a2063616c6c6572206973206e6f7420746865206f776e6572600082015250565b6000614303602083612e93565b915061430e826142cd565b602082019050919050565b60006020820190508181036000830152614332816142f6565b9050919050565b600060608201905061434e6000830186612fcf565b61435b6020830185612fcf565b6143686040830184613065565b949350505050565b7f4552433732313a20617070726f766520746f2063616c6c657200000000000000600082015250565b60006143a6601983612e93565b91506143b182614370565b602082019050919050565b600060208201905081810360008301526143d581614399565b9050919050565b7f4552433732313a207472616e7366657220746f206e6f6e20455243373231526560008201527f63656976657220696d706c656d656e7465720000000000000000000000000000602082015250565b6000614438603283612e93565b9150614443826143dc565b604082019050919050565b600060208201905081810360008301526144678161442b565b9050919050565b7f4e487b7100000000000000000000000000000000000000000000000000000000600052601260045260246000fd5b60006144a882612f3a565b91506144b383612f3a565b92508282039050818111156144cb576144ca613b6e565b5b92915050565b6000815190506144e081613511565b92915050565b6000602082840312156144fc576144fb612dc3565b5b600061450a848285016144d1565b91505092915050565b7f5361666545524332303a204552433230206f7065726174696f6e20646964206e60008201527f6f74207375636365656400000000000000000000000000000000000000000000602082015250565b600061456f602a83612e93565b915061457a82614513565b604082019050919050565b6000602082019050818103600083015261459e81614562565b9050919050565b600082825260208201905092915050565b60006145c1826139e3565b6145cb81856145a5565b93506145db818560208601612ea4565b6145e481612ece565b840191505092915050565b60006080820190506146046000830187612fcf565b6146116020830186612fcf565b61461e6040830185613065565b818103606083015261463081846145b6565b905095945050505050565b60008151905061464a81612df9565b92915050565b60006020828403121561466657614665612dc3565b5b60006146748482850161463b565b91505092915050565b7f4e487b7100000000000000000000000000000000000000000000000000000000600052602160045260246000fd5b7f45434453413a20696e76616c6964207369676e61747572650000000000000000600082015250565b60006146e2601883612e93565b91506146ed826146ac565b602082019050919050565b60006020820190508181036000830152614711816146d5565b9050919050565b7f45434453413a20696e76616c6964207369676e6174757265206c656e67746800600082015250565b600061474e601f83612e93565b915061475982614718565b602082019050919050565b6000602082019050818103600083015261477d81614741565b9050919050565b7f45434453413a20696e76616c6964207369676e6174757265202773272076616c60008201527f7565000000000000000000000000000000000000000000000000000000000000602082015250565b60006147e0602283612e93565b91506147eb82614784565b604082019050919050565b6000602082019050818103600083015261480f816147d3565b9050919050565b7f4552433732313a206d696e7420746f20746865207a65726f2061646472657373600082015250565b600061484c602083612e93565b915061485782614816565b602082019050919050565b6000602082019050818103600083015261487b8161483f565b9050919050565b7f4552433732313a20746f6b656e20616c7265616479206d696e74656400000000600082015250565b60006148b8601c83612e93565b91506148c382614882565b602082019050919050565b600060208201905081810360008301526148e7816148ab565b9050919050565b6148f78161322a565b82525050565b600060ff82169050919050565b614913816148fd565b82525050565b600060808201905061492e60008301876148ee565b61493b602083018661490a565b61494860408301856148ee565b61495560608301846148ee565b95945050505050565b7f416464726573733a20696e73756666696369656e742062616c616e636520666f60008201527f722063616c6c0000000000000000000000000000000000000000000000000000602082015250565b60006149ba602683612e93565b91506149c58261495e565b604082019050919050565b600060208201905081810360008301526149e9816149ad565b9050919050565b7f416464726573733a2063616c6c20746f206e6f6e2d636f6e7472616374000000600082015250565b6000614a26601d83612e93565b9150614a31826149f0565b602082019050919050565b60006020820190508181036000830152614a5581614a19565b905091905056fe68747470733a2f2f67616d652e6b3472616c6c792e696f2f6e66742f6361722f31312fa26469706673582212209882ea72734ce0ab181f82ed4e3ab9d9f541806518975e3ad5d3d8b904b76b6c64736f6c634300081000334b34205369676e61747572652045646974696f6e2031202d204368726973746f66204b6c6175736e6572204d656d6f7269616c",
  "linkReferences": {},
  "deployedLinkReferences": {}
}