{
  "_format": "hh-sol-artifact-1",
  "contractName": "K4NftCarSignatureEdition1V2",
  "sourceName": "contracts/K4NftCarSignatureEdition1V2.sol",
  "abi": [
    {
      "inputs": [],
      "stateMutability": "nonpayable",
      "type": "constructor"
    },
    {
      "anonymous": false,
      "inputs": [
        {
          "indexed": true,
          "internalType": "address",
          "name": "owner",
          "type": "address"
        },
        {
          "indexed": true,
          "internalType": "address",
          "name": "approved",
          "type": "address"
        },
        {
          "indexed": true,
          "internalType": "uint256",
          "name": "tokenId",
          "type": "uint256"
        }
      ],
      "name": "Approval",
      "type": "event"
    },
    {
      "anonymous": false,
      "inputs": [
        {
          "indexed": true,
          "internalType": "address",
          "name": "owner",
          "type": "address"
        },
        {
          "indexed": true,
          "internalType": "address",
          "name": "operator",
          "type": "address"
        },
        {
          "indexed": false,
          "internalType": "bool",
          "name": "approved",
          "type": "bool"
        }
      ],
      "name": "ApprovalForAll",
      "type": "event"
    },
    {
      "anonymous": false,
      "inputs": [
        {
          "indexed": false,
          "internalType": "address",
          "name": "_from",
          "type": "address"
        },
        {
          "indexed": true,
          "internalType": "uint256",
          "name": "_tokenId",
          "type": "uint256"
        },
        {
          "indexed": true,
          "internalType": "uint256",
          "name": "_quantity",
          "type": "uint256"
        },
        {
          "indexed": false,
          "internalType": "bool",
          "name": "_success",
          "type": "bool"
        },
        {
          "indexed": false,
          "internalType": "uint256",
          "name": "_contractID",
          "type": "uint256"
        }
      ],
      "name": "NFTMinted",
      "type": "event"
    },
    {
      "anonymous": false,
      "inputs": [
        {
          "indexed": true,
          "internalType": "address",
          "name": "previousOwner",
          "type": "address"
        },
        {
          "indexed": true,
          "internalType": "address",
          "name": "newOwner",
          "type": "address"
        }
      ],
      "name": "OwnershipTransferred",
      "type": "event"
    },
    {
      "anonymous": false,
      "inputs": [
        {
          "indexed": false,
          "internalType": "address",
          "name": "_token",
          "type": "address"
        },
        {
          "indexed": false,
          "internalType": "address",
          "name": "_from",
          "type": "address"
        },
        {
          "indexed": false,
          "internalType": "address",
          "name": "_to",
          "type": "address"
        },
        {
          "indexed": true,
          "internalType": "uint256",
          "name": "_amount",
          "type": "uint256"
        }
      ],
      "name": "TokenTransfered",
      "type": "event"
    },
    {
      "anonymous": false,
      "inputs": [
        {
          "indexed": true,
          "internalType": "address",
          "name": "from",
          "type": "address"
        },
        {
          "indexed": true,
          "internalType": "address",
          "name": "to",
          "type": "address"
        },
        {
          "indexed": true,
          "internalType": "uint256",
          "name": "tokenId",
          "type": "uint256"
        }
      ],
      "name": "Transfer",
      "type": "event"
    },
    {
      "inputs": [
        {
          "internalType": "address",
          "name": "to",
          "type": "address"
        },
        {
          "internalType": "uint256",
          "name": "tokenId",
          "type": "uint256"
        }
      ],
      "name": "approve",
      "outputs": [],
      "stateMutability": "nonpayable",
      "type": "function"
    },
    {
      "inputs": [
        {
          "internalType": "address",
          "name": "owner",
          "type": "address"
        }
      ],
      "name": "balanceOf",
      "outputs": [
        {
          "internalType": "uint256",
          "name": "",
          "type": "uint256"
        }
      ],
      "stateMutability": "view",
      "type": "function"
    },
    {
      "inputs": [],
      "name": "contractURI",
      "outputs": [
        {
          "internalType": "string",
          "name": "",
          "type": "string"
        }
      ],
      "stateMutability": "pure",
      "type": "function"
    },
    {
      "inputs": [],
      "name": "flipSaleStatus",
      "outputs": [],
      "stateMutability": "nonpayable",
      "type": "function"
    },
    {
      "inputs": [
        {
          "internalType": "uint256",
          "name": "tokenId",
          "type": "uint256"
        }
      ],
      "name": "getApproved",
      "outputs": [
        {
          "internalType": "address",
          "name": "",
          "type": "address"
        }
      ],
      "stateMutability": "view",
      "type": "function"
    },
    {
      "inputs": [],
      "name": "getHotWalletAddress",
      "outputs": [
        {
          "internalType": "address[]",
          "name": "",
          "type": "address[]"
        }
      ],
      "stateMutability": "view",
      "type": "function"
    },
    {
      "inputs": [
        {
          "internalType": "address",
          "name": "owner",
          "type": "address"
        },
        {
          "internalType": "address",
          "name": "operator",
          "type": "address"
        }
      ],
      "name": "isApprovedForAll",
      "outputs": [
        {
          "internalType": "bool",
          "name": "",
          "type": "bool"
        }
      ],
      "stateMutability": "view",
      "type": "function"
    },
    {
      "inputs": [],
      "name": "isSaleActive",
      "outputs": [
        {
          "internalType": "bool",
          "name": "",
          "type": "bool"
        }
      ],
      "stateMutability": "view",
      "type": "function"
    },
    {
      "inputs": [
        {
          "internalType": "uint256[]",
          "name": "tokenId",
          "type": "uint256[]"
        },
        {
          "internalType": "address",
          "name": "tokenAddress",
          "type": "address"
        },
        {
          "internalType": "uint256",
          "name": "amount",
          "type": "uint256"
        },
        {
          "internalType": "uint256",
          "name": "quantity",
          "type": "uint256"
        },
        {
          "internalType": "address",
          "name": "to",
          "type": "address"
        }
      ],
      "name": "mintHotWalletUsingToken",
      "outputs": [],
      "stateMutability": "nonpayable",
      "type": "function"
    },
    {
      "inputs": [],
      "name": "name",
      "outputs": [
        {
          "internalType": "string",
          "name": "",
          "type": "string"
        }
      ],
      "stateMutability": "view",
      "type": "function"
    },
    {
      "inputs": [],
      "name": "owner",
      "outputs": [
        {
          "internalType": "address",
          "name": "",
          "type": "address"
        }
      ],
      "stateMutability": "view",
      "type": "function"
    },
    {
      "inputs": [
        {
          "internalType": "uint256",
          "name": "tokenId",
          "type": "uint256"
        }
      ],
      "name": "ownerOf",
      "outputs": [
        {
          "internalType": "address",
          "name": "",
          "type": "address"
        }
      ],
      "stateMutability": "view",
      "type": "function"
    },
    {
      "inputs": [
        {
          "internalType": "address",
          "name": "user",
          "type": "address"
        }
      ],
      "name": "removeHotwalletAddress",
      "outputs": [],
      "stateMutability": "nonpayable",
      "type": "function"
    },
    {
      "inputs": [],
      "name": "renounceOwnership",
      "outputs": [],
      "stateMutability": "nonpayable",
      "type": "function"
    },
    {
      "inputs": [
        {
          "internalType": "uint256[]",
          "name": "tokenId",
          "type": "uint256[]"
        },
        {
          "internalType": "uint256",
          "name": "quantity",
          "type": "uint256"
        },
        {
          "internalType": "bytes32",
          "name": "hash",
          "type": "bytes32"
        },
        {
          "internalType": "bytes",
          "name": "signature",
          "type": "bytes"
        }
      ],
      "name": "safeMintUsingEther",
      "outputs": [],
      "stateMutability": "payable",
      "type": "function"
    },
    {
      "inputs": [
        {
          "internalType": "uint256[]",
          "name": "tokenId",
          "type": "uint256[]"
        },
        {
          "internalType": "address",
          "name": "tokenAddress",
          "type": "address"
        },
        {
          "internalType": "uint256",
          "name": "amount",
          "type": "uint256"
        },
        {
          "internalType": "uint256",
          "name": "quantity",
          "type": "uint256"
        },
        {
          "internalType": "bytes32",
          "name": "hash",
          "type": "bytes32"
        },
        {
          "internalType": "bytes",
          "name": "signature",
          "type": "bytes"
        }
      ],
      "name": "safeMintUsingToken",
      "outputs": [],
      "stateMutability": "nonpayable",
      "type": "function"
    },
    {
      "inputs": [
        {
          "internalType": "address",
          "name": "from",
          "type": "address"
        },
        {
          "internalType": "address",
          "name": "to",
          "type": "address"
        },
        {
          "internalType": "uint256",
          "name": "tokenId",
          "type": "uint256"
        }
      ],
      "name": "safeTransferFrom",
      "outputs": [],
      "stateMutability": "nonpayable",
      "type": "function"
    },
    {
      "inputs": [
        {
          "internalType": "address",
          "name": "from",
          "type": "address"
        },
        {
          "internalType": "address",
          "name": "to",
          "type": "address"
        },
        {
          "internalType": "uint256",
          "name": "tokenId",
          "type": "uint256"
        },
        {
          "internalType": "bytes",
          "name": "data",
          "type": "bytes"
        }
      ],
      "name": "safeTransferFrom",
      "outputs": [],
      "stateMutability": "nonpayable",
      "type": "function"
    },
    {
      "inputs": [
        {
          "internalType": "address",
          "name": "operator",
          "type": "address"
        },
        {
          "internalType": "bool",
          "name": "approved",
          "type": "bool"
        }
      ],
      "name": "setApprovalForAll",
      "outputs": [],
      "stateMutability": "nonpayable",
      "type": "function"
    },
    {
      "inputs": [
        {
          "internalType": "address",
          "name": "user",
          "type": "address"
        }
      ],
      "name": "setHotwalletAddress",
      "outputs": [],
      "stateMutability": "nonpayable",
      "type": "function"
    },
    {
      "inputs": [
        {
          "internalType": "bytes4",
          "name": "interfaceId",
          "type": "bytes4"
        }
      ],
      "name": "supportsInterface",
      "outputs": [
        {
          "internalType": "bool",
          "name": "",
          "type": "bool"
        }
      ],
      "stateMutability": "view",
      "type": "function"
    },
    {
      "inputs": [],
      "name": "symbol",
      "outputs": [
        {
          "internalType": "string",
          "name": "",
          "type": "string"
        }
      ],
      "stateMutability": "view",
      "type": "function"
    },
    {
      "inputs": [
        {
          "internalType": "uint256",
          "name": "tokenId",
          "type": "uint256"
        }
      ],
      "name": "tokenURI",
      "outputs": [
        {
          "internalType": "string",
          "name": "",
          "type": "string"
        }
      ],
      "stateMutability": "view",
      "type": "function"
    },
    {
      "inputs": [
        {
          "internalType": "address",
          "name": "from",
          "type": "address"
        },
        {
          "internalType": "address",
          "name": "to",
          "type": "address"
        },
        {
          "internalType": "uint256",
          "name": "tokenId",
          "type": "uint256"
        }
      ],
      "name": "transferFrom",
      "outputs": [],
      "stateMutability": "nonpayable",
      "type": "function"
    },
    {
      "inputs": [
        {
          "internalType": "address",
          "name": "newOwner",
          "type": "address"
        }
      ],
      "name": "transferOwnership",
      "outputs": [],
      "stateMutability": "nonpayable",
      "type": "function"
    },
    {
      "inputs": [
        {
          "internalType": "address payable",
          "name": "recipient",
          "type": "address"
        }
      ],
      "name": "withdraw",
      "outputs": [],
      "stateMutability": "nonpayable",
      "type": "function"
    },
    {
      "inputs": [
        {
          "internalType": "address",
          "name": "tokenAddress",
          "type": "address"
        },
        {
          "internalType": "address",
          "name": "recipient",
          "type": "address"
        }
      ],
      "name": "withdrawToken",
      "outputs": [],
      "stateMutability": "nonpayable",
      "type": "function"
    }
  ],
  "bytecode": "0x60806040526001600860006101000a81548160ff0219169083151502179055503480156200002c57600080fd5b50604051806060016040528060348152602001620061ca603491396040518060400160405280600781526020017f4b3443415253450000000000000000000000000000000000000000000000000081525081600090816200008e919062000419565b508060019081620000a0919062000419565b505050620000c3620000b7620000d160201b60201c565b620000d960201b60201c565b600160078190555062000500565b600033905090565b6000600660009054906101000a900473ffffffffffffffffffffffffffffffffffffffff16905081600660006101000a81548173ffffffffffffffffffffffffffffffffffffffff021916908373ffffffffffffffffffffffffffffffffffffffff1602179055508173ffffffffffffffffffffffffffffffffffffffff168173ffffffffffffffffffffffffffffffffffffffff167f8be0079c531659141344cd1fd0a4f28419497f9722a3daafe3b4186f6b6457e060405160405180910390a35050565b600081519050919050565b7f4e487b7100000000000000000000000000000000000000000000000000000000600052604160045260246000fd5b7f4e487b7100000000000000000000000000000000000000000000000000000000600052602260045260246000fd5b600060028204905060018216806200022157607f821691505b602082108103620002375762000236620001d9565b5b50919050565b60008190508160005260206000209050919050565b60006020601f8301049050919050565b600082821b905092915050565b600060088302620002a17fffffffffffffffffffffffffffffffffffffffffffffffffffffffffffffffff8262000262565b620002ad868362000262565b95508019841693508086168417925050509392505050565b6000819050919050565b6000819050919050565b6000620002fa620002f4620002ee84620002c5565b620002cf565b620002c5565b9050919050565b6000819050919050565b6200031683620002d9565b6200032e620003258262000301565b8484546200026f565b825550505050565b600090565b6200034562000336565b620003528184846200030b565b505050565b5b818110156200037a576200036e6000826200033b565b60018101905062000358565b5050565b601f821115620003c95762000393816200023d565b6200039e8462000252565b81016020851015620003ae578190505b620003c6620003bd8562000252565b83018262000357565b50505b505050565b600082821c905092915050565b6000620003ee60001984600802620003ce565b1980831691505092915050565b6000620004098383620003db565b9150826002028217905092915050565b62000424826200019f565b67ffffffffffffffff81111562000440576200043f620001aa565b5b6200044c825462000208565b620004598282856200037e565b600060209050601f8311600181146200049157600084156200047c578287015190505b620004888582620003fb565b865550620004f8565b601f198416620004a1866200023d565b60005b82811015620004cb57848901518255600182019150602085019450602081019050620004a4565b86831015620004eb5784890151620004e7601f891682620003db565b8355505b6001600288020188555050505b505050505050565b615cba80620005106000396000f3fe60806040526004361061019c5760003560e01c806370a08231116100ec578063b9a8f33b1161008a578063ce03ec9311610064578063ce03ec931461059f578063e8a3d485146105b6578063e985e9c5146105e1578063f2fde38b1461061e5761019c565b8063b9a8f33b14610510578063c55f898814610539578063c87b56dd146105625761019c565b80638da5cb5b116100c65780638da5cb5b1461046857806395d89b4114610493578063a22cb465146104be578063b88d4fde146104e75761019c565b806370a08231146103eb578063715018a614610428578063733dba6d1461043f5761019c565b80633aeac4e1116101595780634e092e56116101335780634e092e561461033157806351cff8d91461035a578063564566a8146103835780636352211e146103ae5761019c565b80633aeac4e1146102b457806340b5886b146102dd57806342842e0e146103085761019c565b806301ffc9a7146101a157806306fdde03146101de578063081812fc14610209578063095ea7b31461024657806323b872dd1461026f57806327986a1b14610298575b600080fd5b3480156101ad57600080fd5b506101c860048036038101906101c39190613c5a565b610647565b6040516101d59190613ca2565b60405180910390f35b3480156101ea57600080fd5b506101f3610729565b6040516102009190613d4d565b60405180910390f35b34801561021557600080fd5b50610230600480360381019061022b9190613da5565b6107bb565b60405161023d9190613e13565b60405180910390f35b34801561025257600080fd5b5061026d60048036038101906102689190613e5a565b610801565b005b34801561027b57600080fd5b5061029660048036038101906102919190613e9a565b610918565b005b6102b260048036038101906102ad9190614120565b610978565b005b3480156102c057600080fd5b506102db60048036038101906102d691906141bf565b610d57565b005b3480156102e957600080fd5b506102f2610f18565b6040516102ff91906142bd565b60405180910390f35b34801561031457600080fd5b5061032f600480360381019061032a9190613e9a565b610fae565b005b34801561033d57600080fd5b50610358600480360381019061035391906142df565b610fce565b005b34801561036657600080fd5b50610381600480360381019061037c91906143b4565b61147b565b005b34801561038f57600080fd5b5061039861153c565b6040516103a59190613ca2565b60405180910390f35b3480156103ba57600080fd5b506103d560048036038101906103d09190613da5565b61154f565b6040516103e29190613e13565b60405180910390f35b3480156103f757600080fd5b50610412600480360381019061040d91906143e1565b6115d5565b60405161041f919061441d565b60405180910390f35b34801561043457600080fd5b5061043d61168c565b005b34801561044b57600080fd5b5061046660048036038101906104619190614438565b6116a0565b005b34801561047457600080fd5b5061047d611bec565b60405161048a9190613e13565b60405180910390f35b34801561049f57600080fd5b506104a8611c16565b6040516104b59190613d4d565b60405180910390f35b3480156104ca57600080fd5b506104e560048036038101906104e09190614529565b611ca8565b005b3480156104f357600080fd5b5061050e60048036038101906105099190614569565b611cbe565b005b34801561051c57600080fd5b50610537600480360381019061053291906143e1565b611d20565b005b34801561054557600080fd5b50610560600480360381019061055b91906143e1565b611ee2565b005b34801561056e57600080fd5b5061058960048036038101906105849190613da5565b61226a565b6040516105969190613d4d565b60405180910390f35b3480156105ab57600080fd5b506105b46122d2565b005b3480156105c257600080fd5b506105cb612306565b6040516105d89190613d4d565b60405180910390f35b3480156105ed57600080fd5b50610608600480360381019061060391906141bf565b612326565b6040516106159190613ca2565b60405180910390f35b34801561062a57600080fd5b50610645600480360381019061064091906143e1565b6123ba565b005b60007f80ac58cd000000000000000000000000000000000000000000000000000000007bffffffffffffffffffffffffffffffffffffffffffffffffffffffff1916827bffffffffffffffffffffffffffffffffffffffffffffffffffffffff1916148061071257507f5b5e139f000000000000000000000000000000000000000000000000000000007bffffffffffffffffffffffffffffffffffffffffffffffffffffffff1916827bffffffffffffffffffffffffffffffffffffffffffffffffffffffff1916145b8061072257506107218261243d565b5b9050919050565b6060600080546107389061461b565b80601f01602080910402602001604051908101604052809291908181526020018280546107649061461b565b80156107b15780601f10610786576101008083540402835291602001916107b1565b820191906000526020600020905b81548152906001019060200180831161079457829003601f168201915b5050505050905090565b60006107c6826124a7565b6004600083815260200190815260200160002060009054906101000a900473ffffffffffffffffffffffffffffffffffffffff169050919050565b600061080c8261154f565b90508073ffffffffffffffffffffffffffffffffffffffff168373ffffffffffffffffffffffffffffffffffffffff160361087c576040517f08c379a0000000000000000000000000000000000000000000000000000000008152600401610873906146be565b60405180910390fd5b8073ffffffffffffffffffffffffffffffffffffffff1661089b6124f2565b73ffffffffffffffffffffffffffffffffffffffff1614806108ca57506108c9816108c46124f2565b612326565b5b610909576040517f08c379a000000000000000000000000000000000000000000000000000000000815260040161090090614750565b60405180910390fd5b61091383836124fa565b505050565b6109296109236124f2565b826125b3565b610968576040517f08c379a000000000000000000000000000000000000000000000000000000000815260040161095f906147e2565b60405180910390fd5b610973838383612648565b505050565b610980612941565b600a8311156109c4576040517f08c379a00000000000000000000000000000000000000000000000000000000081526004016109bb9061484e565b60405180910390fd5b60008303610a07576040517f08c379a00000000000000000000000000000000000000000000000000000000081526004016109fe906148ba565b60405180910390fd5b600860009054906101000a900460ff16610a56576040517f08c379a0000000000000000000000000000000000000000000000000000000008152600401610a4d90614926565b60405180910390fd5b60003403610a99576040517f08c379a0000000000000000000000000000000000000000000000000000000008152600401610a9090614992565b60405180910390fd5b610aa1611bec565b73ffffffffffffffffffffffffffffffffffffffff16610ac18383612990565b73ffffffffffffffffffffffffffffffffffffffff1614610b17576040517f08c379a0000000000000000000000000000000000000000000000000000000008152600401610b0e906149fe565b60405180910390fd5b600a81604051610b279190614a65565b908152602001604051809103902060009054906101000a900460ff1615610b83576040517f08c379a0000000000000000000000000000000000000000000000000000000008152600401610b7a90614ac8565b60405180910390fd5b82845114610bc6576040517f08c379a0000000000000000000000000000000000000000000000000000000008152600401610bbd90614b34565b60405180910390fd5b60005b83811015610d11576103e8858281518110610be757610be6614b54565b5b602002602001015111158015610c1d5750610c1b858281518110610c0e57610c0d614b54565b5b60200260200101516129cf565b155b15610ca457610c4633868381518110610c3957610c38614b54565b5b6020026020010151612a10565b83858281518110610c5a57610c59614b54565b5b60200260200101517f188e84d45b0d0f75d776c5ba8d2b1c0507f62d92d3a1817c370bdacdd1e510ee336001600b604051610c9793929190614b83565b60405180910390a3610cfe565b83858281518110610cb857610cb7614b54565b5b60200260200101517f188e84d45b0d0f75d776c5ba8d2b1c0507f62d92d3a1817c370bdacdd1e510ee336000600b604051610cf593929190614b83565b60405180910390a35b8080610d0990614be9565b915050610bc9565b506001600a82604051610d249190614a65565b908152602001604051809103902060006101000a81548160ff021916908315150217905550610d51612a2e565b50505050565b610d5f612a38565b600073ffffffffffffffffffffffffffffffffffffffff168173ffffffffffffffffffffffffffffffffffffffff1603610dce576040517f08c379a0000000000000000000000000000000000000000000000000000000008152600401610dc590614c7d565b60405180910390fd5b600082905060008173ffffffffffffffffffffffffffffffffffffffff166370a08231306040518263ffffffff1660e01b8152600401610e0e9190613e13565b602060405180830381865afa158015610e2b573d6000803e3d6000fd5b505050506040513d601f19601f82011682018060405250810190610e4f9190614cb2565b11610e8f576040517f08c379a0000000000000000000000000000000000000000000000000000000008152600401610e8690614d2b565b60405180910390fd5b610f1381838373ffffffffffffffffffffffffffffffffffffffff166370a08231306040518263ffffffff1660e01b8152600401610ecd9190613e13565b602060405180830381865afa158015610eea573d6000803e3d6000fd5b505050506040513d601f19601f82011682018060405250810190610f0e9190614cb2565b612ab6565b505050565b6060610f22612a38565b6009805480602002602001604051908101604052809291908181526020018280548015610fa457602002820191906000526020600020905b8160009054906101000a900473ffffffffffffffffffffffffffffffffffffffff1673ffffffffffffffffffffffffffffffffffffffff1681526020019060010190808311610f5a575b5050505050905090565b610fc983838360405180602001604052806000815250611cbe565b505050565b600a821115611012576040517f08c379a00000000000000000000000000000000000000000000000000000000081526004016110099061484e565b60405180910390fd5b60008203611055576040517f08c379a000000000000000000000000000000000000000000000000000000000815260040161104c906148ba565b60405180910390fd5b600860009054906101000a900460ff166110a4576040517f08c379a000000000000000000000000000000000000000000000000000000000815260040161109b90614926565b60405180910390fd5b600073ffffffffffffffffffffffffffffffffffffffff168473ffffffffffffffffffffffffffffffffffffffff161415801561110e5750600073ffffffffffffffffffffffffffffffffffffffff168173ffffffffffffffffffffffffffffffffffffffff1614155b61114d576040517f08c379a000000000000000000000000000000000000000000000000000000000815260040161114490614c7d565b60405180910390fd5b81855114611190576040517f08c379a000000000000000000000000000000000000000000000000000000000815260040161118790614b34565b60405180910390fd5b600b60003373ffffffffffffffffffffffffffffffffffffffff1673ffffffffffffffffffffffffffffffffffffffff16815260200190815260200160002060009054906101000a900460ff1661121c576040517f08c379a000000000000000000000000000000000000000000000000000000000815260040161121390614d97565b60405180910390fd5b6000849050838173ffffffffffffffffffffffffffffffffffffffff1663dd62ed3e33306040518363ffffffff1660e01b815260040161125d929190614db7565b602060405180830381865afa15801561127a573d6000803e3d6000fd5b505050506040513d601f19601f8201168201806040525081019061129e9190614cb2565b10156112df576040517f08c379a00000000000000000000000000000000000000000000000000000000081526004016112d690614e2c565b60405180910390fd5b60005b8381101561142a576103e8878281518110611300576112ff614b54565b5b602002602001015111158015611336575061133487828151811061132757611326614b54565b5b60200260200101516129cf565b155b156113bd5761135f8388838151811061135257611351614b54565b5b6020026020010151612a10565b8387828151811061137357611372614b54565b5b60200260200101517f188e84d45b0d0f75d776c5ba8d2b1c0507f62d92d3a1817c370bdacdd1e510ee856001600b6040516113b093929190614b83565b60405180910390a3611417565b838782815181106113d1576113d0614b54565b5b60200260200101517f188e84d45b0d0f75d776c5ba8d2b1c0507f62d92d3a1817c370bdacdd1e510ee336000600b60405161140e93929190614b83565b60405180910390a35b808061142290614be9565b9150506112e2565b5061143781333087612b3c565b837fa7814aaf178d6c8e61b2703f3dc1b8328dd6c99cbb405bf8f1bb0cb1bbb051a586333060405161146b93929190614e4c565b60405180910390a2505050505050565b611483612a38565b600073ffffffffffffffffffffffffffffffffffffffff168173ffffffffffffffffffffffffffffffffffffffff16036114f2576040517f08c379a00000000000000000000000000000000000000000000000000000000081526004016114e990614c7d565b60405180910390fd5b8073ffffffffffffffffffffffffffffffffffffffff166108fc479081150290604051600060405180830381858888f19350505050158015611538573d6000803e3d6000fd5b5050565b600860009054906101000a900460ff1681565b60008061155b83612bc5565b9050600073ffffffffffffffffffffffffffffffffffffffff168173ffffffffffffffffffffffffffffffffffffffff16036115cc576040517f08c379a00000000000000000000000000000000000000000000000000000000081526004016115c390614ecf565b60405180910390fd5b80915050919050565b60008073ffffffffffffffffffffffffffffffffffffffff168273ffffffffffffffffffffffffffffffffffffffff1603611645576040517f08c379a000000000000000000000000000000000000000000000000000000000815260040161163c90614f61565b60405180910390fd5b600360008373ffffffffffffffffffffffffffffffffffffffff1673ffffffffffffffffffffffffffffffffffffffff168152602001908152602001600020549050919050565b611694612a38565b61169e6000612c02565b565b600a8311156116e4576040517f08c379a00000000000000000000000000000000000000000000000000000000081526004016116db9061484e565b60405180910390fd5b60008303611727576040517f08c379a000000000000000000000000000000000000000000000000000000000815260040161171e906148ba565b60405180910390fd5b600860009054906101000a900460ff16611776576040517f08c379a000000000000000000000000000000000000000000000000000000000815260040161176d90614926565b60405180910390fd5b600084036117b9576040517f08c379a00000000000000000000000000000000000000000000000000000000081526004016117b090614992565b60405180910390fd5b600073ffffffffffffffffffffffffffffffffffffffff168573ffffffffffffffffffffffffffffffffffffffff1603611828576040517f08c379a000000000000000000000000000000000000000000000000000000000815260040161181f90614c7d565b60405180910390fd5b611830611bec565b73ffffffffffffffffffffffffffffffffffffffff166118508383612990565b73ffffffffffffffffffffffffffffffffffffffff16146118a6576040517f08c379a000000000000000000000000000000000000000000000000000000000815260040161189d906149fe565b60405180910390fd5b600a816040516118b69190614a65565b908152602001604051809103902060009054906101000a900460ff1615611912576040517f08c379a000000000000000000000000000000000000000000000000000000000815260040161190990614ac8565b60405180910390fd5b82865114611955576040517f08c379a000000000000000000000000000000000000000000000000000000000815260040161194c90614b34565b60405180910390fd5b6000859050848173ffffffffffffffffffffffffffffffffffffffff1663dd62ed3e33306040518363ffffffff1660e01b8152600401611996929190614db7565b602060405180830381865afa1580156119b3573d6000803e3d6000fd5b505050506040513d601f19601f820116820180604052508101906119d79190614cb2565b1015611a18576040517f08c379a0000000000000000000000000000000000000000000000000000000008152600401611a0f90614fcd565b60405180910390fd5b60005b84811015611b63576103e8888281518110611a3957611a38614b54565b5b602002602001015111158015611a6f5750611a6d888281518110611a6057611a5f614b54565b5b60200260200101516129cf565b155b15611af657611a9833898381518110611a8b57611a8a614b54565b5b6020026020010151612a10565b84888281518110611aac57611aab614b54565b5b60200260200101517f188e84d45b0d0f75d776c5ba8d2b1c0507f62d92d3a1817c370bdacdd1e510ee336001600b604051611ae993929190614b83565b60405180910390a3611b50565b84888281518110611b0a57611b09614b54565b5b60200260200101517f188e84d45b0d0f75d776c5ba8d2b1c0507f62d92d3a1817c370bdacdd1e510ee336000600b604051611b4793929190614b83565b60405180910390a35b8080611b5b90614be9565b915050611a1b565b506001600a83604051611b769190614a65565b908152602001604051809103902060006101000a81548160ff021916908315150217905550847fa7814aaf178d6c8e61b2703f3dc1b8328dd6c99cbb405bf8f1bb0cb1bbb051a5873330604051611bcf93929190614e4c565b60405180910390a2611be381333088612b3c565b50505050505050565b6000600660009054906101000a900473ffffffffffffffffffffffffffffffffffffffff16905090565b606060018054611c259061461b565b80601f0160208091040260200160405190810160405280929190818152602001828054611c519061461b565b8015611c9e5780601f10611c7357610100808354040283529160200191611c9e565b820191906000526020600020905b815481529060010190602001808311611c8157829003601f168201915b5050505050905090565b611cba611cb36124f2565b8383612cc8565b5050565b611ccf611cc96124f2565b836125b3565b611d0e576040517f08c379a0000000000000000000000000000000000000000000000000000000008152600401611d05906147e2565b60405180910390fd5b611d1a84848484612e34565b50505050565b611d28612a38565b600073ffffffffffffffffffffffffffffffffffffffff168173ffffffffffffffffffffffffffffffffffffffff1603611d97576040517f08c379a0000000000000000000000000000000000000000000000000000000008152600401611d8e90615039565b60405180910390fd5b600b60008273ffffffffffffffffffffffffffffffffffffffff1673ffffffffffffffffffffffffffffffffffffffff16815260200190815260200160002060009054906101000a900460ff1615611e24576040517f08c379a0000000000000000000000000000000000000000000000000000000008152600401611e1b906150a5565b60405180910390fd5b6001600b60008373ffffffffffffffffffffffffffffffffffffffff1673ffffffffffffffffffffffffffffffffffffffff16815260200190815260200160002060006101000a81548160ff0219169083151502179055506009819080600181540180825580915050600190039060005260206000200160009091909190916101000a81548173ffffffffffffffffffffffffffffffffffffffff021916908373ffffffffffffffffffffffffffffffffffffffff16021790555050565b611eea612a38565b600073ffffffffffffffffffffffffffffffffffffffff168173ffffffffffffffffffffffffffffffffffffffff1603611f59576040517f08c379a0000000000000000000000000000000000000000000000000000000008152600401611f5090615039565b60405180910390fd5b60006009805480602002602001604051908101604052809291908181526020018280548015611fdd57602002820191906000526020600020905b8160009054906101000a900473ffffffffffffffffffffffffffffffffffffffff1673ffffffffffffffffffffffffffffffffffffffff1681526020019060010190808311611f93575b50505050509050600b60008373ffffffffffffffffffffffffffffffffffffffff1673ffffffffffffffffffffffffffffffffffffffff16815260200190815260200160002060009054906101000a900460ff16612070576040517f08c379a000000000000000000000000000000000000000000000000000000000815260040161206790615111565b60405180910390fd5b60005b600980549050811015612207578273ffffffffffffffffffffffffffffffffffffffff16600982815481106120ab576120aa614b54565b5b9060005260206000200160009054906101000a900473ffffffffffffffffffffffffffffffffffffffff1673ffffffffffffffffffffffffffffffffffffffff16036121f45781818151811061210457612103614b54565b5b60200260200101600073ffffffffffffffffffffffffffffffffffffffff1681525081600183516121359190615131565b8151811061214657612145614b54565b5b602002602001015182828151811061216157612160614b54565b5b602002602001019073ffffffffffffffffffffffffffffffffffffffff16908173ffffffffffffffffffffffffffffffffffffffff16815250506000600b60008573ffffffffffffffffffffffffffffffffffffffff1673ffffffffffffffffffffffffffffffffffffffff16815260200190815260200160002060006101000a81548160ff0219169083151502179055505b80806121ff90614be9565b915050612073565b50806009908051906020019061221e929190613b47565b50600980548061223157612230615165565b5b6001900381819060005260206000200160006101000a81549073ffffffffffffffffffffffffffffffffffffffff021916905590555050565b6060612275826124a7565b600061227f612e90565b9050600081511161229f57604051806020016040528060008152506122ca565b806122a984612ea7565b6040516020016122ba9291906151d0565b6040516020818303038152906040525b915050919050565b6122da612a38565b600860009054906101000a900460ff1615600860006101000a81548160ff021916908315150217905550565b6060604051806060016040528060238152602001615c6260239139905090565b6000600560008473ffffffffffffffffffffffffffffffffffffffff1673ffffffffffffffffffffffffffffffffffffffff16815260200190815260200160002060008373ffffffffffffffffffffffffffffffffffffffff1673ffffffffffffffffffffffffffffffffffffffff16815260200190815260200160002060009054906101000a900460ff16905092915050565b6123c2612a38565b600073ffffffffffffffffffffffffffffffffffffffff168173ffffffffffffffffffffffffffffffffffffffff1603612431576040517f08c379a000000000000000000000000000000000000000000000000000000000815260040161242890615266565b60405180910390fd5b61243a81612c02565b50565b60007f01ffc9a7000000000000000000000000000000000000000000000000000000007bffffffffffffffffffffffffffffffffffffffffffffffffffffffff1916827bffffffffffffffffffffffffffffffffffffffffffffffffffffffff1916149050919050565b6124b0816129cf565b6124ef576040517f08c379a00000000000000000000000000000000000000000000000000000000081526004016124e690614ecf565b60405180910390fd5b50565b600033905090565b816004600083815260200190815260200160002060006101000a81548173ffffffffffffffffffffffffffffffffffffffff021916908373ffffffffffffffffffffffffffffffffffffffff160217905550808273ffffffffffffffffffffffffffffffffffffffff1661256d8361154f565b73ffffffffffffffffffffffffffffffffffffffff167f8c5be1e5ebec7d5bd14f71427d1e84f3dd0314c0f7b2291e5b200ac8c7c3b92560405160405180910390a45050565b6000806125bf8361154f565b90508073ffffffffffffffffffffffffffffffffffffffff168473ffffffffffffffffffffffffffffffffffffffff16148061260157506126008185612326565b5b8061263f57508373ffffffffffffffffffffffffffffffffffffffff16612627846107bb565b73ffffffffffffffffffffffffffffffffffffffff16145b91505092915050565b8273ffffffffffffffffffffffffffffffffffffffff166126688261154f565b73ffffffffffffffffffffffffffffffffffffffff16146126be576040517f08c379a00000000000000000000000000000000000000000000000000000000081526004016126b5906152f8565b60405180910390fd5b600073ffffffffffffffffffffffffffffffffffffffff168273ffffffffffffffffffffffffffffffffffffffff160361272d576040517f08c379a00000000000000000000000000000000000000000000000000000000081526004016127249061538a565b60405180910390fd5b61273a8383836001612f75565b8273ffffffffffffffffffffffffffffffffffffffff1661275a8261154f565b73ffffffffffffffffffffffffffffffffffffffff16146127b0576040517f08c379a00000000000000000000000000000000000000000000000000000000081526004016127a7906152f8565b60405180910390fd5b6004600082815260200190815260200160002060006101000a81549073ffffffffffffffffffffffffffffffffffffffff02191690556001600360008573ffffffffffffffffffffffffffffffffffffffff1673ffffffffffffffffffffffffffffffffffffffff168152602001908152602001600020600082825403925050819055506001600360008473ffffffffffffffffffffffffffffffffffffffff1673ffffffffffffffffffffffffffffffffffffffff16815260200190815260200160002060008282540192505081905550816002600083815260200190815260200160002060006101000a81548173ffffffffffffffffffffffffffffffffffffffff021916908373ffffffffffffffffffffffffffffffffffffffff160217905550808273ffffffffffffffffffffffffffffffffffffffff168473ffffffffffffffffffffffffffffffffffffffff167fddf252ad1be2c89b69c2b068fc378daa952ba7f163c4a11628f55a4df523b3ef60405160405180910390a461293c838383600161309b565b505050565b600260075403612986576040517f08c379a000000000000000000000000000000000000000000000000000000000815260040161297d906153f6565b60405180910390fd5b6002600781905550565b600080836040516020016129a49190615483565b6040516020818303038152906040528051906020012090506129c681846130a1565b91505092915050565b60008073ffffffffffffffffffffffffffffffffffffffff166129f183612bc5565b73ffffffffffffffffffffffffffffffffffffffff1614159050919050565b612a2a8282604051806020016040528060008152506130c8565b5050565b6001600781905550565b612a406124f2565b73ffffffffffffffffffffffffffffffffffffffff16612a5e611bec565b73ffffffffffffffffffffffffffffffffffffffff1614612ab4576040517f08c379a0000000000000000000000000000000000000000000000000000000008152600401612aab906154f5565b60405180910390fd5b565b612b378363a9059cbb60e01b8484604051602401612ad5929190615515565b604051602081830303815290604052907bffffffffffffffffffffffffffffffffffffffffffffffffffffffff19166020820180517bffffffffffffffffffffffffffffffffffffffffffffffffffffffff8381831617835250505050613123565b505050565b612bbf846323b872dd60e01b858585604051602401612b5d9392919061553e565b604051602081830303815290604052907bffffffffffffffffffffffffffffffffffffffffffffffffffffffff19166020820180517bffffffffffffffffffffffffffffffffffffffffffffffffffffffff8381831617835250505050613123565b50505050565b60006002600083815260200190815260200160002060009054906101000a900473ffffffffffffffffffffffffffffffffffffffff169050919050565b6000600660009054906101000a900473ffffffffffffffffffffffffffffffffffffffff16905081600660006101000a81548173ffffffffffffffffffffffffffffffffffffffff021916908373ffffffffffffffffffffffffffffffffffffffff1602179055508173ffffffffffffffffffffffffffffffffffffffff168173ffffffffffffffffffffffffffffffffffffffff167f8be0079c531659141344cd1fd0a4f28419497f9722a3daafe3b4186f6b6457e060405160405180910390a35050565b8173ffffffffffffffffffffffffffffffffffffffff168373ffffffffffffffffffffffffffffffffffffffff1603612d36576040517f08c379a0000000000000000000000000000000000000000000000000000000008152600401612d2d906155c1565b60405180910390fd5b80600560008573ffffffffffffffffffffffffffffffffffffffff1673ffffffffffffffffffffffffffffffffffffffff16815260200190815260200160002060008473ffffffffffffffffffffffffffffffffffffffff1673ffffffffffffffffffffffffffffffffffffffff16815260200190815260200160002060006101000a81548160ff0219169083151502179055508173ffffffffffffffffffffffffffffffffffffffff168373ffffffffffffffffffffffffffffffffffffffff167f17307eab39ab6107e8899845ad3d59bd9653f200f220920489ca2b5937696c3183604051612e279190613ca2565b60405180910390a3505050565b612e3f848484612648565b612e4b848484846131ea565b612e8a576040517f08c379a0000000000000000000000000000000000000000000000000000000008152600401612e8190615653565b60405180910390fd5b50505050565b606060405180602001604052806000815250905090565b606060006001612eb684613371565b01905060008167ffffffffffffffff811115612ed557612ed4613ef2565b5b6040519080825280601f01601f191660200182016040528015612f075781602001600182028036833780820191505090505b509050600082602001820190505b600115612f6a578080600190039150507f3031323334353637383961626364656600000000000000000000000000000000600a86061a8153600a8581612f5e57612f5d615673565b5b04945060008503612f15575b819350505050919050565b600181111561309557600073ffffffffffffffffffffffffffffffffffffffff168473ffffffffffffffffffffffffffffffffffffffff16146130095780600360008673ffffffffffffffffffffffffffffffffffffffff1673ffffffffffffffffffffffffffffffffffffffff16815260200190815260200160002060008282546130019190615131565b925050819055505b600073ffffffffffffffffffffffffffffffffffffffff168373ffffffffffffffffffffffffffffffffffffffff16146130945780600360008573ffffffffffffffffffffffffffffffffffffffff1673ffffffffffffffffffffffffffffffffffffffff168152602001908152602001600020600082825461308c91906156a2565b925050819055505b5b50505050565b50505050565b60008060006130b085856134c4565b915091506130bd81613515565b819250505092915050565b6130d2838361367b565b6130df60008484846131ea565b61311e576040517f08c379a000000000000000000000000000000000000000000000000000000000815260040161311590615653565b60405180910390fd5b505050565b6000613185826040518060400160405280602081526020017f5361666545524332303a206c6f772d6c6576656c2063616c6c206661696c65648152508573ffffffffffffffffffffffffffffffffffffffff166138989092919063ffffffff16565b90506000815111156131e557808060200190518101906131a591906156eb565b6131e4576040517f08c379a00000000000000000000000000000000000000000000000000000000081526004016131db9061578a565b60405180910390fd5b5b505050565b600061320b8473ffffffffffffffffffffffffffffffffffffffff166138b0565b15613364578373ffffffffffffffffffffffffffffffffffffffff1663150b7a026132346124f2565b8786866040518563ffffffff1660e01b815260040161325694939291906157f4565b6020604051808303816000875af192505050801561329257506040513d601f19601f8201168201806040525081019061328f9190615855565b60015b613314573d80600081146132c2576040519150601f19603f3d011682016040523d82523d6000602084013e6132c7565b606091505b50600081510361330c576040517f08c379a000000000000000000000000000000000000000000000000000000000815260040161330390615653565b60405180910390fd5b805181602001fd5b63150b7a0260e01b7bffffffffffffffffffffffffffffffffffffffffffffffffffffffff1916817bffffffffffffffffffffffffffffffffffffffffffffffffffffffff191614915050613369565b600190505b949350505050565b600080600090507a184f03e93ff9f4daa797ed6e38ed64bf6a1f01000000000000000083106133cf577a184f03e93ff9f4daa797ed6e38ed64bf6a1f01000000000000000083816133c5576133c4615673565b5b0492506040810190505b6d04ee2d6d415b85acef8100000000831061340c576d04ee2d6d415b85acef8100000000838161340257613401615673565b5b0492506020810190505b662386f26fc10000831061343b57662386f26fc10000838161343157613430615673565b5b0492506010810190505b6305f5e1008310613464576305f5e100838161345a57613459615673565b5b0492506008810190505b612710831061348957612710838161347f5761347e615673565b5b0492506004810190505b606483106134ac57606483816134a2576134a1615673565b5b0492506002810190505b600a83106134bb576001810190505b80915050919050565b60008060418351036135055760008060006020860151925060408601519150606086015160001a90506134f9878285856138d3565b9450945050505061350e565b60006002915091505b9250929050565b6000600481111561352957613528615882565b5b81600481111561353c5761353b615882565b5b0315613678576001600481111561355657613555615882565b5b81600481111561356957613568615882565b5b036135a9576040517f08c379a00000000000000000000000000000000000000000000000000000000081526004016135a0906158fd565b60405180910390fd5b600260048111156135bd576135bc615882565b5b8160048111156135d0576135cf615882565b5b03613610576040517f08c379a000000000000000000000000000000000000000000000000000000000815260040161360790615969565b60405180910390fd5b6003600481111561362457613623615882565b5b81600481111561363757613636615882565b5b03613677576040517f08c379a000000000000000000000000000000000000000000000000000000000815260040161366e906159fb565b60405180910390fd5b5b50565b600073ffffffffffffffffffffffffffffffffffffffff168273ffffffffffffffffffffffffffffffffffffffff16036136ea576040517f08c379a00000000000000000000000000000000000000000000000000000000081526004016136e190615a67565b60405180910390fd5b6136f3816129cf565b15613733576040517f08c379a000000000000000000000000000000000000000000000000000000000815260040161372a90615ad3565b60405180910390fd5b613741600083836001612f75565b61374a816129cf565b1561378a576040517f08c379a000000000000000000000000000000000000000000000000000000000815260040161378190615ad3565b60405180910390fd5b6001600360008473ffffffffffffffffffffffffffffffffffffffff1673ffffffffffffffffffffffffffffffffffffffff16815260200190815260200160002060008282540192505081905550816002600083815260200190815260200160002060006101000a81548173ffffffffffffffffffffffffffffffffffffffff021916908373ffffffffffffffffffffffffffffffffffffffff160217905550808273ffffffffffffffffffffffffffffffffffffffff16600073ffffffffffffffffffffffffffffffffffffffff167fddf252ad1be2c89b69c2b068fc378daa952ba7f163c4a11628f55a4df523b3ef60405160405180910390a461389460008383600161309b565b5050565b60606138a784846000856139b5565b90509392505050565b6000808273ffffffffffffffffffffffffffffffffffffffff163b119050919050565b6000807f7fffffffffffffffffffffffffffffff5d576e7357a4501ddfe92f46681b20a08360001c111561390e5760006003915091506139ac565b6000600187878787604051600081526020016040526040516139339493929190615b1e565b6020604051602081039080840390855afa158015613955573d6000803e3d6000fd5b505050602060405103519050600073ffffffffffffffffffffffffffffffffffffffff168173ffffffffffffffffffffffffffffffffffffffff16036139a3576000600192509250506139ac565b80600092509250505b94509492505050565b6060824710156139fa576040517f08c379a00000000000000000000000000000000000000000000000000000000081526004016139f190615bd5565b60405180910390fd5b6000808673ffffffffffffffffffffffffffffffffffffffff168587604051613a239190614a65565b60006040518083038185875af1925050503d8060008114613a60576040519150601f19603f3d011682016040523d82523d6000602084013e613a65565b606091505b5091509150613a7687838387613a82565b92505050949350505050565b60608315613ae4576000835103613adc57613a9c856138b0565b613adb576040517f08c379a0000000000000000000000000000000000000000000000000000000008152600401613ad290615c41565b60405180910390fd5b5b829050613aef565b613aee8383613af7565b5b949350505050565b600082511115613b0a5781518083602001fd5b806040517f08c379a0000000000000000000000000000000000000000000000000000000008152600401613b3e9190613d4d565b60405180910390fd5b828054828255906000526020600020908101928215613bc0579160200282015b82811115613bbf5782518260006101000a81548173ffffffffffffffffffffffffffffffffffffffff021916908373ffffffffffffffffffffffffffffffffffffffff16021790555091602001919060010190613b67565b5b509050613bcd9190613bd1565b5090565b5b80821115613bea576000816000905550600101613bd2565b5090565b6000604051905090565b600080fd5b600080fd5b60007fffffffff0000000000000000000000000000000000000000000000000000000082169050919050565b613c3781613c02565b8114613c4257600080fd5b50565b600081359050613c5481613c2e565b92915050565b600060208284031215613c7057613c6f613bf8565b5b6000613c7e84828501613c45565b91505092915050565b60008115159050919050565b613c9c81613c87565b82525050565b6000602082019050613cb76000830184613c93565b92915050565b600081519050919050565b600082825260208201905092915050565b60005b83811015613cf7578082015181840152602081019050613cdc565b60008484015250505050565b6000601f19601f8301169050919050565b6000613d1f82613cbd565b613d298185613cc8565b9350613d39818560208601613cd9565b613d4281613d03565b840191505092915050565b60006020820190508181036000830152613d678184613d14565b905092915050565b6000819050919050565b613d8281613d6f565b8114613d8d57600080fd5b50565b600081359050613d9f81613d79565b92915050565b600060208284031215613dbb57613dba613bf8565b5b6000613dc984828501613d90565b91505092915050565b600073ffffffffffffffffffffffffffffffffffffffff82169050919050565b6000613dfd82613dd2565b9050919050565b613e0d81613df2565b82525050565b6000602082019050613e286000830184613e04565b92915050565b613e3781613df2565b8114613e4257600080fd5b50565b600081359050613e5481613e2e565b92915050565b60008060408385031215613e7157613e70613bf8565b5b6000613e7f85828601613e45565b9250506020613e9085828601613d90565b9150509250929050565b600080600060608486031215613eb357613eb2613bf8565b5b6000613ec186828701613e45565b9350506020613ed286828701613e45565b9250506040613ee386828701613d90565b9150509250925092565b600080fd5b7f4e487b7100000000000000000000000000000000000000000000000000000000600052604160045260246000fd5b613f2a82613d03565b810181811067ffffffffffffffff82111715613f4957613f48613ef2565b5b80604052505050565b6000613f5c613bee565b9050613f688282613f21565b919050565b600067ffffffffffffffff821115613f8857613f87613ef2565b5b602082029050602081019050919050565b600080fd5b6000613fb1613fac84613f6d565b613f52565b90508083825260208201905060208402830185811115613fd457613fd3613f99565b5b835b81811015613ffd5780613fe98882613d90565b845260208401935050602081019050613fd6565b5050509392505050565b600082601f83011261401c5761401b613eed565b5b813561402c848260208601613f9e565b91505092915050565b6000819050919050565b61404881614035565b811461405357600080fd5b50565b6000813590506140658161403f565b92915050565b600080fd5b600067ffffffffffffffff82111561408b5761408a613ef2565b5b61409482613d03565b9050602081019050919050565b82818337600083830152505050565b60006140c36140be84614070565b613f52565b9050828152602081018484840111156140df576140de61406b565b5b6140ea8482856140a1565b509392505050565b600082601f83011261410757614106613eed565b5b81356141178482602086016140b0565b91505092915050565b6000806000806080858703121561413a57614139613bf8565b5b600085013567ffffffffffffffff81111561415857614157613bfd565b5b61416487828801614007565b945050602061417587828801613d90565b935050604061418687828801614056565b925050606085013567ffffffffffffffff8111156141a7576141a6613bfd565b5b6141b3878288016140f2565b91505092959194509250565b600080604083850312156141d6576141d5613bf8565b5b60006141e485828601613e45565b92505060206141f585828601613e45565b9150509250929050565b600081519050919050565b600082825260208201905092915050565b6000819050602082019050919050565b61423481613df2565b82525050565b6000614246838361422b565b60208301905092915050565b6000602082019050919050565b600061426a826141ff565b614274818561420a565b935061427f8361421b565b8060005b838110156142b0578151614297888261423a565b97506142a283614252565b925050600181019050614283565b5085935050505092915050565b600060208201905081810360008301526142d7818461425f565b905092915050565b600080600080600060a086880312156142fb576142fa613bf8565b5b600086013567ffffffffffffffff81111561431957614318613bfd565b5b61432588828901614007565b955050602061433688828901613e45565b945050604061434788828901613d90565b935050606061435888828901613d90565b925050608061436988828901613e45565b9150509295509295909350565b600061438182613dd2565b9050919050565b61439181614376565b811461439c57600080fd5b50565b6000813590506143ae81614388565b92915050565b6000602082840312156143ca576143c9613bf8565b5b60006143d88482850161439f565b91505092915050565b6000602082840312156143f7576143f6613bf8565b5b600061440584828501613e45565b91505092915050565b61441781613d6f565b82525050565b6000602082019050614432600083018461440e565b92915050565b60008060008060008060c0878903121561445557614454613bf8565b5b600087013567ffffffffffffffff81111561447357614472613bfd565b5b61447f89828a01614007565b965050602061449089828a01613e45565b95505060406144a189828a01613d90565b94505060606144b289828a01613d90565b93505060806144c389828a01614056565b92505060a087013567ffffffffffffffff8111156144e4576144e3613bfd565b5b6144f089828a016140f2565b9150509295509295509295565b61450681613c87565b811461451157600080fd5b50565b600081359050614523816144fd565b92915050565b600080604083850312156145405761453f613bf8565b5b600061454e85828601613e45565b925050602061455f85828601614514565b9150509250929050565b6000806000806080858703121561458357614582613bf8565b5b600061459187828801613e45565b94505060206145a287828801613e45565b93505060406145b387828801613d90565b925050606085013567ffffffffffffffff8111156145d4576145d3613bfd565b5b6145e0878288016140f2565b91505092959194509250565b7f4e487b7100000000000000000000000000000000000000000000000000000000600052602260045260246000fd5b6000600282049050600182168061463357607f821691505b602082108103614646576146456145ec565b5b50919050565b7f4552433732313a20617070726f76616c20746f2063757272656e74206f776e6560008201527f7200000000000000000000000000000000000000000000000000000000000000602082015250565b60006146a8602183613cc8565b91506146b38261464c565b604082019050919050565b600060208201905081810360008301526146d78161469b565b9050919050565b7f4552433732313a20617070726f76652063616c6c6572206973206e6f7420746f60008201527f6b656e206f776e6572206f7220617070726f76656420666f7220616c6c000000602082015250565b600061473a603d83613cc8565b9150614745826146de565b604082019050919050565b600060208201905081810360008301526147698161472d565b9050919050565b7f4552433732313a2063616c6c6572206973206e6f7420746f6b656e206f776e6560008201527f72206f7220617070726f76656400000000000000000000000000000000000000602082015250565b60006147cc602d83613cc8565b91506147d782614770565b604082019050919050565b600060208201905081810360008301526147fb816147bf565b9050919050565b7f43616e6e6f7420627579206d6f7265207468616e203130206e66747300000000600082015250565b6000614838601c83613cc8565b915061484382614802565b602082019050919050565b600060208201905081810360008301526148678161482b565b9050919050565b7f496e73756666696369656e74207175616e746974790000000000000000000000600082015250565b60006148a4601583613cc8565b91506148af8261486e565b602082019050919050565b600060208201905081810360008301526148d381614897565b9050919050565b7f53616c6520496e61637469766500000000000000000000000000000000000000600082015250565b6000614910600d83613cc8565b915061491b826148da565b602082019050919050565b6000602082019050818103600083015261493f81614903565b9050919050565b7f496e73756666696369656e7420616d6f756e7400000000000000000000000000600082015250565b600061497c601383613cc8565b915061498782614946565b602082019050919050565b600060208201905081810360008301526149ab8161496f565b9050919050565b7f41646472657373206973206e6f7420617574686f72697a656400000000000000600082015250565b60006149e8601983613cc8565b91506149f3826149b2565b602082019050919050565b60006020820190508181036000830152614a17816149db565b9050919050565b600081519050919050565b600081905092915050565b6000614a3f82614a1e565b614a498185614a29565b9350614a59818560208601613cd9565b80840191505092915050565b6000614a718284614a34565b915081905092915050565b7f416c7265616479207369676e6174757265207573656400000000000000000000600082015250565b6000614ab2601683613cc8565b9150614abd82614a7c565b602082019050919050565b60006020820190508181036000830152614ae181614aa5565b9050919050565b7f496e76616c696420706172616d65746572000000000000000000000000000000600082015250565b6000614b1e601183613cc8565b9150614b2982614ae8565b602082019050919050565b60006020820190508181036000830152614b4d81614b11565b9050919050565b7f4e487b7100000000000000000000000000000000000000000000000000000000600052603260045260246000fd5b6000606082019050614b986000830186613e04565b614ba56020830185613c93565b614bb2604083018461440e565b949350505050565b7f4e487b7100000000000000000000000000000000000000000000000000000000600052601160045260246000fd5b6000614bf482613d6f565b91507fffffffffffffffffffffffffffffffffffffffffffffffffffffffffffffffff8203614c2657614c25614bba565b5b600182019050919050565b7f416464726573732063616e6e6f74206265207a65726f00000000000000000000600082015250565b6000614c67601683613cc8565b9150614c7282614c31565b602082019050919050565b60006020820190508181036000830152614c9681614c5a565b9050919050565b600081519050614cac81613d79565b92915050565b600060208284031215614cc857614cc7613bf8565b5b6000614cd684828501614c9d565b91505092915050565b7f496e73756666696369656e742062616c616e6365000000000000000000000000600082015250565b6000614d15601483613cc8565b9150614d2082614cdf565b602082019050919050565b60006020820190508181036000830152614d4481614d08565b9050919050565b7f4e6f742077686974656c69737465640000000000000000000000000000000000600082015250565b6000614d81600f83613cc8565b9150614d8c82614d4b565b602082019050919050565b60006020820190508181036000830152614db081614d74565b9050919050565b6000604082019050614dcc6000830185613e04565b614dd96020830184613e04565b9392505050565b7f436865636b20746f6b656e20616c6c6f77616e63650000000000000000000000600082015250565b6000614e16601583613cc8565b9150614e2182614de0565b602082019050919050565b60006020820190508181036000830152614e4581614e09565b9050919050565b6000606082019050614e616000830186613e04565b614e6e6020830185613e04565b614e7b6040830184613e04565b949350505050565b7f4552433732313a20696e76616c696420746f6b656e2049440000000000000000600082015250565b6000614eb9601883613cc8565b9150614ec482614e83565b602082019050919050565b60006020820190508181036000830152614ee881614eac565b9050919050565b7f4552433732313a2061646472657373207a65726f206973206e6f74206120766160008201527f6c6964206f776e65720000000000000000000000000000000000000000000000602082015250565b6000614f4b602983613cc8565b9150614f5682614eef565b604082019050919050565b60006020820190508181036000830152614f7a81614f3e565b9050919050565b7f436865636b2074686520746f6b656e20616c6c6f77616e636500000000000000600082015250565b6000614fb7601983613cc8565b9150614fc282614f81565b602082019050919050565b60006020820190508181036000830152614fe681614faa565b9050919050565b7f416464726573732063616e6e6f74206265203000000000000000000000000000600082015250565b6000615023601383613cc8565b915061502e82614fed565b602082019050919050565b6000602082019050818103600083015261505281615016565b9050919050565b7f5573657220616c72656164792065786973747300000000000000000000000000600082015250565b600061508f601383613cc8565b915061509a82615059565b602082019050919050565b600060208201905081810360008301526150be81615082565b9050919050565b7f5573657220616c72656164792072656d6f766564000000000000000000000000600082015250565b60006150fb601483613cc8565b9150615106826150c5565b602082019050919050565b6000602082019050818103600083015261512a816150ee565b9050919050565b600061513c82613d6f565b915061514783613d6f565b925082820390508181111561515f5761515e614bba565b5b92915050565b7f4e487b7100000000000000000000000000000000000000000000000000000000600052603160045260246000fd5b600081905092915050565b60006151aa82613cbd565b6151b48185615194565b93506151c4818560208601613cd9565b80840191505092915050565b60006151dc828561519f565b91506151e8828461519f565b91508190509392505050565b7f4f776e61626c653a206e6577206f776e657220697320746865207a65726f206160008201527f6464726573730000000000000000000000000000000000000000000000000000602082015250565b6000615250602683613cc8565b915061525b826151f4565b604082019050919050565b6000602082019050818103600083015261527f81615243565b9050919050565b7f4552433732313a207472616e736665722066726f6d20696e636f72726563742060008201527f6f776e6572000000000000000000000000000000000000000000000000000000602082015250565b60006152e2602583613cc8565b91506152ed82615286565b604082019050919050565b60006020820190508181036000830152615311816152d5565b9050919050565b7f4552433732313a207472616e7366657220746f20746865207a65726f2061646460008201527f7265737300000000000000000000000000000000000000000000000000000000602082015250565b6000615374602483613cc8565b915061537f82615318565b604082019050919050565b600060208201905081810360008301526153a381615367565b9050919050565b7f5265656e7472616e637947756172643a207265656e7472616e742063616c6c00600082015250565b60006153e0601f83613cc8565b91506153eb826153aa565b602082019050919050565b6000602082019050818103600083015261540f816153d3565b9050919050565b7f19457468657265756d205369676e6564204d6573736167653a0a333200000000600082015250565b600061544c601c83615194565b915061545782615416565b601c82019050919050565b6000819050919050565b61547d61547882614035565b615462565b82525050565b600061548e8261543f565b915061549a828461546c565b60208201915081905092915050565b7f4f776e61626c653a2063616c6c6572206973206e6f7420746865206f776e6572600082015250565b60006154df602083613cc8565b91506154ea826154a9565b602082019050919050565b6000602082019050818103600083015261550e816154d2565b9050919050565b600060408201905061552a6000830185613e04565b615537602083018461440e565b9392505050565b60006060820190506155536000830186613e04565b6155606020830185613e04565b61556d604083018461440e565b949350505050565b7f4552433732313a20617070726f766520746f2063616c6c657200000000000000600082015250565b60006155ab601983613cc8565b91506155b682615575565b602082019050919050565b600060208201905081810360008301526155da8161559e565b9050919050565b7f4552433732313a207472616e7366657220746f206e6f6e20455243373231526560008201527f63656976657220696d706c656d656e7465720000000000000000000000000000602082015250565b600061563d603283613cc8565b9150615648826155e1565b604082019050919050565b6000602082019050818103600083015261566c81615630565b9050919050565b7f4e487b7100000000000000000000000000000000000000000000000000000000600052601260045260246000fd5b60006156ad82613d6f565b91506156b883613d6f565b92508282019050808211156156d0576156cf614bba565b5b92915050565b6000815190506156e5816144fd565b92915050565b60006020828403121561570157615700613bf8565b5b600061570f848285016156d6565b91505092915050565b7f5361666545524332303a204552433230206f7065726174696f6e20646964206e60008201527f6f74207375636365656400000000000000000000000000000000000000000000602082015250565b6000615774602a83613cc8565b915061577f82615718565b604082019050919050565b600060208201905081810360008301526157a381615767565b9050919050565b600082825260208201905092915050565b60006157c682614a1e565b6157d081856157aa565b93506157e0818560208601613cd9565b6157e981613d03565b840191505092915050565b60006080820190506158096000830187613e04565b6158166020830186613e04565b615823604083018561440e565b818103606083015261583581846157bb565b905095945050505050565b60008151905061584f81613c2e565b92915050565b60006020828403121561586b5761586a613bf8565b5b600061587984828501615840565b91505092915050565b7f4e487b7100000000000000000000000000000000000000000000000000000000600052602160045260246000fd5b7f45434453413a20696e76616c6964207369676e61747572650000000000000000600082015250565b60006158e7601883613cc8565b91506158f2826158b1565b602082019050919050565b60006020820190508181036000830152615916816158da565b9050919050565b7f45434453413a20696e76616c6964207369676e6174757265206c656e67746800600082015250565b6000615953601f83613cc8565b915061595e8261591d565b602082019050919050565b6000602082019050818103600083015261598281615946565b9050919050565b7f45434453413a20696e76616c6964207369676e6174757265202773272076616c60008201527f7565000000000000000000000000000000000000000000000000000000000000602082015250565b60006159e5602283613cc8565b91506159f082615989565b604082019050919050565b60006020820190508181036000830152615a14816159d8565b9050919050565b7f4552433732313a206d696e7420746f20746865207a65726f2061646472657373600082015250565b6000615a51602083613cc8565b9150615a5c82615a1b565b602082019050919050565b60006020820190508181036000830152615a8081615a44565b9050919050565b7f4552433732313a20746f6b656e20616c7265616479206d696e74656400000000600082015250565b6000615abd601c83613cc8565b9150615ac882615a87565b602082019050919050565b60006020820190508181036000830152615aec81615ab0565b9050919050565b615afc81614035565b82525050565b600060ff82169050919050565b615b1881615b02565b82525050565b6000608082019050615b336000830187615af3565b615b406020830186615b0f565b615b4d6040830185615af3565b615b5a6060830184615af3565b95945050505050565b7f416464726573733a20696e73756666696369656e742062616c616e636520666f60008201527f722063616c6c0000000000000000000000000000000000000000000000000000602082015250565b6000615bbf602683613cc8565b9150615bca82615b63565b604082019050919050565b60006020820190508181036000830152615bee81615bb2565b9050919050565b7f416464726573733a2063616c6c20746f206e6f6e2d636f6e7472616374000000600082015250565b6000615c2b601d83613cc8565b9150615c3682615bf5565b602082019050919050565b60006020820190508181036000830152615c5a81615c1e565b905091905056fe68747470733a2f2f67616d652e6b3472616c6c792e696f2f6e66742f6361722f31312fa2646970667358221220e8a13c897cd336469bbeec4724f5f3f3863b94841d561717a068dce2908093b364736f6c634300081000334b34205369676e61747572652045646974696f6e202331202d204368726973746f66204b6c6175736e6572204d656d6f7269616c",
  "linkReferences": {},
  "deployedLinkReferences": {}
}