{
  "_format": "hh-sol-artifact-1",
  "contractName": "K4NftCarSignatureEdition1V2",
  "sourceName": "contracts/K4NftCarSignatureEdition1V2.sol",
  "abi": [
    {
      "inputs": [],
      "stateMutability": "nonpayable",
      "type": "constructor"
    },
    {
      "anonymous": false,
      "inputs": [
        {
          "indexed": true,
          "internalType": "address",
          "name": "owner",
          "type": "address"
        },
        {
          "indexed": true,
          "internalType": "address",
          "name": "approved",
          "type": "address"
        },
        {
          "indexed": true,
          "internalType": "uint256",
          "name": "tokenId",
          "type": "uint256"
        }
      ],
      "name": "Approval",
      "type": "event"
    },
    {
      "anonymous": false,
      "inputs": [
        {
          "indexed": true,
          "internalType": "address",
          "name": "owner",
          "type": "address"
        },
        {
          "indexed": true,
          "internalType": "address",
          "name": "operator",
          "type": "address"
        },
        {
          "indexed": false,
          "internalType": "bool",
          "name": "approved",
          "type": "bool"
        }
      ],
      "name": "ApprovalForAll",
      "type": "event"
    },
    {
      "anonymous": false,
      "inputs": [
        {
          "indexed": false,
          "internalType": "address",
          "name": "_to",
          "type": "address"
        },
        {
          "indexed": true,
          "internalType": "uint256",
          "name": "_tokenId",
          "type": "uint256"
        },
        {
          "indexed": true,
          "internalType": "uint256",
          "name": "_quantity",
          "type": "uint256"
        },
        {
          "indexed": false,
          "internalType": "bool",
          "name": "_success",
          "type": "bool"
        },
        {
          "indexed": false,
          "internalType": "uint256",
          "name": "_contractID",
          "type": "uint256"
        }
      ],
      "name": "NFTMinted",
      "type": "event"
    },
    {
      "anonymous": false,
      "inputs": [
        {
          "indexed": true,
          "internalType": "address",
          "name": "previousOwner",
          "type": "address"
        },
        {
          "indexed": true,
          "internalType": "address",
          "name": "newOwner",
          "type": "address"
        }
      ],
      "name": "OwnershipTransferred",
      "type": "event"
    },
    {
      "anonymous": false,
      "inputs": [
        {
          "indexed": false,
          "internalType": "address",
          "name": "_token",
          "type": "address"
        },
        {
          "indexed": false,
          "internalType": "address",
          "name": "_from",
          "type": "address"
        },
        {
          "indexed": false,
          "internalType": "address",
          "name": "_to",
          "type": "address"
        },
        {
          "indexed": true,
          "internalType": "uint256",
          "name": "_amount",
          "type": "uint256"
        }
      ],
      "name": "TokenTransfered",
      "type": "event"
    },
    {
      "anonymous": false,
      "inputs": [
        {
          "indexed": true,
          "internalType": "address",
          "name": "from",
          "type": "address"
        },
        {
          "indexed": true,
          "internalType": "address",
          "name": "to",
          "type": "address"
        },
        {
          "indexed": true,
          "internalType": "uint256",
          "name": "tokenId",
          "type": "uint256"
        }
      ],
      "name": "Transfer",
      "type": "event"
    },
    {
      "inputs": [
        {
          "internalType": "address",
          "name": "to",
          "type": "address"
        },
        {
          "internalType": "uint256",
          "name": "tokenId",
          "type": "uint256"
        }
      ],
      "name": "approve",
      "outputs": [],
      "stateMutability": "nonpayable",
      "type": "function"
    },
    {
      "inputs": [
        {
          "internalType": "address",
          "name": "owner",
          "type": "address"
        }
      ],
      "name": "balanceOf",
      "outputs": [
        {
          "internalType": "uint256",
          "name": "",
          "type": "uint256"
        }
      ],
      "stateMutability": "view",
      "type": "function"
    },
    {
      "inputs": [],
      "name": "contractURI",
      "outputs": [
        {
          "internalType": "string",
          "name": "",
          "type": "string"
        }
      ],
      "stateMutability": "pure",
      "type": "function"
    },
    {
      "inputs": [
        {
          "internalType": "uint256",
          "name": "tokenId",
          "type": "uint256"
        },
        {
          "internalType": "bytes32",
          "name": "hash",
          "type": "bytes32"
        },
        {
          "internalType": "bytes",
          "name": "signature",
          "type": "bytes"
        }
      ],
      "name": "directMint",
      "outputs": [],
      "stateMutability": "nonpayable",
      "type": "function"
    },
    {
      "inputs": [],
      "name": "flipSaleStatus",
      "outputs": [],
      "stateMutability": "nonpayable",
      "type": "function"
    },
    {
      "inputs": [
        {
          "internalType": "uint256",
          "name": "tokenId",
          "type": "uint256"
        }
      ],
      "name": "getApproved",
      "outputs": [
        {
          "internalType": "address",
          "name": "",
          "type": "address"
        }
      ],
      "stateMutability": "view",
      "type": "function"
    },
    {
      "inputs": [
        {
          "internalType": "address",
          "name": "_address",
          "type": "address"
        }
      ],
      "name": "getWhiteListedAddress",
      "outputs": [
        {
          "internalType": "bool",
          "name": "",
          "type": "bool"
        }
      ],
      "stateMutability": "view",
      "type": "function"
    },
    {
      "inputs": [
        {
          "internalType": "address",
          "name": "owner",
          "type": "address"
        },
        {
          "internalType": "address",
          "name": "operator",
          "type": "address"
        }
      ],
      "name": "isApprovedForAll",
      "outputs": [
        {
          "internalType": "bool",
          "name": "",
          "type": "bool"
        }
      ],
      "stateMutability": "view",
      "type": "function"
    },
    {
      "inputs": [],
      "name": "isSaleActive",
      "outputs": [
        {
          "internalType": "bool",
          "name": "",
          "type": "bool"
        }
      ],
      "stateMutability": "view",
      "type": "function"
    },
    {
      "inputs": [
        {
          "internalType": "uint256[]",
          "name": "tokenId",
          "type": "uint256[]"
        },
        {
          "internalType": "uint256",
          "name": "quantity",
          "type": "uint256"
        },
        {
          "internalType": "address",
          "name": "to",
          "type": "address"
        }
      ],
      "name": "mintHotWallet",
      "outputs": [],
      "stateMutability": "nonpayable",
      "type": "function"
    },
    {
      "inputs": [],
      "name": "name",
      "outputs": [
        {
          "internalType": "string",
          "name": "",
          "type": "string"
        }
      ],
      "stateMutability": "view",
      "type": "function"
    },
    {
      "inputs": [],
      "name": "owner",
      "outputs": [
        {
          "internalType": "address",
          "name": "",
          "type": "address"
        }
      ],
      "stateMutability": "view",
      "type": "function"
    },
    {
      "inputs": [
        {
          "internalType": "uint256",
          "name": "tokenId",
          "type": "uint256"
        }
      ],
      "name": "ownerOf",
      "outputs": [
        {
          "internalType": "address",
          "name": "",
          "type": "address"
        }
      ],
      "stateMutability": "view",
      "type": "function"
    },
    {
      "inputs": [
        {
          "internalType": "address",
          "name": "user",
          "type": "address"
        }
      ],
      "name": "removeHotwalletAddress",
      "outputs": [],
      "stateMutability": "nonpayable",
      "type": "function"
    },
    {
      "inputs": [],
      "name": "renounceOwnership",
      "outputs": [],
      "stateMutability": "nonpayable",
      "type": "function"
    },
    {
      "inputs": [
        {
          "internalType": "uint256[]",
          "name": "tokenId",
          "type": "uint256[]"
        },
        {
          "internalType": "uint256",
          "name": "quantity",
          "type": "uint256"
        },
        {
          "internalType": "bytes32",
          "name": "hash",
          "type": "bytes32"
        },
        {
          "internalType": "bytes",
          "name": "signature",
          "type": "bytes"
        }
      ],
      "name": "safeMintUsingEther",
      "outputs": [],
      "stateMutability": "payable",
      "type": "function"
    },
    {
      "inputs": [
        {
          "internalType": "uint256[]",
          "name": "tokenId",
          "type": "uint256[]"
        },
        {
          "internalType": "address",
          "name": "tokenAddress",
          "type": "address"
        },
        {
          "internalType": "uint256",
          "name": "amount",
          "type": "uint256"
        },
        {
          "internalType": "uint256",
          "name": "quantity",
          "type": "uint256"
        },
        {
          "internalType": "bytes32",
          "name": "hash",
          "type": "bytes32"
        },
        {
          "internalType": "bytes",
          "name": "signature",
          "type": "bytes"
        }
      ],
      "name": "safeMintUsingToken",
      "outputs": [],
      "stateMutability": "nonpayable",
      "type": "function"
    },
    {
      "inputs": [
        {
          "internalType": "address",
          "name": "from",
          "type": "address"
        },
        {
          "internalType": "address",
          "name": "to",
          "type": "address"
        },
        {
          "internalType": "uint256",
          "name": "tokenId",
          "type": "uint256"
        }
      ],
      "name": "safeTransferFrom",
      "outputs": [],
      "stateMutability": "nonpayable",
      "type": "function"
    },
    {
      "inputs": [
        {
          "internalType": "address",
          "name": "from",
          "type": "address"
        },
        {
          "internalType": "address",
          "name": "to",
          "type": "address"
        },
        {
          "internalType": "uint256",
          "name": "tokenId",
          "type": "uint256"
        },
        {
          "internalType": "bytes",
          "name": "data",
          "type": "bytes"
        }
      ],
      "name": "safeTransferFrom",
      "outputs": [],
      "stateMutability": "nonpayable",
      "type": "function"
    },
    {
      "inputs": [
        {
          "internalType": "address",
          "name": "operator",
          "type": "address"
        },
        {
          "internalType": "bool",
          "name": "approved",
          "type": "bool"
        }
      ],
      "name": "setApprovalForAll",
      "outputs": [],
      "stateMutability": "nonpayable",
      "type": "function"
    },
    {
      "inputs": [
        {
          "internalType": "address",
          "name": "user",
          "type": "address"
        }
      ],
      "name": "setHotwalletAddress",
      "outputs": [],
      "stateMutability": "nonpayable",
      "type": "function"
    },
    {
      "inputs": [
        {
          "internalType": "bytes4",
          "name": "interfaceId",
          "type": "bytes4"
        }
      ],
      "name": "supportsInterface",
      "outputs": [
        {
          "internalType": "bool",
          "name": "",
          "type": "bool"
        }
      ],
      "stateMutability": "view",
      "type": "function"
    },
    {
      "inputs": [],
      "name": "symbol",
      "outputs": [
        {
          "internalType": "string",
          "name": "",
          "type": "string"
        }
      ],
      "stateMutability": "view",
      "type": "function"
    },
    {
      "inputs": [
        {
          "internalType": "uint256",
          "name": "tokenId",
          "type": "uint256"
        }
      ],
      "name": "tokenURI",
      "outputs": [
        {
          "internalType": "string",
          "name": "",
          "type": "string"
        }
      ],
      "stateMutability": "view",
      "type": "function"
    },
    {
      "inputs": [
        {
          "internalType": "address",
          "name": "from",
          "type": "address"
        },
        {
          "internalType": "address",
          "name": "to",
          "type": "address"
        },
        {
          "internalType": "uint256",
          "name": "tokenId",
          "type": "uint256"
        }
      ],
      "name": "transferFrom",
      "outputs": [],
      "stateMutability": "nonpayable",
      "type": "function"
    },
    {
      "inputs": [
        {
          "internalType": "address",
          "name": "newOwner",
          "type": "address"
        }
      ],
      "name": "transferOwnership",
      "outputs": [],
      "stateMutability": "nonpayable",
      "type": "function"
    },
    {
      "inputs": [
        {
          "internalType": "address payable",
          "name": "recipient",
          "type": "address"
        }
      ],
      "name": "withdraw",
      "outputs": [],
      "stateMutability": "nonpayable",
      "type": "function"
    },
    {
      "inputs": [
        {
          "internalType": "address",
          "name": "tokenAddress",
          "type": "address"
        },
        {
          "internalType": "address",
          "name": "recipient",
          "type": "address"
        }
      ],
      "name": "withdrawToken",
      "outputs": [],
      "stateMutability": "nonpayable",
      "type": "function"
    }
  ],
  "bytecode": "0x60806040526001600860006101000a81548160ff0219169083151502179055503480156200002c57600080fd5b5060405180606001604052806034815260200162005bc8603491396040518060400160405280600781526020017f4b34434152534500000000000000000000000000000000000000000000000000815250816000908051906020019062000095929190620001ad565b508060019080519060200190620000ae929190620001ad565b505050620000d1620000c5620000df60201b60201c565b620000e760201b60201c565b6001600781905550620002c2565b600033905090565b6000600660009054906101000a900473ffffffffffffffffffffffffffffffffffffffff16905081600660006101000a81548173ffffffffffffffffffffffffffffffffffffffff021916908373ffffffffffffffffffffffffffffffffffffffff1602179055508173ffffffffffffffffffffffffffffffffffffffff168173ffffffffffffffffffffffffffffffffffffffff167f8be0079c531659141344cd1fd0a4f28419497f9722a3daafe3b4186f6b6457e060405160405180910390a35050565b828054620001bb906200025d565b90600052602060002090601f016020900481019282620001df57600085556200022b565b82601f10620001fa57805160ff19168380011785556200022b565b828001600101855582156200022b579182015b828111156200022a5782518255916020019190600101906200020d565b5b5090506200023a91906200023e565b5090565b5b80821115620002595760008160009055506001016200023f565b5090565b600060028204905060018216806200027657607f821691505b602082108114156200028d576200028c62000293565b5b50919050565b7f4e487b7100000000000000000000000000000000000000000000000000000000600052602260045260246000fd5b6158f680620002d26000396000f3fe6080604052600436106101b75760003560e01c8063715018a6116100ec578063b9a8f33b1161008a578063ce03ec9311610064578063ce03ec93146105f5578063e8a3d4851461060c578063e985e9c514610637578063f2fde38b14610674576101b7565b8063b9a8f33b14610566578063c55f89881461058f578063c87b56dd146105b8576101b7565b80638da5cb5b116100c65780638da5cb5b146104be57806395d89b41146104e9578063a22cb46514610514578063b88d4fde1461053d576101b7565b8063715018a614610441578063733dba6d146104585780637c99641a14610481576101b7565b80633aeac4e111610159578063564566a811610133578063564566a8146103735780635c33c58c1461039e5780636352211e146103c757806370a0823114610404576101b7565b80633aeac4e1146102f857806342842e0e1461032157806351cff8d91461034a576101b7565b8063095ea7b311610195578063095ea7b31461026157806323b872dd1461028a57806327986a1b146102b357806336cb4eeb146102cf576101b7565b806301ffc9a7146101bc57806306fdde03146101f9578063081812fc14610224575b600080fd5b3480156101c857600080fd5b506101e360048036038101906101de9190613f51565b61069d565b6040516101f0919061480f565b60405180910390f35b34801561020557600080fd5b5061020e61077f565b60405161021b919061486f565b60405180910390f35b34801561023057600080fd5b5061024b60048036038101906102469190613fab565b610811565b60405161025891906146b1565b60405180910390f35b34801561026d57600080fd5b5061028860048036038101906102839190613d11565b610857565b005b34801561029657600080fd5b506102b160048036038101906102ac9190613bfb565b61096f565b005b6102cd60048036038101906102c89190613e85565b6109cf565b005b3480156102db57600080fd5b506102f660048036038101906102f19190614005565b610db0565b005b34801561030457600080fd5b5061031f600480360381019061031a9190613bbb565b610fd2565b005b34801561032d57600080fd5b5061034860048036038101906103439190613bfb565b6111b2565b005b34801561035657600080fd5b50610371600480360381019061036c9190613b8e565b6111d2565b005b34801561037f57600080fd5b50610388611294565b604051610395919061480f565b60405180910390f35b3480156103aa57600080fd5b506103c560048036038101906103c09190613e16565b6112a7565b005b3480156103d357600080fd5b506103ee60048036038101906103e99190613fab565b611610565b6040516103fb91906146b1565b60405180910390f35b34801561041057600080fd5b5061042b60048036038101906104269190613b61565b611697565b6040516104389190614cb1565b60405180910390f35b34801561044d57600080fd5b5061045661174f565b005b34801561046457600080fd5b5061047f600480360381019061047a9190613d51565b611763565b005b34801561048d57600080fd5b506104a860048036038101906104a39190613b61565b611cc1565b6040516104b5919061480f565b60405180910390f35b3480156104ca57600080fd5b506104d3611d1f565b6040516104e091906146b1565b60405180910390f35b3480156104f557600080fd5b506104fe611d49565b60405161050b919061486f565b60405180910390f35b34801561052057600080fd5b5061053b60048036038101906105369190613cd1565b611ddb565b005b34801561054957600080fd5b50610564600480360381019061055f9190613c4e565b611df1565b005b34801561057257600080fd5b5061058d60048036038101906105889190613b61565b611e53565b005b34801561059b57600080fd5b506105b660048036038101906105b19190613b61565b611fb3565b005b3480156105c457600080fd5b506105df60048036038101906105da9190613fab565b612086565b6040516105ec919061486f565b60405180910390f35b34801561060157600080fd5b5061060a6120ee565b005b34801561061857600080fd5b50610621612122565b60405161062e919061486f565b60405180910390f35b34801561064357600080fd5b5061065e60048036038101906106599190613bbb565b612142565b60405161066b919061480f565b60405180910390f35b34801561068057600080fd5b5061069b60048036038101906106969190613b61565b6121d6565b005b60007f80ac58cd000000000000000000000000000000000000000000000000000000007bffffffffffffffffffffffffffffffffffffffffffffffffffffffff1916827bffffffffffffffffffffffffffffffffffffffffffffffffffffffff1916148061076857507f5b5e139f000000000000000000000000000000000000000000000000000000007bffffffffffffffffffffffffffffffffffffffffffffffffffffffff1916827bffffffffffffffffffffffffffffffffffffffffffffffffffffffff1916145b8061077857506107778261225a565b5b9050919050565b60606000805461078e90614f05565b80601f01602080910402602001604051908101604052809291908181526020018280546107ba90614f05565b80156108075780601f106107dc57610100808354040283529160200191610807565b820191906000526020600020905b8154815290600101906020018083116107ea57829003601f168201915b5050505050905090565b600061081c826122c4565b6004600083815260200190815260200160002060009054906101000a900473ffffffffffffffffffffffffffffffffffffffff169050919050565b600061086282611610565b90508073ffffffffffffffffffffffffffffffffffffffff168373ffffffffffffffffffffffffffffffffffffffff1614156108d3576040517f08c379a00000000000000000000000000000000000000000000000000000000081526004016108ca90614b91565b60405180910390fd5b8073ffffffffffffffffffffffffffffffffffffffff166108f261230f565b73ffffffffffffffffffffffffffffffffffffffff16148061092157506109208161091b61230f565b612142565b5b610960576040517f08c379a000000000000000000000000000000000000000000000000000000000815260040161095790614bf1565b60405180910390fd5b61096a8383612317565b505050565b61098061097a61230f565b826123d0565b6109bf576040517f08c379a00000000000000000000000000000000000000000000000000000000081526004016109b6906148b1565b60405180910390fd5b6109ca838383612465565b505050565b6109d761275f565b600a831115610a1b576040517f08c379a0000000000000000000000000000000000000000000000000000000008152600401610a1290614b71565b60405180910390fd5b6000831415610a5f576040517f08c379a0000000000000000000000000000000000000000000000000000000008152600401610a5690614c71565b60405180910390fd5b600860009054906101000a900460ff16610aae576040517f08c379a0000000000000000000000000000000000000000000000000000000008152600401610aa590614a51565b60405180910390fd5b6000341415610af2576040517f08c379a0000000000000000000000000000000000000000000000000000000008152600401610ae990614bd1565b60405180910390fd5b610afa611d1f565b73ffffffffffffffffffffffffffffffffffffffff16610b1a83836127af565b73ffffffffffffffffffffffffffffffffffffffff1614610b70576040517f08c379a0000000000000000000000000000000000000000000000000000000008152600401610b6790614991565b60405180910390fd5b600981604051610b809190614650565b908152602001604051809103902060009054906101000a900460ff1615610bdc576040517f08c379a0000000000000000000000000000000000000000000000000000000008152600401610bd390614c31565b60405180910390fd5b82845114610c1f576040517f08c379a0000000000000000000000000000000000000000000000000000000008152600401610c1690614971565b60405180910390fd5b60005b83811015610d6a576103e7858281518110610c4057610c3f615077565b5b602002602001015111158015610c765750610c74858281518110610c6757610c66615077565b5b60200260200101516127ee565b155b15610cfd57610c9f33868381518110610c9257610c91615077565b5b602002602001015161282f565b83858281518110610cb357610cb2615077565b5b60200260200101517f188e84d45b0d0f75d776c5ba8d2b1c0507f62d92d3a1817c370bdacdd1e510ee336001600b604051610cf0939291906147af565b60405180910390a3610d57565b83858281518110610d1157610d10615077565b5b60200260200101517f188e84d45b0d0f75d776c5ba8d2b1c0507f62d92d3a1817c370bdacdd1e510ee336000600b604051610d4e939291906147af565b60405180910390a35b8080610d6290614f68565b915050610c22565b506001600982604051610d7d9190614650565b908152602001604051809103902060006101000a81548160ff021916908315150217905550610daa61284d565b50505050565b600860009054906101000a900460ff16610dff576040517f08c379a0000000000000000000000000000000000000000000000000000000008152600401610df690614a51565b60405180910390fd5b610e07611d1f565b73ffffffffffffffffffffffffffffffffffffffff16610e2783836127af565b73ffffffffffffffffffffffffffffffffffffffff1614610e7d576040517f08c379a0000000000000000000000000000000000000000000000000000000008152600401610e7490614991565b60405180910390fd5b600981604051610e8d9190614650565b908152602001604051809103902060009054906101000a900460ff1615610ee9576040517f08c379a0000000000000000000000000000000000000000000000000000000008152600401610ee090614c31565b60405180910390fd5b6103e78311158015610f015750610eff836127ee565b155b15610f5557610f10338461282f565b6001837f188e84d45b0d0f75d776c5ba8d2b1c0507f62d92d3a1817c370bdacdd1e510ee336001600b604051610f48939291906147af565b60405180910390a3610f96565b6000837f188e84d45b0d0f75d776c5ba8d2b1c0507f62d92d3a1817c370bdacdd1e510ee336000600b604051610f8d939291906147af565b60405180910390a35b6001600982604051610fa89190614650565b908152602001604051809103902060006101000a81548160ff021916908315150217905550505050565b610fda612857565b600073ffffffffffffffffffffffffffffffffffffffff168173ffffffffffffffffffffffffffffffffffffffff16141561104a576040517f08c379a000000000000000000000000000000000000000000000000000000000815260040161104190614a71565b60405180910390fd5b600082905060008173ffffffffffffffffffffffffffffffffffffffff166370a08231306040518263ffffffff1660e01b815260040161108a91906146b1565b60206040518083038186803b1580156110a257600080fd5b505afa1580156110b6573d6000803e3d6000fd5b505050506040513d601f19601f820116820180604052508101906110da9190613fd8565b1161111a576040517f08c379a0000000000000000000000000000000000000000000000000000000008152600401611111906149f1565b60405180910390fd5b6111ad81838373ffffffffffffffffffffffffffffffffffffffff166370a08231306040518263ffffffff1660e01b815260040161115891906146b1565b60206040518083038186803b15801561117057600080fd5b505afa158015611184573d6000803e3d6000fd5b505050506040513d601f19601f820116820180604052508101906111a89190613fd8565b6128d5565b505050565b6111cd83838360405180602001604052806000815250611df1565b505050565b6111da612857565b600073ffffffffffffffffffffffffffffffffffffffff168173ffffffffffffffffffffffffffffffffffffffff16141561124a576040517f08c379a000000000000000000000000000000000000000000000000000000000815260040161124190614a71565b60405180910390fd5b8073ffffffffffffffffffffffffffffffffffffffff166108fc479081150290604051600060405180830381858888f19350505050158015611290573d6000803e3d6000fd5b5050565b600860009054906101000a900460ff1681565b33600a60008273ffffffffffffffffffffffffffffffffffffffff1673ffffffffffffffffffffffffffffffffffffffff16815260200190815260200160002060009054906101000a900460ff16611334576040517f08c379a000000000000000000000000000000000000000000000000000000000815260040161132b90614bb1565b60405180910390fd5b600a831115611378576040517f08c379a000000000000000000000000000000000000000000000000000000000815260040161136f90614b71565b60405180910390fd5b60008314156113bc576040517f08c379a00000000000000000000000000000000000000000000000000000000081526004016113b390614c71565b60405180910390fd5b600860009054906101000a900460ff1661140b576040517f08c379a000000000000000000000000000000000000000000000000000000000815260040161140290614a51565b60405180910390fd5b600073ffffffffffffffffffffffffffffffffffffffff168273ffffffffffffffffffffffffffffffffffffffff16141561147b576040517f08c379a000000000000000000000000000000000000000000000000000000000815260040161147290614a71565b60405180910390fd5b828451146114be576040517f08c379a00000000000000000000000000000000000000000000000000000000081526004016114b590614971565b60405180910390fd5b60005b83811015611609576103e78582815181106114df576114de615077565b5b602002602001015111158015611515575061151385828151811061150657611505615077565b5b60200260200101516127ee565b155b1561159c5761153e8386838151811061153157611530615077565b5b602002602001015161282f565b8385828151811061155257611551615077565b5b60200260200101517f188e84d45b0d0f75d776c5ba8d2b1c0507f62d92d3a1817c370bdacdd1e510ee856001600b60405161158f939291906147af565b60405180910390a36115f6565b838582815181106115b0576115af615077565b5b60200260200101517f188e84d45b0d0f75d776c5ba8d2b1c0507f62d92d3a1817c370bdacdd1e510ee856000600b6040516115ed939291906147af565b60405180910390a35b808061160190614f68565b9150506114c1565b5050505050565b60008061161c8361295b565b9050600073ffffffffffffffffffffffffffffffffffffffff168173ffffffffffffffffffffffffffffffffffffffff16141561168e576040517f08c379a000000000000000000000000000000000000000000000000000000000815260040161168590614b51565b60405180910390fd5b80915050919050565b60008073ffffffffffffffffffffffffffffffffffffffff168273ffffffffffffffffffffffffffffffffffffffff161415611708576040517f08c379a00000000000000000000000000000000000000000000000000000000081526004016116ff90614a91565b60405180910390fd5b600360008373ffffffffffffffffffffffffffffffffffffffff1673ffffffffffffffffffffffffffffffffffffffff168152602001908152602001600020549050919050565b611757612857565b6117616000612998565b565b600a8311156117a7576040517f08c379a000000000000000000000000000000000000000000000000000000000815260040161179e90614b71565b60405180910390fd5b60008314156117eb576040517f08c379a00000000000000000000000000000000000000000000000000000000081526004016117e290614c71565b60405180910390fd5b600860009054906101000a900460ff1661183a576040517f08c379a000000000000000000000000000000000000000000000000000000000815260040161183190614a51565b60405180910390fd5b600084141561187e576040517f08c379a000000000000000000000000000000000000000000000000000000000815260040161187590614bd1565b60405180910390fd5b600073ffffffffffffffffffffffffffffffffffffffff168573ffffffffffffffffffffffffffffffffffffffff1614156118ee576040517f08c379a00000000000000000000000000000000000000000000000000000000081526004016118e590614a71565b60405180910390fd5b6118f6611d1f565b73ffffffffffffffffffffffffffffffffffffffff1661191683836127af565b73ffffffffffffffffffffffffffffffffffffffff161461196c576040517f08c379a000000000000000000000000000000000000000000000000000000000815260040161196390614991565b60405180910390fd5b60098160405161197c9190614650565b908152602001604051809103902060009054906101000a900460ff16156119d8576040517f08c379a00000000000000000000000000000000000000000000000000000000081526004016119cf90614c31565b60405180910390fd5b82865114611a1b576040517f08c379a0000000000000000000000000000000000000000000000000000000008152600401611a1290614971565b60405180910390fd5b6000859050848173ffffffffffffffffffffffffffffffffffffffff1663dd62ed3e33306040518363ffffffff1660e01b8152600401611a5c9291906146cc565b60206040518083038186803b158015611a7457600080fd5b505afa158015611a88573d6000803e3d6000fd5b505050506040513d601f19601f82011682018060405250810190611aac9190613fd8565b1015611aed576040517f08c379a0000000000000000000000000000000000000000000000000000000008152600401611ae490614ab1565b60405180910390fd5b60005b84811015611c38576103e7888281518110611b0e57611b0d615077565b5b602002602001015111158015611b445750611b42888281518110611b3557611b34615077565b5b60200260200101516127ee565b155b15611bcb57611b6d33898381518110611b6057611b5f615077565b5b602002602001015161282f565b84888281518110611b8157611b80615077565b5b60200260200101517f188e84d45b0d0f75d776c5ba8d2b1c0507f62d92d3a1817c370bdacdd1e510ee336001600b604051611bbe939291906147af565b60405180910390a3611c25565b84888281518110611bdf57611bde615077565b5b60200260200101517f188e84d45b0d0f75d776c5ba8d2b1c0507f62d92d3a1817c370bdacdd1e510ee336000600b604051611c1c939291906147af565b60405180910390a35b8080611c3090614f68565b915050611af0565b506001600983604051611c4b9190614650565b908152602001604051809103902060006101000a81548160ff021916908315150217905550847fa7814aaf178d6c8e61b2703f3dc1b8328dd6c99cbb405bf8f1bb0cb1bbb051a5873330604051611ca4939291906146f5565b60405180910390a2611cb881333088612a5e565b50505050505050565b6000611ccb612857565b600a60008373ffffffffffffffffffffffffffffffffffffffff1673ffffffffffffffffffffffffffffffffffffffff16815260200190815260200160002060009054906101000a900460ff169050919050565b6000600660009054906101000a900473ffffffffffffffffffffffffffffffffffffffff16905090565b606060018054611d5890614f05565b80601f0160208091040260200160405190810160405280929190818152602001828054611d8490614f05565b8015611dd15780601f10611da657610100808354040283529160200191611dd1565b820191906000526020600020905b815481529060010190602001808311611db457829003601f168201915b5050505050905090565b611ded611de661230f565b8383612ae7565b5050565b611e02611dfc61230f565b836123d0565b611e41576040517f08c379a0000000000000000000000000000000000000000000000000000000008152600401611e38906148b1565b60405180910390fd5b611e4d84848484612c54565b50505050565b611e5b612857565b600073ffffffffffffffffffffffffffffffffffffffff168173ffffffffffffffffffffffffffffffffffffffff161415611ecb576040517f08c379a0000000000000000000000000000000000000000000000000000000008152600401611ec290614b31565b60405180910390fd5b600a60008273ffffffffffffffffffffffffffffffffffffffff1673ffffffffffffffffffffffffffffffffffffffff16815260200190815260200160002060009054906101000a900460ff1615611f58576040517f08c379a0000000000000000000000000000000000000000000000000000000008152600401611f4f90614ad1565b60405180910390fd5b6001600a60008373ffffffffffffffffffffffffffffffffffffffff1673ffffffffffffffffffffffffffffffffffffffff16815260200190815260200160002060006101000a81548160ff02191690831515021790555050565b611fbb612857565b600073ffffffffffffffffffffffffffffffffffffffff168173ffffffffffffffffffffffffffffffffffffffff16141561202b576040517f08c379a000000000000000000000000000000000000000000000000000000000815260040161202290614b31565b60405180910390fd5b6000600a60008373ffffffffffffffffffffffffffffffffffffffff1673ffffffffffffffffffffffffffffffffffffffff16815260200190815260200160002060006101000a81548160ff02191690831515021790555050565b6060612091826122c4565b600061209b612cb0565b905060008151116120bb57604051806020016040528060008152506120e6565b806120c584612cd0565b6040516020016120d6929190614667565b6040516020818303038152906040525b915050919050565b6120f6612857565b600860009054906101000a900460ff1615600860006101000a81548160ff021916908315150217905550565b606060405180606001604052806023815260200161589e60239139905090565b6000600560008473ffffffffffffffffffffffffffffffffffffffff1673ffffffffffffffffffffffffffffffffffffffff16815260200190815260200160002060008373ffffffffffffffffffffffffffffffffffffffff1673ffffffffffffffffffffffffffffffffffffffff16815260200190815260200160002060009054906101000a900460ff16905092915050565b6121de612857565b600073ffffffffffffffffffffffffffffffffffffffff168173ffffffffffffffffffffffffffffffffffffffff16141561224e576040517f08c379a000000000000000000000000000000000000000000000000000000000815260040161224590614911565b60405180910390fd5b61225781612998565b50565b60007f01ffc9a7000000000000000000000000000000000000000000000000000000007bffffffffffffffffffffffffffffffffffffffffffffffffffffffff1916827bffffffffffffffffffffffffffffffffffffffffffffffffffffffff1916149050919050565b6122cd816127ee565b61230c576040517f08c379a000000000000000000000000000000000000000000000000000000000815260040161230390614b51565b60405180910390fd5b50565b600033905090565b816004600083815260200190815260200160002060006101000a81548173ffffffffffffffffffffffffffffffffffffffff021916908373ffffffffffffffffffffffffffffffffffffffff160217905550808273ffffffffffffffffffffffffffffffffffffffff1661238a83611610565b73ffffffffffffffffffffffffffffffffffffffff167f8c5be1e5ebec7d5bd14f71427d1e84f3dd0314c0f7b2291e5b200ac8c7c3b92560405160405180910390a45050565b6000806123dc83611610565b90508073ffffffffffffffffffffffffffffffffffffffff168473ffffffffffffffffffffffffffffffffffffffff16148061241e575061241d8185612142565b5b8061245c57508373ffffffffffffffffffffffffffffffffffffffff1661244484610811565b73ffffffffffffffffffffffffffffffffffffffff16145b91505092915050565b8273ffffffffffffffffffffffffffffffffffffffff1661248582611610565b73ffffffffffffffffffffffffffffffffffffffff16146124db576040517f08c379a00000000000000000000000000000000000000000000000000000000081526004016124d290614931565b60405180910390fd5b600073ffffffffffffffffffffffffffffffffffffffff168273ffffffffffffffffffffffffffffffffffffffff16141561254b576040517f08c379a0000000000000000000000000000000000000000000000000000000008152600401612542906149b1565b60405180910390fd5b6125588383836001612da8565b8273ffffffffffffffffffffffffffffffffffffffff1661257882611610565b73ffffffffffffffffffffffffffffffffffffffff16146125ce576040517f08c379a00000000000000000000000000000000000000000000000000000000081526004016125c590614931565b60405180910390fd5b6004600082815260200190815260200160002060006101000a81549073ffffffffffffffffffffffffffffffffffffffff02191690556001600360008573ffffffffffffffffffffffffffffffffffffffff1673ffffffffffffffffffffffffffffffffffffffff168152602001908152602001600020600082825403925050819055506001600360008473ffffffffffffffffffffffffffffffffffffffff1673ffffffffffffffffffffffffffffffffffffffff16815260200190815260200160002060008282540192505081905550816002600083815260200190815260200160002060006101000a81548173ffffffffffffffffffffffffffffffffffffffff021916908373ffffffffffffffffffffffffffffffffffffffff160217905550808273ffffffffffffffffffffffffffffffffffffffff168473ffffffffffffffffffffffffffffffffffffffff167fddf252ad1be2c89b69c2b068fc378daa952ba7f163c4a11628f55a4df523b3ef60405160405180910390a461275a8383836001612ece565b505050565b600260075414156127a5576040517f08c379a000000000000000000000000000000000000000000000000000000000815260040161279c90614c91565b60405180910390fd5b6002600781905550565b600080836040516020016127c3919061468b565b6040516020818303038152906040528051906020012090506127e58184612ed4565b91505092915050565b60008073ffffffffffffffffffffffffffffffffffffffff166128108361295b565b73ffffffffffffffffffffffffffffffffffffffff1614159050919050565b612849828260405180602001604052806000815250612efb565b5050565b6001600781905550565b61285f61230f565b73ffffffffffffffffffffffffffffffffffffffff1661287d611d1f565b73ffffffffffffffffffffffffffffffffffffffff16146128d3576040517f08c379a00000000000000000000000000000000000000000000000000000000081526004016128ca90614b11565b60405180910390fd5b565b6129568363a9059cbb60e01b84846040516024016128f49291906147e6565b604051602081830303815290604052907bffffffffffffffffffffffffffffffffffffffffffffffffffffffff19166020820180517bffffffffffffffffffffffffffffffffffffffffffffffffffffffff8381831617835250505050612f56565b505050565b60006002600083815260200190815260200160002060009054906101000a900473ffffffffffffffffffffffffffffffffffffffff169050919050565b6000600660009054906101000a900473ffffffffffffffffffffffffffffffffffffffff16905081600660006101000a81548173ffffffffffffffffffffffffffffffffffffffff021916908373ffffffffffffffffffffffffffffffffffffffff1602179055508173ffffffffffffffffffffffffffffffffffffffff168173ffffffffffffffffffffffffffffffffffffffff167f8be0079c531659141344cd1fd0a4f28419497f9722a3daafe3b4186f6b6457e060405160405180910390a35050565b612ae1846323b872dd60e01b858585604051602401612a7f9392919061472c565b604051602081830303815290604052907bffffffffffffffffffffffffffffffffffffffffffffffffffffffff19166020820180517bffffffffffffffffffffffffffffffffffffffffffffffffffffffff8381831617835250505050612f56565b50505050565b8173ffffffffffffffffffffffffffffffffffffffff168373ffffffffffffffffffffffffffffffffffffffff161415612b56576040517f08c379a0000000000000000000000000000000000000000000000000000000008152600401612b4d906149d1565b60405180910390fd5b80600560008573ffffffffffffffffffffffffffffffffffffffff1673ffffffffffffffffffffffffffffffffffffffff16815260200190815260200160002060008473ffffffffffffffffffffffffffffffffffffffff1673ffffffffffffffffffffffffffffffffffffffff16815260200190815260200160002060006101000a81548160ff0219169083151502179055508173ffffffffffffffffffffffffffffffffffffffff168373ffffffffffffffffffffffffffffffffffffffff167f17307eab39ab6107e8899845ad3d59bd9653f200f220920489ca2b5937696c3183604051612c47919061480f565b60405180910390a3505050565b612c5f848484612465565b612c6b8484848461301d565b612caa576040517f08c379a0000000000000000000000000000000000000000000000000000000008152600401612ca1906148f1565b60405180910390fd5b50505050565b606060405180606001604052806023815260200161589e60239139905090565b606060006001612cdf846131b4565b01905060008167ffffffffffffffff811115612cfe57612cfd6150a6565b5b6040519080825280601f01601f191660200182016040528015612d305781602001600182028036833780820191505090505b509050600082602001820190505b600115612d9d578080600190039150507f3031323334353637383961626364656600000000000000000000000000000000600a86061a8153600a8581612d8757612d86614fea565b5b0494506000851415612d9857612d9d565b612d3e565b819350505050919050565b6001811115612ec857600073ffffffffffffffffffffffffffffffffffffffff168473ffffffffffffffffffffffffffffffffffffffff1614612e3c5780600360008673ffffffffffffffffffffffffffffffffffffffff1673ffffffffffffffffffffffffffffffffffffffff1681526020019081526020016000206000828254612e349190614df2565b925050819055505b600073ffffffffffffffffffffffffffffffffffffffff168373ffffffffffffffffffffffffffffffffffffffff1614612ec75780600360008573ffffffffffffffffffffffffffffffffffffffff1673ffffffffffffffffffffffffffffffffffffffff1681526020019081526020016000206000828254612ebf9190614d9c565b925050819055505b5b50505050565b50505050565b6000806000612ee38585613307565b91509150612ef081613359565b819250505092915050565b612f0583836134c7565b612f12600084848461301d565b612f51576040517f08c379a0000000000000000000000000000000000000000000000000000000008152600401612f48906148f1565b60405180910390fd5b505050565b6000612fb8826040518060400160405280602081526020017f5361666545524332303a206c6f772d6c6576656c2063616c6c206661696c65648152508573ffffffffffffffffffffffffffffffffffffffff166136e59092919063ffffffff16565b90506000815111156130185780806020019051810190612fd89190613f24565b613017576040517f08c379a000000000000000000000000000000000000000000000000000000000815260040161300e90614c51565b60405180910390fd5b5b505050565b600061303e8473ffffffffffffffffffffffffffffffffffffffff166136fd565b156131a7578373ffffffffffffffffffffffffffffffffffffffff1663150b7a0261306761230f565b8786866040518563ffffffff1660e01b81526004016130899493929190614763565b602060405180830381600087803b1580156130a357600080fd5b505af19250505080156130d457506040513d601f19601f820116820180604052508101906130d19190613f7e565b60015b613157573d8060008114613104576040519150601f19603f3d011682016040523d82523d6000602084013e613109565b606091505b5060008151141561314f576040517f08c379a0000000000000000000000000000000000000000000000000000000008152600401613146906148f1565b60405180910390fd5b805181602001fd5b63150b7a0260e01b7bffffffffffffffffffffffffffffffffffffffffffffffffffffffff1916817bffffffffffffffffffffffffffffffffffffffffffffffffffffffff1916149150506131ac565b600190505b949350505050565b600080600090507a184f03e93ff9f4daa797ed6e38ed64bf6a1f0100000000000000008310613212577a184f03e93ff9f4daa797ed6e38ed64bf6a1f010000000000000000838161320857613207614fea565b5b0492506040810190505b6d04ee2d6d415b85acef8100000000831061324f576d04ee2d6d415b85acef8100000000838161324557613244614fea565b5b0492506020810190505b662386f26fc10000831061327e57662386f26fc10000838161327457613273614fea565b5b0492506010810190505b6305f5e10083106132a7576305f5e100838161329d5761329c614fea565b5b0492506008810190505b61271083106132cc5761271083816132c2576132c1614fea565b5b0492506004810190505b606483106132ef57606483816132e5576132e4614fea565b5b0492506002810190505b600a83106132fe576001810190505b80915050919050565b6000806041835114156133495760008060006020860151925060408601519150606086015160001a905061333d87828585613720565b94509450505050613352565b60006002915091505b9250929050565b6000600481111561336d5761336c615019565b5b8160048111156133805761337f615019565b5b141561338b576134c4565b6001600481111561339f5761339e615019565b5b8160048111156133b2576133b1615019565b5b14156133f3576040517f08c379a00000000000000000000000000000000000000000000000000000000081526004016133ea90614891565b60405180910390fd5b6002600481111561340757613406615019565b5b81600481111561341a57613419615019565b5b141561345b576040517f08c379a0000000000000000000000000000000000000000000000000000000008152600401613452906148d1565b60405180910390fd5b6003600481111561346f5761346e615019565b5b81600481111561348257613481615019565b5b14156134c3576040517f08c379a00000000000000000000000000000000000000000000000000000000081526004016134ba90614a11565b60405180910390fd5b5b50565b600073ffffffffffffffffffffffffffffffffffffffff168273ffffffffffffffffffffffffffffffffffffffff161415613537576040517f08c379a000000000000000000000000000000000000000000000000000000000815260040161352e90614af1565b60405180910390fd5b613540816127ee565b15613580576040517f08c379a000000000000000000000000000000000000000000000000000000000815260040161357790614951565b60405180910390fd5b61358e600083836001612da8565b613597816127ee565b156135d7576040517f08c379a00000000000000000000000000000000000000000000000000000000081526004016135ce90614951565b60405180910390fd5b6001600360008473ffffffffffffffffffffffffffffffffffffffff1673ffffffffffffffffffffffffffffffffffffffff16815260200190815260200160002060008282540192505081905550816002600083815260200190815260200160002060006101000a81548173ffffffffffffffffffffffffffffffffffffffff021916908373ffffffffffffffffffffffffffffffffffffffff160217905550808273ffffffffffffffffffffffffffffffffffffffff16600073ffffffffffffffffffffffffffffffffffffffff167fddf252ad1be2c89b69c2b068fc378daa952ba7f163c4a11628f55a4df523b3ef60405160405180910390a46136e1600083836001612ece565b5050565b60606136f48484600085613803565b90509392505050565b6000808273ffffffffffffffffffffffffffffffffffffffff163b119050919050565b6000807f7fffffffffffffffffffffffffffffff5d576e7357a4501ddfe92f46681b20a08360001c111561375b5760006003915091506137fa565b600060018787878760405160008152602001604052604051613780949392919061482a565b6020604051602081039080840390855afa1580156137a2573d6000803e3d6000fd5b505050602060405103519050600073ffffffffffffffffffffffffffffffffffffffff168173ffffffffffffffffffffffffffffffffffffffff1614156137f1576000600192509250506137fa565b80600092509250505b94509492505050565b606082471015613848576040517f08c379a000000000000000000000000000000000000000000000000000000000815260040161383f90614a31565b60405180910390fd5b6000808673ffffffffffffffffffffffffffffffffffffffff1685876040516138719190614650565b60006040518083038185875af1925050503d80600081146138ae576040519150601f19603f3d011682016040523d82523d6000602084013e6138b3565b606091505b50915091506138c4878383876138d0565b92505050949350505050565b606083156139335760008351141561392b576138eb856136fd565b61392a576040517f08c379a000000000000000000000000000000000000000000000000000000000815260040161392190614c11565b60405180910390fd5b5b82905061393e565b61393d8383613946565b5b949350505050565b6000825111156139595781518083602001fd5b806040517f08c379a000000000000000000000000000000000000000000000000000000000815260040161398d919061486f565b60405180910390fd5b60006139a96139a484614cf1565b614ccc565b905080838252602082019050828560208602820111156139cc576139cb6150da565b5b60005b858110156139fc57816139e28882613b37565b8452602084019350602083019250506001810190506139cf565b5050509392505050565b6000613a19613a1484614d1d565b614ccc565b905082815260208101848484011115613a3557613a346150df565b5b613a40848285614ec3565b509392505050565b600081359050613a5781615813565b92915050565b600081359050613a6c8161582a565b92915050565b600082601f830112613a8757613a866150d5565b5b8135613a97848260208601613996565b91505092915050565b600081359050613aaf81615841565b92915050565b600081519050613ac481615841565b92915050565b600081359050613ad981615858565b92915050565b600081359050613aee8161586f565b92915050565b600081519050613b038161586f565b92915050565b600082601f830112613b1e57613b1d6150d5565b5b8135613b2e848260208601613a06565b91505092915050565b600081359050613b4681615886565b92915050565b600081519050613b5b81615886565b92915050565b600060208284031215613b7757613b766150e9565b5b6000613b8584828501613a48565b91505092915050565b600060208284031215613ba457613ba36150e9565b5b6000613bb284828501613a5d565b91505092915050565b60008060408385031215613bd257613bd16150e9565b5b6000613be085828601613a48565b9250506020613bf185828601613a48565b9150509250929050565b600080600060608486031215613c1457613c136150e9565b5b6000613c2286828701613a48565b9350506020613c3386828701613a48565b9250506040613c4486828701613b37565b9150509250925092565b60008060008060808587031215613c6857613c676150e9565b5b6000613c7687828801613a48565b9450506020613c8787828801613a48565b9350506040613c9887828801613b37565b925050606085013567ffffffffffffffff811115613cb957613cb86150e4565b5b613cc587828801613b09565b91505092959194509250565b60008060408385031215613ce857613ce76150e9565b5b6000613cf685828601613a48565b9250506020613d0785828601613aa0565b9150509250929050565b60008060408385031215613d2857613d276150e9565b5b6000613d3685828601613a48565b9250506020613d4785828601613b37565b9150509250929050565b60008060008060008060c08789031215613d6e57613d6d6150e9565b5b600087013567ffffffffffffffff811115613d8c57613d8b6150e4565b5b613d9889828a01613a72565b9650506020613da989828a01613a48565b9550506040613dba89828a01613b37565b9450506060613dcb89828a01613b37565b9350506080613ddc89828a01613aca565b92505060a087013567ffffffffffffffff811115613dfd57613dfc6150e4565b5b613e0989828a01613b09565b9150509295509295509295565b600080600060608486031215613e2f57613e2e6150e9565b5b600084013567ffffffffffffffff811115613e4d57613e4c6150e4565b5b613e5986828701613a72565b9350506020613e6a86828701613b37565b9250506040613e7b86828701613a48565b9150509250925092565b60008060008060808587031215613e9f57613e9e6150e9565b5b600085013567ffffffffffffffff811115613ebd57613ebc6150e4565b5b613ec987828801613a72565b9450506020613eda87828801613b37565b9350506040613eeb87828801613aca565b925050606085013567ffffffffffffffff811115613f0c57613f0b6150e4565b5b613f1887828801613b09565b91505092959194509250565b600060208284031215613f3a57613f396150e9565b5b6000613f4884828501613ab5565b91505092915050565b600060208284031215613f6757613f666150e9565b5b6000613f7584828501613adf565b91505092915050565b600060208284031215613f9457613f936150e9565b5b6000613fa284828501613af4565b91505092915050565b600060208284031215613fc157613fc06150e9565b5b6000613fcf84828501613b37565b91505092915050565b600060208284031215613fee57613fed6150e9565b5b6000613ffc84828501613b4c565b91505092915050565b60008060006060848603121561401e5761401d6150e9565b5b600061402c86828701613b37565b935050602061403d86828701613aca565b925050604084013567ffffffffffffffff81111561405e5761405d6150e4565b5b61406a86828701613b09565b9150509250925092565b61407d81614e26565b82525050565b61408c81614e4a565b82525050565b61409b81614e56565b82525050565b6140b26140ad82614e56565b614fb1565b82525050565b60006140c382614d4e565b6140cd8185614d64565b93506140dd818560208601614ed2565b6140e6816150ee565b840191505092915050565b60006140fc82614d4e565b6141068185614d75565b9350614116818560208601614ed2565b80840191505092915050565b600061412d82614d59565b6141378185614d80565b9350614147818560208601614ed2565b614150816150ee565b840191505092915050565b600061416682614d59565b6141708185614d91565b9350614180818560208601614ed2565b80840191505092915050565b6000614199601883614d80565b91506141a4826150ff565b602082019050919050565b60006141bc602d83614d80565b91506141c782615128565b604082019050919050565b60006141df601f83614d80565b91506141ea82615177565b602082019050919050565b6000614202601c83614d91565b915061420d826151a0565b601c82019050919050565b6000614225603283614d80565b9150614230826151c9565b604082019050919050565b6000614248602683614d80565b915061425382615218565b604082019050919050565b600061426b602583614d80565b915061427682615267565b604082019050919050565b600061428e601c83614d80565b9150614299826152b6565b602082019050919050565b60006142b1601183614d80565b91506142bc826152df565b602082019050919050565b60006142d4601983614d80565b91506142df82615308565b602082019050919050565b60006142f7602483614d80565b915061430282615331565b604082019050919050565b600061431a601983614d80565b915061432582615380565b602082019050919050565b600061433d601483614d80565b9150614348826153a9565b602082019050919050565b6000614360602283614d80565b915061436b826153d2565b604082019050919050565b6000614383602683614d80565b915061438e82615421565b604082019050919050565b60006143a6600d83614d80565b91506143b182615470565b602082019050919050565b60006143c9601683614d80565b91506143d482615499565b602082019050919050565b60006143ec602983614d80565b91506143f7826154c2565b604082019050919050565b600061440f601983614d80565b915061441a82615511565b602082019050919050565b6000614432601383614d80565b915061443d8261553a565b602082019050919050565b6000614455602083614d80565b915061446082615563565b602082019050919050565b6000614478602083614d80565b91506144838261558c565b602082019050919050565b600061449b601383614d80565b91506144a6826155b5565b602082019050919050565b60006144be601883614d80565b91506144c9826155de565b602082019050919050565b60006144e1601c83614d80565b91506144ec82615607565b602082019050919050565b6000614504602183614d80565b915061450f82615630565b604082019050919050565b6000614527601a83614d80565b91506145328261567f565b602082019050919050565b600061454a601383614d80565b9150614555826156a8565b602082019050919050565b600061456d603d83614d80565b9150614578826156d1565b604082019050919050565b6000614590601d83614d80565b915061459b82615720565b602082019050919050565b60006145b3601683614d80565b91506145be82615749565b602082019050919050565b60006145d6602a83614d80565b91506145e182615772565b604082019050919050565b60006145f9601583614d80565b9150614604826157c1565b602082019050919050565b600061461c601f83614d80565b9150614627826157ea565b602082019050919050565b61463b81614eac565b82525050565b61464a81614eb6565b82525050565b600061465c82846140f1565b915081905092915050565b6000614673828561415b565b915061467f828461415b565b91508190509392505050565b6000614696826141f5565b91506146a282846140a1565b60208201915081905092915050565b60006020820190506146c66000830184614074565b92915050565b60006040820190506146e16000830185614074565b6146ee6020830184614074565b9392505050565b600060608201905061470a6000830186614074565b6147176020830185614074565b6147246040830184614074565b949350505050565b60006060820190506147416000830186614074565b61474e6020830185614074565b61475b6040830184614632565b949350505050565b60006080820190506147786000830187614074565b6147856020830186614074565b6147926040830185614632565b81810360608301526147a481846140b8565b905095945050505050565b60006060820190506147c46000830186614074565b6147d16020830185614083565b6147de6040830184614632565b949350505050565b60006040820190506147fb6000830185614074565b6148086020830184614632565b9392505050565b60006020820190506148246000830184614083565b92915050565b600060808201905061483f6000830187614092565b61484c6020830186614641565b6148596040830185614092565b6148666060830184614092565b95945050505050565b600060208201905081810360008301526148898184614122565b905092915050565b600060208201905081810360008301526148aa8161418c565b9050919050565b600060208201905081810360008301526148ca816141af565b9050919050565b600060208201905081810360008301526148ea816141d2565b9050919050565b6000602082019050818103600083015261490a81614218565b9050919050565b6000602082019050818103600083015261492a8161423b565b9050919050565b6000602082019050818103600083015261494a8161425e565b9050919050565b6000602082019050818103600083015261496a81614281565b9050919050565b6000602082019050818103600083015261498a816142a4565b9050919050565b600060208201905081810360008301526149aa816142c7565b9050919050565b600060208201905081810360008301526149ca816142ea565b9050919050565b600060208201905081810360008301526149ea8161430d565b9050919050565b60006020820190508181036000830152614a0a81614330565b9050919050565b60006020820190508181036000830152614a2a81614353565b9050919050565b60006020820190508181036000830152614a4a81614376565b9050919050565b60006020820190508181036000830152614a6a81614399565b9050919050565b60006020820190508181036000830152614a8a816143bc565b9050919050565b60006020820190508181036000830152614aaa816143df565b9050919050565b60006020820190508181036000830152614aca81614402565b9050919050565b60006020820190508181036000830152614aea81614425565b9050919050565b60006020820190508181036000830152614b0a81614448565b9050919050565b60006020820190508181036000830152614b2a8161446b565b9050919050565b60006020820190508181036000830152614b4a8161448e565b9050919050565b60006020820190508181036000830152614b6a816144b1565b9050919050565b60006020820190508181036000830152614b8a816144d4565b9050919050565b60006020820190508181036000830152614baa816144f7565b9050919050565b60006020820190508181036000830152614bca8161451a565b9050919050565b60006020820190508181036000830152614bea8161453d565b9050919050565b60006020820190508181036000830152614c0a81614560565b9050919050565b60006020820190508181036000830152614c2a81614583565b9050919050565b60006020820190508181036000830152614c4a816145a6565b9050919050565b60006020820190508181036000830152614c6a816145c9565b9050919050565b60006020820190508181036000830152614c8a816145ec565b9050919050565b60006020820190508181036000830152614caa8161460f565b9050919050565b6000602082019050614cc66000830184614632565b92915050565b6000614cd6614ce7565b9050614ce28282614f37565b919050565b6000604051905090565b600067ffffffffffffffff821115614d0c57614d0b6150a6565b5b602082029050602081019050919050565b600067ffffffffffffffff821115614d3857614d376150a6565b5b614d41826150ee565b9050602081019050919050565b600081519050919050565b600081519050919050565b600082825260208201905092915050565b600081905092915050565b600082825260208201905092915050565b600081905092915050565b6000614da782614eac565b9150614db283614eac565b9250827fffffffffffffffffffffffffffffffffffffffffffffffffffffffffffffffff03821115614de757614de6614fbb565b5b828201905092915050565b6000614dfd82614eac565b9150614e0883614eac565b925082821015614e1b57614e1a614fbb565b5b828203905092915050565b6000614e3182614e8c565b9050919050565b6000614e4382614e8c565b9050919050565b60008115159050919050565b6000819050919050565b60007fffffffff0000000000000000000000000000000000000000000000000000000082169050919050565b600073ffffffffffffffffffffffffffffffffffffffff82169050919050565b6000819050919050565b600060ff82169050919050565b82818337600083830152505050565b60005b83811015614ef0578082015181840152602081019050614ed5565b83811115614eff576000848401525b50505050565b60006002820490506001821680614f1d57607f821691505b60208210811415614f3157614f30615048565b5b50919050565b614f40826150ee565b810181811067ffffffffffffffff82111715614f5f57614f5e6150a6565b5b80604052505050565b6000614f7382614eac565b91507fffffffffffffffffffffffffffffffffffffffffffffffffffffffffffffffff821415614fa657614fa5614fbb565b5b600182019050919050565b6000819050919050565b7f4e487b7100000000000000000000000000000000000000000000000000000000600052601160045260246000fd5b7f4e487b7100000000000000000000000000000000000000000000000000000000600052601260045260246000fd5b7f4e487b7100000000000000000000000000000000000000000000000000000000600052602160045260246000fd5b7f4e487b7100000000000000000000000000000000000000000000000000000000600052602260045260246000fd5b7f4e487b7100000000000000000000000000000000000000000000000000000000600052603260045260246000fd5b7f4e487b7100000000000000000000000000000000000000000000000000000000600052604160045260246000fd5b600080fd5b600080fd5b600080fd5b600080fd5b600080fd5b6000601f19601f8301169050919050565b7f45434453413a20696e76616c6964207369676e61747572650000000000000000600082015250565b7f4552433732313a2063616c6c6572206973206e6f7420746f6b656e206f776e6560008201527f72206f7220617070726f76656400000000000000000000000000000000000000602082015250565b7f45434453413a20696e76616c6964207369676e6174757265206c656e67746800600082015250565b7f19457468657265756d205369676e6564204d6573736167653a0a333200000000600082015250565b7f4552433732313a207472616e7366657220746f206e6f6e20455243373231526560008201527f63656976657220696d706c656d656e7465720000000000000000000000000000602082015250565b7f4f776e61626c653a206e6577206f776e657220697320746865207a65726f206160008201527f6464726573730000000000000000000000000000000000000000000000000000602082015250565b7f4552433732313a207472616e736665722066726f6d20696e636f72726563742060008201527f6f776e6572000000000000000000000000000000000000000000000000000000602082015250565b7f4552433732313a20746f6b656e20616c7265616479206d696e74656400000000600082015250565b7f496e76616c696420706172616d65746572000000000000000000000000000000600082015250565b7f41646472657373206973206e6f7420617574686f72697a656400000000000000600082015250565b7f4552433732313a207472616e7366657220746f20746865207a65726f2061646460008201527f7265737300000000000000000000000000000000000000000000000000000000602082015250565b7f4552433732313a20617070726f766520746f2063616c6c657200000000000000600082015250565b7f496e73756666696369656e742062616c616e6365000000000000000000000000600082015250565b7f45434453413a20696e76616c6964207369676e6174757265202773272076616c60008201527f7565000000000000000000000000000000000000000000000000000000000000602082015250565b7f416464726573733a20696e73756666696369656e742062616c616e636520666f60008201527f722063616c6c0000000000000000000000000000000000000000000000000000602082015250565b7f53616c6520496e61637469766500000000000000000000000000000000000000600082015250565b7f416464726573732063616e6e6f74206265207a65726f00000000000000000000600082015250565b7f4552433732313a2061646472657373207a65726f206973206e6f74206120766160008201527f6c6964206f776e65720000000000000000000000000000000000000000000000602082015250565b7f436865636b2074686520746f6b656e20616c6c6f77616e636500000000000000600082015250565b7f5573657220616c72656164792065786973747300000000000000000000000000600082015250565b7f4552433732313a206d696e7420746f20746865207a65726f2061646472657373600082015250565b7f4f776e61626c653a2063616c6c6572206973206e6f7420746865206f776e6572600082015250565b7f416464726573732063616e6e6f74206265203000000000000000000000000000600082015250565b7f4552433732313a20696e76616c696420746f6b656e2049440000000000000000600082015250565b7f43616e6e6f7420627579206d6f7265207468616e203130206e66747300000000600082015250565b7f4552433732313a20617070726f76616c20746f2063757272656e74206f776e6560008201527f7200000000000000000000000000000000000000000000000000000000000000602082015250565b7f596f75206e65656420746f2062652077686974656c6973746564000000000000600082015250565b7f496e73756666696369656e7420616d6f756e7400000000000000000000000000600082015250565b7f4552433732313a20617070726f76652063616c6c6572206973206e6f7420746f60008201527f6b656e206f776e6572206f7220617070726f76656420666f7220616c6c000000602082015250565b7f416464726573733a2063616c6c20746f206e6f6e2d636f6e7472616374000000600082015250565b7f416c7265616479207369676e6174757265207573656400000000000000000000600082015250565b7f5361666545524332303a204552433230206f7065726174696f6e20646964206e60008201527f6f74207375636365656400000000000000000000000000000000000000000000602082015250565b7f496e73756666696369656e74207175616e746974790000000000000000000000600082015250565b7f5265656e7472616e637947756172643a207265656e7472616e742063616c6c00600082015250565b61581c81614e26565b811461582757600080fd5b50565b61583381614e38565b811461583e57600080fd5b50565b61584a81614e4a565b811461585557600080fd5b50565b61586181614e56565b811461586c57600080fd5b50565b61587881614e60565b811461588357600080fd5b50565b61588f81614eac565b811461589a57600080fd5b5056fe68747470733a2f2f67616d652e6b3472616c6c792e696f2f6e66742f6361722f31312fa264697066735822122020b35fc08def6b004310b2a2bd0bcfcdccd6ef1434dbf0eb641ae209eb1f3f8464736f6c634300080700334b34205369676e61747572652045646974696f6e202331202d204368726973746f66204b6c6175736e6572204d656d6f7269616c",
  "linkReferences": {},
  "deployedLinkReferences": {}
}