{
  "_format": "hh-sol-artifact-1",
  "contractName": "K4NftCarSignatureEdition2V1",
  "sourceName": "contracts/K4Rally_Edition2_V1.sol",
  "abi": [
    {
      "anonymous": false,
      "inputs": [
        {
          "indexed": true,
          "internalType": "address",
          "name": "owner",
          "type": "address"
        },
        {
          "indexed": true,
          "internalType": "address",
          "name": "approved",
          "type": "address"
        },
        {
          "indexed": true,
          "internalType": "uint256",
          "name": "tokenId",
          "type": "uint256"
        }
      ],
      "name": "Approval",
      "type": "event"
    },
    {
      "anonymous": false,
      "inputs": [
        {
          "indexed": true,
          "internalType": "address",
          "name": "owner",
          "type": "address"
        },
        {
          "indexed": true,
          "internalType": "address",
          "name": "operator",
          "type": "address"
        },
        {
          "indexed": false,
          "internalType": "bool",
          "name": "approved",
          "type": "bool"
        }
      ],
      "name": "ApprovalForAll",
      "type": "event"
    },
    {
      "anonymous": false,
      "inputs": [
        {
          "indexed": false,
          "internalType": "uint8",
          "name": "version",
          "type": "uint8"
        }
      ],
      "name": "Initialized",
      "type": "event"
    },
    {
      "anonymous": false,
      "inputs": [
        {
          "indexed": false,
          "internalType": "address",
          "name": "_from",
          "type": "address"
        },
        {
          "indexed": true,
          "internalType": "uint256",
          "name": "_tokenId",
          "type": "uint256"
        },
        {
          "indexed": true,
          "internalType": "uint256",
          "name": "_quantity",
          "type": "uint256"
        },
        {
          "indexed": false,
          "internalType": "uint256",
          "name": "_contractID",
          "type": "uint256"
        }
      ],
      "name": "NFTMinted",
      "type": "event"
    },
    {
      "anonymous": false,
      "inputs": [
        {
          "indexed": true,
          "internalType": "address",
          "name": "previousOwner",
          "type": "address"
        },
        {
          "indexed": true,
          "internalType": "address",
          "name": "newOwner",
          "type": "address"
        }
      ],
      "name": "OwnershipTransferred",
      "type": "event"
    },
    {
      "anonymous": false,
      "inputs": [
        {
          "indexed": false,
          "internalType": "address",
          "name": "account",
          "type": "address"
        }
      ],
      "name": "Paused",
      "type": "event"
    },
    {
      "anonymous": false,
      "inputs": [
        {
          "indexed": false,
          "internalType": "address",
          "name": "_token",
          "type": "address"
        },
        {
          "indexed": false,
          "internalType": "address",
          "name": "_from",
          "type": "address"
        },
        {
          "indexed": false,
          "internalType": "address",
          "name": "_to",
          "type": "address"
        },
        {
          "indexed": true,
          "internalType": "uint256",
          "name": "_amount",
          "type": "uint256"
        }
      ],
      "name": "TokenTransfered",
      "type": "event"
    },
    {
      "anonymous": false,
      "inputs": [
        {
          "indexed": true,
          "internalType": "address",
          "name": "from",
          "type": "address"
        },
        {
          "indexed": true,
          "internalType": "address",
          "name": "to",
          "type": "address"
        },
        {
          "indexed": true,
          "internalType": "uint256",
          "name": "tokenId",
          "type": "uint256"
        }
      ],
      "name": "Transfer",
      "type": "event"
    },
    {
      "anonymous": false,
      "inputs": [
        {
          "indexed": false,
          "internalType": "address",
          "name": "account",
          "type": "address"
        }
      ],
      "name": "Unpaused",
      "type": "event"
    },
    {
      "inputs": [
        {
          "internalType": "address",
          "name": "to",
          "type": "address"
        },
        {
          "internalType": "uint256",
          "name": "tokenId",
          "type": "uint256"
        }
      ],
      "name": "approve",
      "outputs": [],
      "stateMutability": "nonpayable",
      "type": "function"
    },
    {
      "inputs": [
        {
          "internalType": "address",
          "name": "owner",
          "type": "address"
        }
      ],
      "name": "balanceOf",
      "outputs": [
        {
          "internalType": "uint256",
          "name": "",
          "type": "uint256"
        }
      ],
      "stateMutability": "view",
      "type": "function"
    },
    {
      "inputs": [],
      "name": "contractURI",
      "outputs": [
        {
          "internalType": "string",
          "name": "",
          "type": "string"
        }
      ],
      "stateMutability": "pure",
      "type": "function"
    },
    {
      "inputs": [],
      "name": "flipSaleStatus",
      "outputs": [],
      "stateMutability": "nonpayable",
      "type": "function"
    },
    {
      "inputs": [
        {
          "internalType": "uint256",
          "name": "tokenId",
          "type": "uint256"
        }
      ],
      "name": "getApproved",
      "outputs": [
        {
          "internalType": "address",
          "name": "",
          "type": "address"
        }
      ],
      "stateMutability": "view",
      "type": "function"
    },
    {
      "inputs": [],
      "name": "getContractBalance",
      "outputs": [
        {
          "internalType": "uint256",
          "name": "",
          "type": "uint256"
        }
      ],
      "stateMutability": "view",
      "type": "function"
    },
    {
      "inputs": [
        {
          "internalType": "bool",
          "name": "newIsSaleActive",
          "type": "bool"
        }
      ],
      "name": "initialize",
      "outputs": [],
      "stateMutability": "nonpayable",
      "type": "function"
    },
    {
      "inputs": [
        {
          "internalType": "address",
          "name": "owner",
          "type": "address"
        },
        {
          "internalType": "address",
          "name": "operator",
          "type": "address"
        }
      ],
      "name": "isApprovedForAll",
      "outputs": [
        {
          "internalType": "bool",
          "name": "",
          "type": "bool"
        }
      ],
      "stateMutability": "view",
      "type": "function"
    },
    {
      "inputs": [],
      "name": "isSaleActive",
      "outputs": [
        {
          "internalType": "bool",
          "name": "",
          "type": "bool"
        }
      ],
      "stateMutability": "view",
      "type": "function"
    },
    {
      "inputs": [],
      "name": "name",
      "outputs": [
        {
          "internalType": "string",
          "name": "",
          "type": "string"
        }
      ],
      "stateMutability": "view",
      "type": "function"
    },
    {
      "inputs": [],
      "name": "nftTotalSupply",
      "outputs": [
        {
          "internalType": "uint256",
          "name": "",
          "type": "uint256"
        }
      ],
      "stateMutability": "view",
      "type": "function"
    },
    {
      "inputs": [],
      "name": "owner",
      "outputs": [
        {
          "internalType": "address",
          "name": "",
          "type": "address"
        }
      ],
      "stateMutability": "view",
      "type": "function"
    },
    {
      "inputs": [
        {
          "internalType": "uint256",
          "name": "tokenId",
          "type": "uint256"
        }
      ],
      "name": "ownerOf",
      "outputs": [
        {
          "internalType": "address",
          "name": "",
          "type": "address"
        }
      ],
      "stateMutability": "view",
      "type": "function"
    },
    {
      "inputs": [],
      "name": "paused",
      "outputs": [
        {
          "internalType": "bool",
          "name": "",
          "type": "bool"
        }
      ],
      "stateMutability": "view",
      "type": "function"
    },
    {
      "inputs": [],
      "name": "renounceOwnership",
      "outputs": [],
      "stateMutability": "nonpayable",
      "type": "function"
    },
    {
      "inputs": [
        {
          "internalType": "uint256[]",
          "name": "tokenId",
          "type": "uint256[]"
        },
        {
          "internalType": "uint256",
          "name": "quantity",
          "type": "uint256"
        },
        {
          "internalType": "bytes32",
          "name": "hash",
          "type": "bytes32"
        },
        {
          "internalType": "bytes",
          "name": "signature",
          "type": "bytes"
        }
      ],
      "name": "safeMintUsingEther",
      "outputs": [],
      "stateMutability": "payable",
      "type": "function"
    },
    {
      "inputs": [
        {
          "internalType": "uint256[]",
          "name": "tokenId",
          "type": "uint256[]"
        },
        {
          "internalType": "address",
          "name": "tokenAddress",
          "type": "address"
        },
        {
          "internalType": "uint256",
          "name": "amount",
          "type": "uint256"
        },
        {
          "internalType": "uint256",
          "name": "quantity",
          "type": "uint256"
        },
        {
          "internalType": "bytes32",
          "name": "hash",
          "type": "bytes32"
        },
        {
          "internalType": "bytes",
          "name": "signature",
          "type": "bytes"
        }
      ],
      "name": "safeMintUsingToken",
      "outputs": [],
      "stateMutability": "nonpayable",
      "type": "function"
    },
    {
      "inputs": [
        {
          "internalType": "address",
          "name": "from",
          "type": "address"
        },
        {
          "internalType": "address",
          "name": "to",
          "type": "address"
        },
        {
          "internalType": "uint256",
          "name": "tokenId",
          "type": "uint256"
        }
      ],
      "name": "safeTransferFrom",
      "outputs": [],
      "stateMutability": "nonpayable",
      "type": "function"
    },
    {
      "inputs": [
        {
          "internalType": "address",
          "name": "from",
          "type": "address"
        },
        {
          "internalType": "address",
          "name": "to",
          "type": "address"
        },
        {
          "internalType": "uint256",
          "name": "tokenId",
          "type": "uint256"
        },
        {
          "internalType": "bytes",
          "name": "data",
          "type": "bytes"
        }
      ],
      "name": "safeTransferFrom",
      "outputs": [],
      "stateMutability": "nonpayable",
      "type": "function"
    },
    {
      "inputs": [
        {
          "internalType": "address",
          "name": "operator",
          "type": "address"
        },
        {
          "internalType": "bool",
          "name": "approved",
          "type": "bool"
        }
      ],
      "name": "setApprovalForAll",
      "outputs": [],
      "stateMutability": "nonpayable",
      "type": "function"
    },
    {
      "inputs": [
        {
          "internalType": "bytes",
          "name": "",
          "type": "bytes"
        }
      ],
      "name": "signatureUsed",
      "outputs": [
        {
          "internalType": "bool",
          "name": "",
          "type": "bool"
        }
      ],
      "stateMutability": "view",
      "type": "function"
    },
    {
      "inputs": [
        {
          "internalType": "bytes4",
          "name": "interfaceId",
          "type": "bytes4"
        }
      ],
      "name": "supportsInterface",
      "outputs": [
        {
          "internalType": "bool",
          "name": "",
          "type": "bool"
        }
      ],
      "stateMutability": "view",
      "type": "function"
    },
    {
      "inputs": [],
      "name": "symbol",
      "outputs": [
        {
          "internalType": "string",
          "name": "",
          "type": "string"
        }
      ],
      "stateMutability": "view",
      "type": "function"
    },
    {
      "inputs": [
        {
          "internalType": "uint256",
          "name": "tokenId",
          "type": "uint256"
        }
      ],
      "name": "tokenURI",
      "outputs": [
        {
          "internalType": "string",
          "name": "",
          "type": "string"
        }
      ],
      "stateMutability": "view",
      "type": "function"
    },
    {
      "inputs": [
        {
          "internalType": "address",
          "name": "from",
          "type": "address"
        },
        {
          "internalType": "address",
          "name": "to",
          "type": "address"
        },
        {
          "internalType": "uint256",
          "name": "tokenId",
          "type": "uint256"
        }
      ],
      "name": "transferFrom",
      "outputs": [],
      "stateMutability": "nonpayable",
      "type": "function"
    },
    {
      "inputs": [
        {
          "internalType": "address",
          "name": "newOwner",
          "type": "address"
        }
      ],
      "name": "transferOwnership",
      "outputs": [],
      "stateMutability": "nonpayable",
      "type": "function"
    },
    {
      "inputs": [
        {
          "internalType": "address payable",
          "name": "recipient",
          "type": "address"
        }
      ],
      "name": "withdraw",
      "outputs": [],
      "stateMutability": "nonpayable",
      "type": "function"
    }
  ],
  "bytecode": "0x608060405234801561001057600080fd5b506153a0806100206000396000f3fe60806040526004361061019c5760003560e01c806370a08231116100ec578063bb10c8291161008a578063d53a822f11610064578063d53a822f146105a5578063e8a3d485146105ce578063e985e9c5146105f9578063f2fde38b146106365761019c565b8063bb10c82914610514578063c87b56dd14610551578063ce03ec931461058e5761019c565b80638da5cb5b116100c65780638da5cb5b1461046c57806395d89b4114610497578063a22cb465146104c2578063b88d4fde146104eb5761019c565b806370a08231146103ef578063715018a61461042c578063733dba6d146104435761019c565b806327986a1b11610159578063564566a811610133578063564566a8146103315780635c975abb1461035c5780636352211e146103875780636f9fb98a146103c45761019c565b806327986a1b146102c357806342842e0e146102df57806351cff8d9146103085761019c565b806301ffc9a7146101a157806306fdde03146101de578063081812fc14610209578063095ea7b3146102465780630bb237841461026f57806323b872dd1461029a575b600080fd5b3480156101ad57600080fd5b506101c860048036038101906101c391906132c8565b61065f565b6040516101d59190613310565b60405180910390f35b3480156101ea57600080fd5b506101f3610741565b60405161020091906133bb565b60405180910390f35b34801561021557600080fd5b50610230600480360381019061022b9190613413565b6107d3565b60405161023d9190613481565b60405180910390f35b34801561025257600080fd5b5061026d600480360381019061026891906134c8565b610819565b005b34801561027b57600080fd5b50610284610930565b6040516102919190613517565b60405180910390f35b3480156102a657600080fd5b506102c160048036038101906102bc9190613532565b610937565b005b6102dd60048036038101906102d891906137b8565b610997565b005b3480156102eb57600080fd5b5061030660048036038101906103019190613532565b610c56565b005b34801561031457600080fd5b5061032f600480360381019061032a9190613895565b610c76565b005b34801561033d57600080fd5b50610346610d3d565b6040516103539190613310565b60405180910390f35b34801561036857600080fd5b50610371610d51565b60405161037e9190613310565b60405180910390f35b34801561039357600080fd5b506103ae60048036038101906103a99190613413565b610d68565b6040516103bb9190613481565b60405180910390f35b3480156103d057600080fd5b506103d9610dee565b6040516103e69190613517565b60405180910390f35b3480156103fb57600080fd5b50610416600480360381019061041191906138c2565b610df6565b6040516104239190613517565b60405180910390f35b34801561043857600080fd5b50610441610ead565b005b34801561044f57600080fd5b5061046a600480360381019061046591906138ef565b610ec1565b005b34801561047857600080fd5b506104816113cd565b60405161048e9190613481565b60405180910390f35b3480156104a357600080fd5b506104ac6113f7565b6040516104b991906133bb565b60405180910390f35b3480156104ce57600080fd5b506104e960048036038101906104e491906139e0565b611489565b005b3480156104f757600080fd5b50610512600480360381019061050d9190613a20565b61149f565b005b34801561052057600080fd5b5061053b60048036038101906105369190613aa3565b611501565b6040516105489190613310565b60405180910390f35b34801561055d57600080fd5b5061057860048036038101906105739190613413565b611538565b60405161058591906133bb565b60405180910390f35b34801561059a57600080fd5b506105a36115a0565b005b3480156105b157600080fd5b506105cc60048036038101906105c79190613aec565b6115d6565b005b3480156105da57600080fd5b506105e3611797565b6040516105f091906133bb565b60405180910390f35b34801561060557600080fd5b50610620600480360381019061061b9190613b19565b6117b7565b60405161062d9190613310565b60405180910390f35b34801561064257600080fd5b5061065d600480360381019061065891906138c2565b61184b565b005b60007f80ac58cd000000000000000000000000000000000000000000000000000000007bffffffffffffffffffffffffffffffffffffffffffffffffffffffff1916827bffffffffffffffffffffffffffffffffffffffffffffffffffffffff1916148061072a57507f5b5e139f000000000000000000000000000000000000000000000000000000007bffffffffffffffffffffffffffffffffffffffffffffffffffffffff1916827bffffffffffffffffffffffffffffffffffffffffffffffffffffffff1916145b8061073a5750610739826118ce565b5b9050919050565b60606065805461075090613b88565b80601f016020809104026020016040519081016040528092919081815260200182805461077c90613b88565b80156107c95780601f1061079e576101008083540402835291602001916107c9565b820191906000526020600020905b8154815290600101906020018083116107ac57829003601f168201915b5050505050905090565b60006107de82611938565b6069600083815260200190815260200160002060009054906101000a900473ffffffffffffffffffffffffffffffffffffffff169050919050565b600061082482610d68565b90508073ffffffffffffffffffffffffffffffffffffffff168373ffffffffffffffffffffffffffffffffffffffff1603610894576040517f08c379a000000000000000000000000000000000000000000000000000000000815260040161088b90613c2b565b60405180910390fd5b8073ffffffffffffffffffffffffffffffffffffffff166108b3611983565b73ffffffffffffffffffffffffffffffffffffffff1614806108e257506108e1816108dc611983565b6117b7565b5b610921576040517f08c379a000000000000000000000000000000000000000000000000000000000815260040161091890613cbd565b60405180910390fd5b61092b838361198b565b505050565b61012d5481565b610948610942611983565b82611a44565b610987576040517f08c379a000000000000000000000000000000000000000000000000000000000815260040161097e90613d4f565b60405180910390fd5b610992838383611ad9565b505050565b61099f611dd2565b61012e60009054906101000a900460ff166109ef576040517f08c379a00000000000000000000000000000000000000000000000000000000081526004016109e690613dbb565b60405180910390fd5b60008303610a32576040517f08c379a0000000000000000000000000000000000000000000000000000000008152600401610a2990613e27565b60405180910390fd5b610a3a6113cd565b73ffffffffffffffffffffffffffffffffffffffff16610a5a8383611e21565b73ffffffffffffffffffffffffffffffffffffffff1614610ab0576040517f08c379a0000000000000000000000000000000000000000000000000000000008152600401610aa790613e93565b60405180910390fd5b61012f81604051610ac19190613efa565b908152602001604051809103902060009054906101000a900460ff1615610b1d576040517f08c379a0000000000000000000000000000000000000000000000000000000008152600401610b1490613f5d565b60405180910390fd5b82845114610b60576040517f08c379a0000000000000000000000000000000000000000000000000000000008152600401610b5790613fef565b60405180910390fd5b60005b83811015610bf857610b8f33868381518110610b8257610b8161400f565b5b6020026020010151611e60565b83858281518110610ba357610ba261400f565b5b60200260200101517f7bc3ddf0bf2ada973906c61001cd8f787646720bb7da90229e5bf81fa71bab6d33600c604051610bdd92919061403e565b60405180910390a38080610bf090614096565b915050610b63565b50835161012d54610c0991906140de565b61012d81905550600161012f82604051610c239190613efa565b908152602001604051809103902060006101000a81548160ff021916908315150217905550610c50611e7e565b50505050565b610c718383836040518060200160405280600081525061149f565b505050565b610c7e611e88565b600073ffffffffffffffffffffffffffffffffffffffff168173ffffffffffffffffffffffffffffffffffffffff1603610ced576040517f08c379a0000000000000000000000000000000000000000000000000000000008152600401610ce49061415e565b60405180910390fd5b60004790508173ffffffffffffffffffffffffffffffffffffffff166108fc829081150290604051600060405180830381858888f19350505050158015610d38573d6000803e3d6000fd5b505050565b61012e60009054906101000a900460ff1681565b6000609760009054906101000a900460ff16905090565b600080610d7483611f06565b9050600073ffffffffffffffffffffffffffffffffffffffff168173ffffffffffffffffffffffffffffffffffffffff1603610de5576040517f08c379a0000000000000000000000000000000000000000000000000000000008152600401610ddc906141ca565b60405180910390fd5b80915050919050565b600047905090565b60008073ffffffffffffffffffffffffffffffffffffffff168273ffffffffffffffffffffffffffffffffffffffff1603610e66576040517f08c379a0000000000000000000000000000000000000000000000000000000008152600401610e5d9061425c565b60405180910390fd5b606860008373ffffffffffffffffffffffffffffffffffffffff1673ffffffffffffffffffffffffffffffffffffffff168152602001908152602001600020549050919050565b610eb5611e88565b610ebf6000611f43565b565b610ec9611dd2565b61012e60009054906101000a900460ff16610f19576040517f08c379a0000000000000000000000000000000000000000000000000000000008152600401610f1090613dbb565b60405180910390fd5b600085905060008173ffffffffffffffffffffffffffffffffffffffff1663dd62ed3e33306040518363ffffffff1660e01b8152600401610f5b92919061427c565b602060405180830381865afa158015610f78573d6000803e3d6000fd5b505050506040513d601f19601f82011682018060405250810190610f9c91906142ba565b905060008514158015610fb0575060008614155b610fef576040517f08c379a0000000000000000000000000000000000000000000000000000000008152600401610fe690614359565b60405180910390fd5b600073ffffffffffffffffffffffffffffffffffffffff168773ffffffffffffffffffffffffffffffffffffffff160361105e576040517f08c379a00000000000000000000000000000000000000000000000000000000081526004016110559061415e565b60405180910390fd5b858110156110a1576040517f08c379a0000000000000000000000000000000000000000000000000000000008152600401611098906143c5565b60405180910390fd5b858273ffffffffffffffffffffffffffffffffffffffff166370a08231336040518263ffffffff1660e01b81526004016110db9190613481565b602060405180830381865afa1580156110f8573d6000803e3d6000fd5b505050506040513d601f19601f8201168201806040525081019061111c91906142ba565b101561115d576040517f08c379a000000000000000000000000000000000000000000000000000000000815260040161115490614431565b60405180910390fd5b6111656113cd565b73ffffffffffffffffffffffffffffffffffffffff166111858585611e21565b73ffffffffffffffffffffffffffffffffffffffff16146111db576040517f08c379a00000000000000000000000000000000000000000000000000000000081526004016111d290613e93565b60405180910390fd5b61012f836040516111ec9190613efa565b908152602001604051809103902060009054906101000a900460ff1615611248576040517f08c379a000000000000000000000000000000000000000000000000000000000815260040161123f90613f5d565b60405180910390fd5b8488511461128b576040517f08c379a000000000000000000000000000000000000000000000000000000000815260040161128290613fef565b60405180910390fd5b60005b8581101561136b576112a28333308a612009565b6112c6338a83815181106112b9576112b861400f565b5b6020026020010151611e60565b858982815181106112da576112d961400f565b5b60200260200101517f7bc3ddf0bf2ada973906c61001cd8f787646720bb7da90229e5bf81fa71bab6d33600c60405161131492919061403e565b60405180910390a3867fa7814aaf178d6c8e61b2703f3dc1b8328dd6c99cbb405bf8f1bb0cb1bbb051a589333060405161135093929190614451565b60405180910390a2808061136390614096565b91505061128e565b50875161012d5461137c91906140de565b61012d81905550600161012f846040516113969190613efa565b908152602001604051809103902060006101000a81548160ff02191690831515021790555050506113c5611e7e565b505050505050565b600060c960009054906101000a900473ffffffffffffffffffffffffffffffffffffffff16905090565b60606066805461140690613b88565b80601f016020809104026020016040519081016040528092919081815260200182805461143290613b88565b801561147f5780601f106114545761010080835404028352916020019161147f565b820191906000526020600020905b81548152906001019060200180831161146257829003601f168201915b5050505050905090565b61149b611494611983565b8383612092565b5050565b6114b06114aa611983565b83611a44565b6114ef576040517f08c379a00000000000000000000000000000000000000000000000000000000081526004016114e690613d4f565b60405180910390fd5b6114fb848484846121fe565b50505050565b61012f818051602081018201805184825260208301602085012081835280955050505050506000915054906101000a900460ff1681565b606061154382611938565b600061154d61225a565b9050600081511161156d5760405180602001604052806000815250611598565b806115778461227a565b6040516020016115889291906144c4565b6040516020818303038152906040525b915050919050565b6115a8611e88565b61012e60009054906101000a900460ff161561012e60006101000a81548160ff021916908315150217905550565b60008060019054906101000a900460ff161590508080156116075750600160008054906101000a900460ff1660ff16105b80611634575061161630612348565b1580156116335750600160008054906101000a900460ff1660ff16145b5b611673576040517f08c379a000000000000000000000000000000000000000000000000000000000815260040161166a9061455a565b60405180910390fd5b60016000806101000a81548160ff021916908360ff16021790555080156116b0576001600060016101000a81548160ff0219169083151502179055505b6116b861236b565b6116c06123c4565b6116c861241d565b61171f604051806060016040528060238152602001615348602391396040518060400160405280600781526020017f4b34434152534500000000000000000000000000000000000000000000000000815250612476565b8161012e60006101000a81548160ff02191690831515021790555080156117935760008060016101000a81548160ff0219169083151502179055507f7f26b83ff96e1f2b6a682f133852f6798a09c465da95921460cefb3847402498600160405161178a91906145cc565b60405180910390a15b5050565b606060405180606001604052806023815260200161532560239139905090565b6000606a60008473ffffffffffffffffffffffffffffffffffffffff1673ffffffffffffffffffffffffffffffffffffffff16815260200190815260200160002060008373ffffffffffffffffffffffffffffffffffffffff1673ffffffffffffffffffffffffffffffffffffffff16815260200190815260200160002060009054906101000a900460ff16905092915050565b611853611e88565b600073ffffffffffffffffffffffffffffffffffffffff168173ffffffffffffffffffffffffffffffffffffffff16036118c2576040517f08c379a00000000000000000000000000000000000000000000000000000000081526004016118b990614659565b60405180910390fd5b6118cb81611f43565b50565b60007f01ffc9a7000000000000000000000000000000000000000000000000000000007bffffffffffffffffffffffffffffffffffffffffffffffffffffffff1916827bffffffffffffffffffffffffffffffffffffffffffffffffffffffff1916149050919050565b611941816124d3565b611980576040517f08c379a0000000000000000000000000000000000000000000000000000000008152600401611977906141ca565b60405180910390fd5b50565b600033905090565b816069600083815260200190815260200160002060006101000a81548173ffffffffffffffffffffffffffffffffffffffff021916908373ffffffffffffffffffffffffffffffffffffffff160217905550808273ffffffffffffffffffffffffffffffffffffffff166119fe83610d68565b73ffffffffffffffffffffffffffffffffffffffff167f8c5be1e5ebec7d5bd14f71427d1e84f3dd0314c0f7b2291e5b200ac8c7c3b92560405160405180910390a45050565b600080611a5083610d68565b90508073ffffffffffffffffffffffffffffffffffffffff168473ffffffffffffffffffffffffffffffffffffffff161480611a925750611a9181856117b7565b5b80611ad057508373ffffffffffffffffffffffffffffffffffffffff16611ab8846107d3565b73ffffffffffffffffffffffffffffffffffffffff16145b91505092915050565b8273ffffffffffffffffffffffffffffffffffffffff16611af982610d68565b73ffffffffffffffffffffffffffffffffffffffff1614611b4f576040517f08c379a0000000000000000000000000000000000000000000000000000000008152600401611b46906146eb565b60405180910390fd5b600073ffffffffffffffffffffffffffffffffffffffff168273ffffffffffffffffffffffffffffffffffffffff1603611bbe576040517f08c379a0000000000000000000000000000000000000000000000000000000008152600401611bb59061477d565b60405180910390fd5b611bcb8383836001612514565b8273ffffffffffffffffffffffffffffffffffffffff16611beb82610d68565b73ffffffffffffffffffffffffffffffffffffffff1614611c41576040517f08c379a0000000000000000000000000000000000000000000000000000000008152600401611c38906146eb565b60405180910390fd5b6069600082815260200190815260200160002060006101000a81549073ffffffffffffffffffffffffffffffffffffffff02191690556001606860008573ffffffffffffffffffffffffffffffffffffffff1673ffffffffffffffffffffffffffffffffffffffff168152602001908152602001600020600082825403925050819055506001606860008473ffffffffffffffffffffffffffffffffffffffff1673ffffffffffffffffffffffffffffffffffffffff16815260200190815260200160002060008282540192505081905550816067600083815260200190815260200160002060006101000a81548173ffffffffffffffffffffffffffffffffffffffff021916908373ffffffffffffffffffffffffffffffffffffffff160217905550808273ffffffffffffffffffffffffffffffffffffffff168473ffffffffffffffffffffffffffffffffffffffff167fddf252ad1be2c89b69c2b068fc378daa952ba7f163c4a11628f55a4df523b3ef60405160405180910390a4611dcd838383600161263a565b505050565b600260fb5403611e17576040517f08c379a0000000000000000000000000000000000000000000000000000000008152600401611e0e906147e9565b60405180910390fd5b600260fb81905550565b60008083604051602001611e359190614876565b604051602081830303815290604052805190602001209050611e578184612640565b91505092915050565b611e7a828260405180602001604052806000815250612667565b5050565b600160fb81905550565b611e90611983565b73ffffffffffffffffffffffffffffffffffffffff16611eae6113cd565b73ffffffffffffffffffffffffffffffffffffffff1614611f04576040517f08c379a0000000000000000000000000000000000000000000000000000000008152600401611efb906148e8565b60405180910390fd5b565b60006067600083815260200190815260200160002060009054906101000a900473ffffffffffffffffffffffffffffffffffffffff169050919050565b600060c960009054906101000a900473ffffffffffffffffffffffffffffffffffffffff1690508160c960006101000a81548173ffffffffffffffffffffffffffffffffffffffff021916908373ffffffffffffffffffffffffffffffffffffffff1602179055508173ffffffffffffffffffffffffffffffffffffffff168173ffffffffffffffffffffffffffffffffffffffff167f8be0079c531659141344cd1fd0a4f28419497f9722a3daafe3b4186f6b6457e060405160405180910390a35050565b61208c846323b872dd60e01b85858560405160240161202a93929190614908565b604051602081830303815290604052907bffffffffffffffffffffffffffffffffffffffffffffffffffffffff19166020820180517bffffffffffffffffffffffffffffffffffffffffffffffffffffffff83818316178352505050506126c2565b50505050565b8173ffffffffffffffffffffffffffffffffffffffff168373ffffffffffffffffffffffffffffffffffffffff1603612100576040517f08c379a00000000000000000000000000000000000000000000000000000000081526004016120f79061498b565b60405180910390fd5b80606a60008573ffffffffffffffffffffffffffffffffffffffff1673ffffffffffffffffffffffffffffffffffffffff16815260200190815260200160002060008473ffffffffffffffffffffffffffffffffffffffff1673ffffffffffffffffffffffffffffffffffffffff16815260200190815260200160002060006101000a81548160ff0219169083151502179055508173ffffffffffffffffffffffffffffffffffffffff168373ffffffffffffffffffffffffffffffffffffffff167f17307eab39ab6107e8899845ad3d59bd9653f200f220920489ca2b5937696c31836040516121f19190613310565b60405180910390a3505050565b612209848484611ad9565b61221584848484612789565b612254576040517f08c379a000000000000000000000000000000000000000000000000000000000815260040161224b90614a1d565b60405180910390fd5b50505050565b606060405180606001604052806023815260200161532560239139905090565b60606000600161228984612910565b01905060008167ffffffffffffffff8111156122a8576122a761358a565b5b6040519080825280601f01601f1916602001820160405280156122da5781602001600182028036833780820191505090505b509050600082602001820190505b60011561233d578080600190039150507f3031323334353637383961626364656600000000000000000000000000000000600a86061a8153600a858161233157612330614a3d565b5b049450600085036122e8575b819350505050919050565b6000808273ffffffffffffffffffffffffffffffffffffffff163b119050919050565b600060019054906101000a900460ff166123ba576040517f08c379a00000000000000000000000000000000000000000000000000000000081526004016123b190614ade565b60405180910390fd5b6123c2612a63565b565b600060019054906101000a900460ff16612413576040517f08c379a000000000000000000000000000000000000000000000000000000000815260040161240a90614ade565b60405180910390fd5b61241b612ac4565b565b600060019054906101000a900460ff1661246c576040517f08c379a000000000000000000000000000000000000000000000000000000000815260040161246390614ade565b60405180910390fd5b612474612b30565b565b600060019054906101000a900460ff166124c5576040517f08c379a00000000000000000000000000000000000000000000000000000000081526004016124bc90614ade565b60405180910390fd5b6124cf8282612b89565b5050565b60008073ffffffffffffffffffffffffffffffffffffffff166124f583611f06565b73ffffffffffffffffffffffffffffffffffffffff1614159050919050565b600181111561263457600073ffffffffffffffffffffffffffffffffffffffff168473ffffffffffffffffffffffffffffffffffffffff16146125a85780606860008673ffffffffffffffffffffffffffffffffffffffff1673ffffffffffffffffffffffffffffffffffffffff16815260200190815260200160002060008282546125a09190614afe565b925050819055505b600073ffffffffffffffffffffffffffffffffffffffff168373ffffffffffffffffffffffffffffffffffffffff16146126335780606860008573ffffffffffffffffffffffffffffffffffffffff1673ffffffffffffffffffffffffffffffffffffffff168152602001908152602001600020600082825461262b91906140de565b925050819055505b5b50505050565b50505050565b600080600061264f8585612bfc565b9150915061265c81612c4d565b819250505092915050565b6126718383612db3565b61267e6000848484612789565b6126bd576040517f08c379a00000000000000000000000000000000000000000000000000000000081526004016126b490614a1d565b60405180910390fd5b505050565b6000612724826040518060400160405280602081526020017f5361666545524332303a206c6f772d6c6576656c2063616c6c206661696c65648152508573ffffffffffffffffffffffffffffffffffffffff16612fd09092919063ffffffff16565b905060008151111561278457808060200190518101906127449190614b47565b612783576040517f08c379a000000000000000000000000000000000000000000000000000000000815260040161277a90614be6565b60405180910390fd5b5b505050565b60006127aa8473ffffffffffffffffffffffffffffffffffffffff16612348565b15612903578373ffffffffffffffffffffffffffffffffffffffff1663150b7a026127d3611983565b8786866040518563ffffffff1660e01b81526004016127f59493929190614c50565b6020604051808303816000875af192505050801561283157506040513d601f19601f8201168201806040525081019061282e9190614cb1565b60015b6128b3573d8060008114612861576040519150601f19603f3d011682016040523d82523d6000602084013e612866565b606091505b5060008151036128ab576040517f08c379a00000000000000000000000000000000000000000000000000000000081526004016128a290614a1d565b60405180910390fd5b805181602001fd5b63150b7a0260e01b7bffffffffffffffffffffffffffffffffffffffffffffffffffffffff1916817bffffffffffffffffffffffffffffffffffffffffffffffffffffffff191614915050612908565b600190505b949350505050565b600080600090507a184f03e93ff9f4daa797ed6e38ed64bf6a1f010000000000000000831061296e577a184f03e93ff9f4daa797ed6e38ed64bf6a1f010000000000000000838161296457612963614a3d565b5b0492506040810190505b6d04ee2d6d415b85acef810000000083106129ab576d04ee2d6d415b85acef810000000083816129a1576129a0614a3d565b5b0492506020810190505b662386f26fc1000083106129da57662386f26fc1000083816129d0576129cf614a3d565b5b0492506010810190505b6305f5e1008310612a03576305f5e10083816129f9576129f8614a3d565b5b0492506008810190505b6127108310612a28576127108381612a1e57612a1d614a3d565b5b0492506004810190505b60648310612a4b5760648381612a4157612a40614a3d565b5b0492506002810190505b600a8310612a5a576001810190505b80915050919050565b600060019054906101000a900460ff16612ab2576040517f08c379a0000000000000000000000000000000000000000000000000000000008152600401612aa990614ade565b60405180910390fd5b612ac2612abd611983565b611f43565b565b600060019054906101000a900460ff16612b13576040517f08c379a0000000000000000000000000000000000000000000000000000000008152600401612b0a90614ade565b60405180910390fd5b6000609760006101000a81548160ff021916908315150217905550565b600060019054906101000a900460ff16612b7f576040517f08c379a0000000000000000000000000000000000000000000000000000000008152600401612b7690614ade565b60405180910390fd5b600160fb81905550565b600060019054906101000a900460ff16612bd8576040517f08c379a0000000000000000000000000000000000000000000000000000000008152600401612bcf90614ade565b60405180910390fd5b8160659081612be79190614e80565b508060669081612bf79190614e80565b505050565b6000806041835103612c3d5760008060006020860151925060408601519150606086015160001a9050612c3187828585612fe8565b94509450505050612c46565b60006002915091505b9250929050565b60006004811115612c6157612c60614f52565b5b816004811115612c7457612c73614f52565b5b0315612db05760016004811115612c8e57612c8d614f52565b5b816004811115612ca157612ca0614f52565b5b03612ce1576040517f08c379a0000000000000000000000000000000000000000000000000000000008152600401612cd890614fcd565b60405180910390fd5b60026004811115612cf557612cf4614f52565b5b816004811115612d0857612d07614f52565b5b03612d48576040517f08c379a0000000000000000000000000000000000000000000000000000000008152600401612d3f90615039565b60405180910390fd5b60036004811115612d5c57612d5b614f52565b5b816004811115612d6f57612d6e614f52565b5b03612daf576040517f08c379a0000000000000000000000000000000000000000000000000000000008152600401612da6906150cb565b60405180910390fd5b5b50565b600073ffffffffffffffffffffffffffffffffffffffff168273ffffffffffffffffffffffffffffffffffffffff1603612e22576040517f08c379a0000000000000000000000000000000000000000000000000000000008152600401612e1990615137565b60405180910390fd5b612e2b816124d3565b15612e6b576040517f08c379a0000000000000000000000000000000000000000000000000000000008152600401612e62906151a3565b60405180910390fd5b612e79600083836001612514565b612e82816124d3565b15612ec2576040517f08c379a0000000000000000000000000000000000000000000000000000000008152600401612eb9906151a3565b60405180910390fd5b6001606860008473ffffffffffffffffffffffffffffffffffffffff1673ffffffffffffffffffffffffffffffffffffffff16815260200190815260200160002060008282540192505081905550816067600083815260200190815260200160002060006101000a81548173ffffffffffffffffffffffffffffffffffffffff021916908373ffffffffffffffffffffffffffffffffffffffff160217905550808273ffffffffffffffffffffffffffffffffffffffff16600073ffffffffffffffffffffffffffffffffffffffff167fddf252ad1be2c89b69c2b068fc378daa952ba7f163c4a11628f55a4df523b3ef60405160405180910390a4612fcc60008383600161263a565b5050565b6060612fdf84846000856130ca565b90509392505050565b6000807f7fffffffffffffffffffffffffffffff5d576e7357a4501ddfe92f46681b20a08360001c11156130235760006003915091506130c1565b60006001878787876040516000815260200160405260405161304894939291906151e1565b6020604051602081039080840390855afa15801561306a573d6000803e3d6000fd5b505050602060405103519050600073ffffffffffffffffffffffffffffffffffffffff168173ffffffffffffffffffffffffffffffffffffffff16036130b8576000600192509250506130c1565b80600092509250505b94509492505050565b60608247101561310f576040517f08c379a000000000000000000000000000000000000000000000000000000000815260040161310690615298565b60405180910390fd5b6000808673ffffffffffffffffffffffffffffffffffffffff1685876040516131389190613efa565b60006040518083038185875af1925050503d8060008114613175576040519150601f19603f3d011682016040523d82523d6000602084013e61317a565b606091505b509150915061318b87838387613197565b92505050949350505050565b606083156131f95760008351036131f1576131b185612348565b6131f0576040517f08c379a00000000000000000000000000000000000000000000000000000000081526004016131e790615304565b60405180910390fd5b5b829050613204565b613203838361320c565b5b949350505050565b60008251111561321f5781518083602001fd5b806040517f08c379a000000000000000000000000000000000000000000000000000000000815260040161325391906133bb565b60405180910390fd5b6000604051905090565b600080fd5b600080fd5b60007fffffffff0000000000000000000000000000000000000000000000000000000082169050919050565b6132a581613270565b81146132b057600080fd5b50565b6000813590506132c28161329c565b92915050565b6000602082840312156132de576132dd613266565b5b60006132ec848285016132b3565b91505092915050565b60008115159050919050565b61330a816132f5565b82525050565b60006020820190506133256000830184613301565b92915050565b600081519050919050565b600082825260208201905092915050565b60005b8381101561336557808201518184015260208101905061334a565b60008484015250505050565b6000601f19601f8301169050919050565b600061338d8261332b565b6133978185613336565b93506133a7818560208601613347565b6133b081613371565b840191505092915050565b600060208201905081810360008301526133d58184613382565b905092915050565b6000819050919050565b6133f0816133dd565b81146133fb57600080fd5b50565b60008135905061340d816133e7565b92915050565b60006020828403121561342957613428613266565b5b6000613437848285016133fe565b91505092915050565b600073ffffffffffffffffffffffffffffffffffffffff82169050919050565b600061346b82613440565b9050919050565b61347b81613460565b82525050565b60006020820190506134966000830184613472565b92915050565b6134a581613460565b81146134b057600080fd5b50565b6000813590506134c28161349c565b92915050565b600080604083850312156134df576134de613266565b5b60006134ed858286016134b3565b92505060206134fe858286016133fe565b9150509250929050565b613511816133dd565b82525050565b600060208201905061352c6000830184613508565b92915050565b60008060006060848603121561354b5761354a613266565b5b6000613559868287016134b3565b935050602061356a868287016134b3565b925050604061357b868287016133fe565b9150509250925092565b600080fd5b7f4e487b7100000000000000000000000000000000000000000000000000000000600052604160045260246000fd5b6135c282613371565b810181811067ffffffffffffffff821117156135e1576135e061358a565b5b80604052505050565b60006135f461325c565b905061360082826135b9565b919050565b600067ffffffffffffffff8211156136205761361f61358a565b5b602082029050602081019050919050565b600080fd5b600061364961364484613605565b6135ea565b9050808382526020820190506020840283018581111561366c5761366b613631565b5b835b81811015613695578061368188826133fe565b84526020840193505060208101905061366e565b5050509392505050565b600082601f8301126136b4576136b3613585565b5b81356136c4848260208601613636565b91505092915050565b6000819050919050565b6136e0816136cd565b81146136eb57600080fd5b50565b6000813590506136fd816136d7565b92915050565b600080fd5b600067ffffffffffffffff8211156137235761372261358a565b5b61372c82613371565b9050602081019050919050565b82818337600083830152505050565b600061375b61375684613708565b6135ea565b90508281526020810184848401111561377757613776613703565b5b613782848285613739565b509392505050565b600082601f83011261379f5761379e613585565b5b81356137af848260208601613748565b91505092915050565b600080600080608085870312156137d2576137d1613266565b5b600085013567ffffffffffffffff8111156137f0576137ef61326b565b5b6137fc8782880161369f565b945050602061380d878288016133fe565b935050604061381e878288016136ee565b925050606085013567ffffffffffffffff81111561383f5761383e61326b565b5b61384b8782880161378a565b91505092959194509250565b600061386282613440565b9050919050565b61387281613857565b811461387d57600080fd5b50565b60008135905061388f81613869565b92915050565b6000602082840312156138ab576138aa613266565b5b60006138b984828501613880565b91505092915050565b6000602082840312156138d8576138d7613266565b5b60006138e6848285016134b3565b91505092915050565b60008060008060008060c0878903121561390c5761390b613266565b5b600087013567ffffffffffffffff81111561392a5761392961326b565b5b61393689828a0161369f565b965050602061394789828a016134b3565b955050604061395889828a016133fe565b945050606061396989828a016133fe565b935050608061397a89828a016136ee565b92505060a087013567ffffffffffffffff81111561399b5761399a61326b565b5b6139a789828a0161378a565b9150509295509295509295565b6139bd816132f5565b81146139c857600080fd5b50565b6000813590506139da816139b4565b92915050565b600080604083850312156139f7576139f6613266565b5b6000613a05858286016134b3565b9250506020613a16858286016139cb565b9150509250929050565b60008060008060808587031215613a3a57613a39613266565b5b6000613a48878288016134b3565b9450506020613a59878288016134b3565b9350506040613a6a878288016133fe565b925050606085013567ffffffffffffffff811115613a8b57613a8a61326b565b5b613a978782880161378a565b91505092959194509250565b600060208284031215613ab957613ab8613266565b5b600082013567ffffffffffffffff811115613ad757613ad661326b565b5b613ae38482850161378a565b91505092915050565b600060208284031215613b0257613b01613266565b5b6000613b10848285016139cb565b91505092915050565b60008060408385031215613b3057613b2f613266565b5b6000613b3e858286016134b3565b9250506020613b4f858286016134b3565b9150509250929050565b7f4e487b7100000000000000000000000000000000000000000000000000000000600052602260045260246000fd5b60006002820490506001821680613ba057607f821691505b602082108103613bb357613bb2613b59565b5b50919050565b7f4552433732313a20617070726f76616c20746f2063757272656e74206f776e6560008201527f7200000000000000000000000000000000000000000000000000000000000000602082015250565b6000613c15602183613336565b9150613c2082613bb9565b604082019050919050565b60006020820190508181036000830152613c4481613c08565b9050919050565b7f4552433732313a20617070726f76652063616c6c6572206973206e6f7420746f60008201527f6b656e206f776e6572206f7220617070726f76656420666f7220616c6c000000602082015250565b6000613ca7603d83613336565b9150613cb282613c4b565b604082019050919050565b60006020820190508181036000830152613cd681613c9a565b9050919050565b7f4552433732313a2063616c6c6572206973206e6f7420746f6b656e206f776e6560008201527f72206f7220617070726f76656400000000000000000000000000000000000000602082015250565b6000613d39602d83613336565b9150613d4482613cdd565b604082019050919050565b60006020820190508181036000830152613d6881613d2c565b9050919050565b7f53616c65206973206e6f74206163746976650000000000000000000000000000600082015250565b6000613da5601283613336565b9150613db082613d6f565b602082019050919050565b60006020820190508181036000830152613dd481613d98565b9050919050565b7f5175616e746974792063616e6e6f74206265207a65726f000000000000000000600082015250565b6000613e11601783613336565b9150613e1c82613ddb565b602082019050919050565b60006020820190508181036000830152613e4081613e04565b9050919050565b7f41646472657373206973206e6f7420616c6c6f776c6973746564000000000000600082015250565b6000613e7d601a83613336565b9150613e8882613e47565b602082019050919050565b60006020820190508181036000830152613eac81613e70565b9050919050565b600081519050919050565b600081905092915050565b6000613ed482613eb3565b613ede8185613ebe565b9350613eee818560208601613347565b80840191505092915050565b6000613f068284613ec9565b915081905092915050565b7f5369676e61747572652068617320616c7265616479206265656e20757365642e600082015250565b6000613f47602083613336565b9150613f5282613f11565b602082019050919050565b60006020820190508181036000830152613f7681613f3a565b9050919050565b7f546f6b656e496420616e64207175616e74697479206c656e6774682073686f7560008201527f6c64206265206d61746368000000000000000000000000000000000000000000602082015250565b6000613fd9602b83613336565b9150613fe482613f7d565b604082019050919050565b6000602082019050818103600083015261400881613fcc565b9050919050565b7f4e487b7100000000000000000000000000000000000000000000000000000000600052603260045260246000fd5b60006040820190506140536000830185613472565b6140606020830184613508565b9392505050565b7f4e487b7100000000000000000000000000000000000000000000000000000000600052601160045260246000fd5b60006140a1826133dd565b91507fffffffffffffffffffffffffffffffffffffffffffffffffffffffffffffffff82036140d3576140d2614067565b5b600182019050919050565b60006140e9826133dd565b91506140f4836133dd565b925082820190508082111561410c5761410b614067565b5b92915050565b7f416464726573732063616e6e6f74206265207a65726f00000000000000000000600082015250565b6000614148601683613336565b915061415382614112565b602082019050919050565b600060208201905081810360008301526141778161413b565b9050919050565b7f4552433732313a20696e76616c696420746f6b656e2049440000000000000000600082015250565b60006141b4601883613336565b91506141bf8261417e565b602082019050919050565b600060208201905081810360008301526141e3816141a7565b9050919050565b7f4552433732313a2061646472657373207a65726f206973206e6f74206120766160008201527f6c6964206f776e65720000000000000000000000000000000000000000000000602082015250565b6000614246602983613336565b9150614251826141ea565b604082019050919050565b6000602082019050818103600083015261427581614239565b9050919050565b60006040820190506142916000830185613472565b61429e6020830184613472565b9392505050565b6000815190506142b4816133e7565b92915050565b6000602082840312156142d0576142cf613266565b5b60006142de848285016142a5565b91505092915050565b7f5175616e74697479206f7220416d6f756e742063616e6e6f74206265207a657260008201527f6f00000000000000000000000000000000000000000000000000000000000000602082015250565b6000614343602183613336565b915061434e826142e7565b604082019050919050565b6000602082019050818103600083015261437281614336565b9050919050565b7f436865636b2074686520746f6b656e20616c6c6f77616e636500000000000000600082015250565b60006143af601983613336565b91506143ba82614379565b602082019050919050565b600060208201905081810360008301526143de816143a2565b9050919050565b7f496e73756666696369656e7420746f6b656e2062616c616e6365000000000000600082015250565b600061441b601a83613336565b9150614426826143e5565b602082019050919050565b6000602082019050818103600083015261444a8161440e565b9050919050565b60006060820190506144666000830186613472565b6144736020830185613472565b6144806040830184613472565b949350505050565b600081905092915050565b600061449e8261332b565b6144a88185614488565b93506144b8818560208601613347565b80840191505092915050565b60006144d08285614493565b91506144dc8284614493565b91508190509392505050565b7f496e697469616c697a61626c653a20636f6e747261637420697320616c72656160008201527f647920696e697469616c697a6564000000000000000000000000000000000000602082015250565b6000614544602e83613336565b915061454f826144e8565b604082019050919050565b6000602082019050818103600083015261457381614537565b9050919050565b6000819050919050565b600060ff82169050919050565b6000819050919050565b60006145b66145b16145ac8461457a565b614591565b614584565b9050919050565b6145c68161459b565b82525050565b60006020820190506145e160008301846145bd565b92915050565b7f4f776e61626c653a206e6577206f776e657220697320746865207a65726f206160008201527f6464726573730000000000000000000000000000000000000000000000000000602082015250565b6000614643602683613336565b915061464e826145e7565b604082019050919050565b6000602082019050818103600083015261467281614636565b9050919050565b7f4552433732313a207472616e736665722066726f6d20696e636f72726563742060008201527f6f776e6572000000000000000000000000000000000000000000000000000000602082015250565b60006146d5602583613336565b91506146e082614679565b604082019050919050565b60006020820190508181036000830152614704816146c8565b9050919050565b7f4552433732313a207472616e7366657220746f20746865207a65726f2061646460008201527f7265737300000000000000000000000000000000000000000000000000000000602082015250565b6000614767602483613336565b91506147728261470b565b604082019050919050565b600060208201905081810360008301526147968161475a565b9050919050565b7f5265656e7472616e637947756172643a207265656e7472616e742063616c6c00600082015250565b60006147d3601f83613336565b91506147de8261479d565b602082019050919050565b60006020820190508181036000830152614802816147c6565b9050919050565b7f19457468657265756d205369676e6564204d6573736167653a0a333200000000600082015250565b600061483f601c83614488565b915061484a82614809565b601c82019050919050565b6000819050919050565b61487061486b826136cd565b614855565b82525050565b600061488182614832565b915061488d828461485f565b60208201915081905092915050565b7f4f776e61626c653a2063616c6c6572206973206e6f7420746865206f776e6572600082015250565b60006148d2602083613336565b91506148dd8261489c565b602082019050919050565b60006020820190508181036000830152614901816148c5565b9050919050565b600060608201905061491d6000830186613472565b61492a6020830185613472565b6149376040830184613508565b949350505050565b7f4552433732313a20617070726f766520746f2063616c6c657200000000000000600082015250565b6000614975601983613336565b91506149808261493f565b602082019050919050565b600060208201905081810360008301526149a481614968565b9050919050565b7f4552433732313a207472616e7366657220746f206e6f6e20455243373231526560008201527f63656976657220696d706c656d656e7465720000000000000000000000000000602082015250565b6000614a07603283613336565b9150614a12826149ab565b604082019050919050565b60006020820190508181036000830152614a36816149fa565b9050919050565b7f4e487b7100000000000000000000000000000000000000000000000000000000600052601260045260246000fd5b7f496e697469616c697a61626c653a20636f6e7472616374206973206e6f74206960008201527f6e697469616c697a696e67000000000000000000000000000000000000000000602082015250565b6000614ac8602b83613336565b9150614ad382614a6c565b604082019050919050565b60006020820190508181036000830152614af781614abb565b9050919050565b6000614b09826133dd565b9150614b14836133dd565b9250828203905081811115614b2c57614b2b614067565b5b92915050565b600081519050614b41816139b4565b92915050565b600060208284031215614b5d57614b5c613266565b5b6000614b6b84828501614b32565b91505092915050565b7f5361666545524332303a204552433230206f7065726174696f6e20646964206e60008201527f6f74207375636365656400000000000000000000000000000000000000000000602082015250565b6000614bd0602a83613336565b9150614bdb82614b74565b604082019050919050565b60006020820190508181036000830152614bff81614bc3565b9050919050565b600082825260208201905092915050565b6000614c2282613eb3565b614c2c8185614c06565b9350614c3c818560208601613347565b614c4581613371565b840191505092915050565b6000608082019050614c656000830187613472565b614c726020830186613472565b614c7f6040830185613508565b8181036060830152614c918184614c17565b905095945050505050565b600081519050614cab8161329c565b92915050565b600060208284031215614cc757614cc6613266565b5b6000614cd584828501614c9c565b91505092915050565b60008190508160005260206000209050919050565b60006020601f8301049050919050565b600082821b905092915050565b600060088302614d407fffffffffffffffffffffffffffffffffffffffffffffffffffffffffffffffff82614d03565b614d4a8683614d03565b95508019841693508086168417925050509392505050565b6000614d7d614d78614d73846133dd565b614591565b6133dd565b9050919050565b6000819050919050565b614d9783614d62565b614dab614da382614d84565b848454614d10565b825550505050565b600090565b614dc0614db3565b614dcb818484614d8e565b505050565b5b81811015614def57614de4600082614db8565b600181019050614dd1565b5050565b601f821115614e3457614e0581614cde565b614e0e84614cf3565b81016020851015614e1d578190505b614e31614e2985614cf3565b830182614dd0565b50505b505050565b600082821c905092915050565b6000614e5760001984600802614e39565b1980831691505092915050565b6000614e708383614e46565b9150826002028217905092915050565b614e898261332b565b67ffffffffffffffff811115614ea257614ea161358a565b5b614eac8254613b88565b614eb7828285614df3565b600060209050601f831160018114614eea5760008415614ed8578287015190505b614ee28582614e64565b865550614f4a565b601f198416614ef886614cde565b60005b82811015614f2057848901518255600182019150602085019450602081019050614efb565b86831015614f3d5784890151614f39601f891682614e46565b8355505b6001600288020188555050505b505050505050565b7f4e487b7100000000000000000000000000000000000000000000000000000000600052602160045260246000fd5b7f45434453413a20696e76616c6964207369676e61747572650000000000000000600082015250565b6000614fb7601883613336565b9150614fc282614f81565b602082019050919050565b60006020820190508181036000830152614fe681614faa565b9050919050565b7f45434453413a20696e76616c6964207369676e6174757265206c656e67746800600082015250565b6000615023601f83613336565b915061502e82614fed565b602082019050919050565b6000602082019050818103600083015261505281615016565b9050919050565b7f45434453413a20696e76616c6964207369676e6174757265202773272076616c60008201527f7565000000000000000000000000000000000000000000000000000000000000602082015250565b60006150b5602283613336565b91506150c082615059565b604082019050919050565b600060208201905081810360008301526150e4816150a8565b9050919050565b7f4552433732313a206d696e7420746f20746865207a65726f2061646472657373600082015250565b6000615121602083613336565b915061512c826150eb565b602082019050919050565b6000602082019050818103600083015261515081615114565b9050919050565b7f4552433732313a20746f6b656e20616c7265616479206d696e74656400000000600082015250565b600061518d601c83613336565b915061519882615157565b602082019050919050565b600060208201905081810360008301526151bc81615180565b9050919050565b6151cc816136cd565b82525050565b6151db81614584565b82525050565b60006080820190506151f660008301876151c3565b61520360208301866151d2565b61521060408301856151c3565b61521d60608301846151c3565b95945050505050565b7f416464726573733a20696e73756666696369656e742062616c616e636520666f60008201527f722063616c6c0000000000000000000000000000000000000000000000000000602082015250565b6000615282602683613336565b915061528d82615226565b604082019050919050565b600060208201905081810360008301526152b181615275565b9050919050565b7f416464726573733a2063616c6c20746f206e6f6e2d636f6e7472616374000000600082015250565b60006152ee601d83613336565b91506152f9826152b8565b602082019050919050565b6000602082019050818103600083015261531d816152e1565b905091905056fe68747470733a2f2f67616d652e6b3472616c6c792e696f2f6e66742f6361722f31322f4b34205369676e61747572652045646974696f6e2032202d204a616e204365726e6579a2646970667358221220fb230e054a8f273a33b9cbcfc774ff974160692e7f0cf59850b4fc15d84dfbca64736f6c63430008100033",
  "linkReferences": {},
  "deployedLinkReferences": {}
}