{
  "_format": "hh-sol-artifact-1",
  "contractName": "K4NftCarSignatureEdition2",
  "sourceName": "contracts/K4Rally_Edition2.sol",
  "abi": [
    {
      "inputs": [],
      "stateMutability": "nonpayable",
      "type": "constructor"
    },
    {
      "anonymous": false,
      "inputs": [
        {
          "indexed": true,
          "internalType": "address",
          "name": "owner",
          "type": "address"
        },
        {
          "indexed": true,
          "internalType": "address",
          "name": "approved",
          "type": "address"
        },
        {
          "indexed": true,
          "internalType": "uint256",
          "name": "tokenId",
          "type": "uint256"
        }
      ],
      "name": "Approval",
      "type": "event"
    },
    {
      "anonymous": false,
      "inputs": [
        {
          "indexed": true,
          "internalType": "address",
          "name": "owner",
          "type": "address"
        },
        {
          "indexed": true,
          "internalType": "address",
          "name": "operator",
          "type": "address"
        },
        {
          "indexed": false,
          "internalType": "bool",
          "name": "approved",
          "type": "bool"
        }
      ],
      "name": "ApprovalForAll",
      "type": "event"
    },
    {
      "anonymous": false,
      "inputs": [
        {
          "indexed": false,
          "internalType": "address",
          "name": "_from",
          "type": "address"
        },
        {
          "indexed": true,
          "internalType": "uint256",
          "name": "_tokenId",
          "type": "uint256"
        },
        {
          "indexed": true,
          "internalType": "uint256",
          "name": "_quantity",
          "type": "uint256"
        },
        {
          "indexed": false,
          "internalType": "uint256",
          "name": "_contractID",
          "type": "uint256"
        }
      ],
      "name": "NFTMinted",
      "type": "event"
    },
    {
      "anonymous": false,
      "inputs": [
        {
          "indexed": true,
          "internalType": "address",
          "name": "previousOwner",
          "type": "address"
        },
        {
          "indexed": true,
          "internalType": "address",
          "name": "newOwner",
          "type": "address"
        }
      ],
      "name": "OwnershipTransferred",
      "type": "event"
    },
    {
      "anonymous": false,
      "inputs": [
        {
          "indexed": false,
          "internalType": "address",
          "name": "account",
          "type": "address"
        }
      ],
      "name": "Paused",
      "type": "event"
    },
    {
      "anonymous": false,
      "inputs": [
        {
          "indexed": false,
          "internalType": "address",
          "name": "_token",
          "type": "address"
        },
        {
          "indexed": false,
          "internalType": "address",
          "name": "_from",
          "type": "address"
        },
        {
          "indexed": false,
          "internalType": "address",
          "name": "_to",
          "type": "address"
        },
        {
          "indexed": true,
          "internalType": "uint256",
          "name": "_amount",
          "type": "uint256"
        }
      ],
      "name": "TokenTransfered",
      "type": "event"
    },
    {
      "anonymous": false,
      "inputs": [
        {
          "indexed": true,
          "internalType": "address",
          "name": "from",
          "type": "address"
        },
        {
          "indexed": true,
          "internalType": "address",
          "name": "to",
          "type": "address"
        },
        {
          "indexed": true,
          "internalType": "uint256",
          "name": "tokenId",
          "type": "uint256"
        }
      ],
      "name": "Transfer",
      "type": "event"
    },
    {
      "anonymous": false,
      "inputs": [
        {
          "indexed": false,
          "internalType": "address",
          "name": "account",
          "type": "address"
        }
      ],
      "name": "Unpaused",
      "type": "event"
    },
    {
      "inputs": [
        {
          "internalType": "address",
          "name": "to",
          "type": "address"
        },
        {
          "internalType": "uint256",
          "name": "tokenId",
          "type": "uint256"
        }
      ],
      "name": "approve",
      "outputs": [],
      "stateMutability": "nonpayable",
      "type": "function"
    },
    {
      "inputs": [
        {
          "internalType": "address",
          "name": "owner",
          "type": "address"
        }
      ],
      "name": "balanceOf",
      "outputs": [
        {
          "internalType": "uint256",
          "name": "",
          "type": "uint256"
        }
      ],
      "stateMutability": "view",
      "type": "function"
    },
    {
      "inputs": [],
      "name": "contractURI",
      "outputs": [
        {
          "internalType": "string",
          "name": "",
          "type": "string"
        }
      ],
      "stateMutability": "pure",
      "type": "function"
    },
    {
      "inputs": [],
      "name": "flipSaleStatus",
      "outputs": [],
      "stateMutability": "nonpayable",
      "type": "function"
    },
    {
      "inputs": [
        {
          "internalType": "uint256",
          "name": "tokenId",
          "type": "uint256"
        }
      ],
      "name": "getApproved",
      "outputs": [
        {
          "internalType": "address",
          "name": "",
          "type": "address"
        }
      ],
      "stateMutability": "view",
      "type": "function"
    },
    {
      "inputs": [],
      "name": "getContractBalance",
      "outputs": [
        {
          "internalType": "uint256",
          "name": "",
          "type": "uint256"
        }
      ],
      "stateMutability": "view",
      "type": "function"
    },
    {
      "inputs": [
        {
          "internalType": "address",
          "name": "owner",
          "type": "address"
        },
        {
          "internalType": "address",
          "name": "operator",
          "type": "address"
        }
      ],
      "name": "isApprovedForAll",
      "outputs": [
        {
          "internalType": "bool",
          "name": "",
          "type": "bool"
        }
      ],
      "stateMutability": "view",
      "type": "function"
    },
    {
      "inputs": [],
      "name": "isSaleActive",
      "outputs": [
        {
          "internalType": "bool",
          "name": "",
          "type": "bool"
        }
      ],
      "stateMutability": "view",
      "type": "function"
    },
    {
      "inputs": [],
      "name": "name",
      "outputs": [
        {
          "internalType": "string",
          "name": "",
          "type": "string"
        }
      ],
      "stateMutability": "view",
      "type": "function"
    },
    {
      "inputs": [],
      "name": "nftTotalSupply",
      "outputs": [
        {
          "internalType": "uint256",
          "name": "",
          "type": "uint256"
        }
      ],
      "stateMutability": "view",
      "type": "function"
    },
    {
      "inputs": [],
      "name": "owner",
      "outputs": [
        {
          "internalType": "address",
          "name": "",
          "type": "address"
        }
      ],
      "stateMutability": "view",
      "type": "function"
    },
    {
      "inputs": [
        {
          "internalType": "uint256",
          "name": "tokenId",
          "type": "uint256"
        }
      ],
      "name": "ownerOf",
      "outputs": [
        {
          "internalType": "address",
          "name": "",
          "type": "address"
        }
      ],
      "stateMutability": "view",
      "type": "function"
    },
    {
      "inputs": [],
      "name": "paused",
      "outputs": [
        {
          "internalType": "bool",
          "name": "",
          "type": "bool"
        }
      ],
      "stateMutability": "view",
      "type": "function"
    },
    {
      "inputs": [
        {
          "internalType": "bytes32",
          "name": "hash",
          "type": "bytes32"
        },
        {
          "internalType": "bytes",
          "name": "signature",
          "type": "bytes"
        }
      ],
      "name": "recoverSigner",
      "outputs": [
        {
          "internalType": "address",
          "name": "",
          "type": "address"
        }
      ],
      "stateMutability": "pure",
      "type": "function"
    },
    {
      "inputs": [],
      "name": "renounceOwnership",
      "outputs": [],
      "stateMutability": "nonpayable",
      "type": "function"
    },
    {
      "inputs": [
        {
          "internalType": "uint256[]",
          "name": "tokenId",
          "type": "uint256[]"
        },
        {
          "internalType": "uint256",
          "name": "quantity",
          "type": "uint256"
        },
        {
          "internalType": "bytes32",
          "name": "hash",
          "type": "bytes32"
        },
        {
          "internalType": "bytes",
          "name": "signature",
          "type": "bytes"
        }
      ],
      "name": "safeMintUsingEther",
      "outputs": [],
      "stateMutability": "payable",
      "type": "function"
    },
    {
      "inputs": [
        {
          "internalType": "uint256[]",
          "name": "tokenId",
          "type": "uint256[]"
        },
        {
          "internalType": "address",
          "name": "tokenAddress",
          "type": "address"
        },
        {
          "internalType": "uint256",
          "name": "amount",
          "type": "uint256"
        },
        {
          "internalType": "uint256",
          "name": "quantity",
          "type": "uint256"
        },
        {
          "internalType": "bytes32",
          "name": "hash",
          "type": "bytes32"
        },
        {
          "internalType": "bytes",
          "name": "signature",
          "type": "bytes"
        }
      ],
      "name": "safeMintUsingToken",
      "outputs": [],
      "stateMutability": "nonpayable",
      "type": "function"
    },
    {
      "inputs": [
        {
          "internalType": "address",
          "name": "from",
          "type": "address"
        },
        {
          "internalType": "address",
          "name": "to",
          "type": "address"
        },
        {
          "internalType": "uint256",
          "name": "tokenId",
          "type": "uint256"
        }
      ],
      "name": "safeTransferFrom",
      "outputs": [],
      "stateMutability": "nonpayable",
      "type": "function"
    },
    {
      "inputs": [
        {
          "internalType": "address",
          "name": "from",
          "type": "address"
        },
        {
          "internalType": "address",
          "name": "to",
          "type": "address"
        },
        {
          "internalType": "uint256",
          "name": "tokenId",
          "type": "uint256"
        },
        {
          "internalType": "bytes",
          "name": "data",
          "type": "bytes"
        }
      ],
      "name": "safeTransferFrom",
      "outputs": [],
      "stateMutability": "nonpayable",
      "type": "function"
    },
    {
      "inputs": [
        {
          "internalType": "address",
          "name": "operator",
          "type": "address"
        },
        {
          "internalType": "bool",
          "name": "approved",
          "type": "bool"
        }
      ],
      "name": "setApprovalForAll",
      "outputs": [],
      "stateMutability": "nonpayable",
      "type": "function"
    },
    {
      "inputs": [
        {
          "internalType": "bytes",
          "name": "",
          "type": "bytes"
        }
      ],
      "name": "signatureUsed",
      "outputs": [
        {
          "internalType": "bool",
          "name": "",
          "type": "bool"
        }
      ],
      "stateMutability": "view",
      "type": "function"
    },
    {
      "inputs": [
        {
          "internalType": "bytes4",
          "name": "interfaceId",
          "type": "bytes4"
        }
      ],
      "name": "supportsInterface",
      "outputs": [
        {
          "internalType": "bool",
          "name": "",
          "type": "bool"
        }
      ],
      "stateMutability": "view",
      "type": "function"
    },
    {
      "inputs": [],
      "name": "symbol",
      "outputs": [
        {
          "internalType": "string",
          "name": "",
          "type": "string"
        }
      ],
      "stateMutability": "view",
      "type": "function"
    },
    {
      "inputs": [
        {
          "internalType": "uint256",
          "name": "tokenId",
          "type": "uint256"
        }
      ],
      "name": "tokenURI",
      "outputs": [
        {
          "internalType": "string",
          "name": "",
          "type": "string"
        }
      ],
      "stateMutability": "view",
      "type": "function"
    },
    {
      "inputs": [
        {
          "internalType": "address",
          "name": "from",
          "type": "address"
        },
        {
          "internalType": "address",
          "name": "to",
          "type": "address"
        },
        {
          "internalType": "uint256",
          "name": "tokenId",
          "type": "uint256"
        }
      ],
      "name": "transferFrom",
      "outputs": [],
      "stateMutability": "nonpayable",
      "type": "function"
    },
    {
      "inputs": [
        {
          "internalType": "address",
          "name": "newOwner",
          "type": "address"
        }
      ],
      "name": "transferOwnership",
      "outputs": [],
      "stateMutability": "nonpayable",
      "type": "function"
    },
    {
      "inputs": [
        {
          "internalType": "address payable",
          "name": "recipient",
          "type": "address"
        }
      ],
      "name": "withdraw",
      "outputs": [],
      "stateMutability": "nonpayable",
      "type": "function"
    }
  ],
  "bytecode": "0x60806040526000600860006101000a81548160ff0219169083151502179055503480156200002c57600080fd5b5060405180606001604052806023815260200162004fa7602391396040518060400160405280600781526020017f4b3443415253450000000000000000000000000000000000000000000000000081525081600090816200008e91906200042c565b508060019081620000a091906200042c565b5050506000600660006101000a81548160ff021916908315150217905550620000de620000d2620000e460201b60201c565b620000ec60201b60201c565b62000513565b600033905090565b6000600660019054906101000a900473ffffffffffffffffffffffffffffffffffffffff16905081600660016101000a81548173ffffffffffffffffffffffffffffffffffffffff021916908373ffffffffffffffffffffffffffffffffffffffff1602179055508173ffffffffffffffffffffffffffffffffffffffff168173ffffffffffffffffffffffffffffffffffffffff167f8be0079c531659141344cd1fd0a4f28419497f9722a3daafe3b4186f6b6457e060405160405180910390a35050565b600081519050919050565b7f4e487b7100000000000000000000000000000000000000000000000000000000600052604160045260246000fd5b7f4e487b7100000000000000000000000000000000000000000000000000000000600052602260045260246000fd5b600060028204905060018216806200023457607f821691505b6020821081036200024a5762000249620001ec565b5b50919050565b60008190508160005260206000209050919050565b60006020601f8301049050919050565b600082821b905092915050565b600060088302620002b47fffffffffffffffffffffffffffffffffffffffffffffffffffffffffffffffff8262000275565b620002c0868362000275565b95508019841693508086168417925050509392505050565b6000819050919050565b6000819050919050565b60006200030d620003076200030184620002d8565b620002e2565b620002d8565b9050919050565b6000819050919050565b6200032983620002ec565b62000341620003388262000314565b84845462000282565b825550505050565b600090565b6200035862000349565b620003658184846200031e565b505050565b5b818110156200038d57620003816000826200034e565b6001810190506200036b565b5050565b601f821115620003dc57620003a68162000250565b620003b18462000265565b81016020851015620003c1578190505b620003d9620003d08562000265565b8301826200036a565b50505b505050565b600082821c905092915050565b60006200040160001984600802620003e1565b1980831691505092915050565b60006200041c8383620003ee565b9150826002028217905092915050565b6200043782620001b2565b67ffffffffffffffff811115620004535762000452620001bd565b5b6200045f82546200021b565b6200046c82828562000391565b600060209050601f831160018114620004a457600084156200048f578287015190505b6200049b85826200040e565b8655506200050b565b601f198416620004b48662000250565b60005b82811015620004de57848901518255600182019150602085019450602081019050620004b7565b86831015620004fe5784890151620004fa601f891682620003ee565b8355505b6001600288020188555050505b505050505050565b614a8480620005236000396000f3fe60806040526004361061019c5760003560e01c806370a08231116100ec578063b88d4fde1161008a578063ce03ec9311610064578063ce03ec93146105cb578063e8a3d485146105e2578063e985e9c51461060d578063f2fde38b1461064a5761019c565b8063b88d4fde14610528578063bb10c82914610551578063c87b56dd1461058e5761019c565b80638da5cb5b116100c65780638da5cb5b1461046c57806395d89b411461049757806397aba7f9146104c2578063a22cb465146104ff5761019c565b806370a08231146103ef578063715018a61461042c578063733dba6d146104435761019c565b806327986a1b11610159578063564566a811610133578063564566a8146103315780635c975abb1461035c5780636352211e146103875780636f9fb98a146103c45761019c565b806327986a1b146102c357806342842e0e146102df57806351cff8d9146103085761019c565b806301ffc9a7146101a157806306fdde03146101de578063081812fc14610209578063095ea7b3146102465780630bb237841461026f57806323b872dd1461029a575b600080fd5b3480156101ad57600080fd5b506101c860048036038101906101c39190612e04565b610673565b6040516101d59190612e4c565b60405180910390f35b3480156101ea57600080fd5b506101f3610755565b6040516102009190612ef7565b60405180910390f35b34801561021557600080fd5b50610230600480360381019061022b9190612f4f565b6107e7565b60405161023d9190612fbd565b60405180910390f35b34801561025257600080fd5b5061026d60048036038101906102689190613004565b61082d565b005b34801561027b57600080fd5b50610284610944565b6040516102919190613053565b60405180910390f35b3480156102a657600080fd5b506102c160048036038101906102bc919061306e565b61094a565b005b6102dd60048036038101906102d891906132f4565b6109aa565b005b3480156102eb57600080fd5b506103066004803603810190610301919061306e565b610c8d565b005b34801561031457600080fd5b5061032f600480360381019061032a91906133d1565b610cad565b005b34801561033d57600080fd5b50610346610d74565b6040516103539190612e4c565b60405180910390f35b34801561036857600080fd5b50610371610d87565b60405161037e9190612e4c565b60405180910390f35b34801561039357600080fd5b506103ae60048036038101906103a99190612f4f565b610d9e565b6040516103bb9190612fbd565b60405180910390f35b3480156103d057600080fd5b506103d9610e24565b6040516103e69190613053565b60405180910390f35b3480156103fb57600080fd5b50610416600480360381019061041191906133fe565b610e2c565b6040516104239190613053565b60405180910390f35b34801561043857600080fd5b50610441610ee3565b005b34801561044f57600080fd5b5061046a6004803603810190610465919061342b565b610ef7565b005b34801561047857600080fd5b50610481611427565b60405161048e9190612fbd565b60405180910390f35b3480156104a357600080fd5b506104ac611451565b6040516104b99190612ef7565b60405180910390f35b3480156104ce57600080fd5b506104e960048036038101906104e491906134f0565b6114e3565b6040516104f69190612fbd565b60405180910390f35b34801561050b57600080fd5b5061052660048036038101906105219190613578565b611522565b005b34801561053457600080fd5b5061054f600480360381019061054a91906135b8565b611538565b005b34801561055d57600080fd5b506105786004803603810190610573919061363b565b61159a565b6040516105859190612e4c565b60405180910390f35b34801561059a57600080fd5b506105b560048036038101906105b09190612f4f565b6115d0565b6040516105c29190612ef7565b60405180910390f35b3480156105d757600080fd5b506105e0611638565b005b3480156105ee57600080fd5b506105f761166c565b6040516106049190612ef7565b60405180910390f35b34801561061957600080fd5b50610634600480360381019061062f9190613684565b61168c565b6040516106419190612e4c565b60405180910390f35b34801561065657600080fd5b50610671600480360381019061066c91906133fe565b611720565b005b60007f80ac58cd000000000000000000000000000000000000000000000000000000007bffffffffffffffffffffffffffffffffffffffffffffffffffffffff1916827bffffffffffffffffffffffffffffffffffffffffffffffffffffffff1916148061073e57507f5b5e139f000000000000000000000000000000000000000000000000000000007bffffffffffffffffffffffffffffffffffffffffffffffffffffffff1916827bffffffffffffffffffffffffffffffffffffffffffffffffffffffff1916145b8061074e575061074d826117a3565b5b9050919050565b606060008054610764906136f3565b80601f0160208091040260200160405190810160405280929190818152602001828054610790906136f3565b80156107dd5780601f106107b2576101008083540402835291602001916107dd565b820191906000526020600020905b8154815290600101906020018083116107c057829003601f168201915b5050505050905090565b60006107f28261180d565b6004600083815260200190815260200160002060009054906101000a900473ffffffffffffffffffffffffffffffffffffffff169050919050565b600061083882610d9e565b90508073ffffffffffffffffffffffffffffffffffffffff168373ffffffffffffffffffffffffffffffffffffffff16036108a8576040517f08c379a000000000000000000000000000000000000000000000000000000000815260040161089f90613796565b60405180910390fd5b8073ffffffffffffffffffffffffffffffffffffffff166108c7611858565b73ffffffffffffffffffffffffffffffffffffffff1614806108f657506108f5816108f0611858565b61168c565b5b610935576040517f08c379a000000000000000000000000000000000000000000000000000000000815260040161092c90613828565b60405180910390fd5b61093f8383611860565b505050565b60075481565b61095b610955611858565b82611919565b61099a576040517f08c379a0000000000000000000000000000000000000000000000000000000008152600401610991906138ba565b60405180910390fd5b6109a58383836119ae565b505050565b60006007549050600860009054906101000a900460ff16610a00576040517f08c379a00000000000000000000000000000000000000000000000000000000081526004016109f790613926565b60405180910390fd5b60008403610a43576040517f08c379a0000000000000000000000000000000000000000000000000000000008152600401610a3a90613992565b60405180910390fd5b610a4b611427565b73ffffffffffffffffffffffffffffffffffffffff16610a6b84846114e3565b73ffffffffffffffffffffffffffffffffffffffff1614610ac1576040517f08c379a0000000000000000000000000000000000000000000000000000000008152600401610ab8906139fe565b60405180910390fd5b600982604051610ad19190613a65565b908152602001604051809103902060009054906101000a900460ff1615610b2d576040517f08c379a0000000000000000000000000000000000000000000000000000000008152600401610b2490613ac8565b60405180910390fd5b60005b84811015610c475784865114610b7b576040517f08c379a0000000000000000000000000000000000000000000000000000000008152600401610b7290613b5a565b60405180910390fd5b610b9f33878381518110610b9257610b91613b7a565b5b6020026020010151611ca7565b6001868281518110610bb457610bb3613b7a565b5b60200260200101818151610bc89190613bd8565b91508181525050600182610bdc9190613bd8565b915084868281518110610bf257610bf1613b7a565b5b60200260200101517f7bc3ddf0bf2ada973906c61001cd8f787646720bb7da90229e5bf81fa71bab6d33600c604051610c2c929190613c0c565b60405180910390a38080610c3f90613c35565b915050610b30565b50806007819055506001600983604051610c619190613a65565b908152602001604051809103902060006101000a81548160ff0219169083151502179055505050505050565b610ca883838360405180602001604052806000815250611538565b505050565b610cb5611cc5565b600073ffffffffffffffffffffffffffffffffffffffff168173ffffffffffffffffffffffffffffffffffffffff1603610d24576040517f08c379a0000000000000000000000000000000000000000000000000000000008152600401610d1b90613cc9565b60405180910390fd5b60004790508173ffffffffffffffffffffffffffffffffffffffff166108fc829081150290604051600060405180830381858888f19350505050158015610d6f573d6000803e3d6000fd5b505050565b600860009054906101000a900460ff1681565b6000600660009054906101000a900460ff16905090565b600080610daa83611d43565b9050600073ffffffffffffffffffffffffffffffffffffffff168173ffffffffffffffffffffffffffffffffffffffff1603610e1b576040517f08c379a0000000000000000000000000000000000000000000000000000000008152600401610e1290613d35565b60405180910390fd5b80915050919050565b600047905090565b60008073ffffffffffffffffffffffffffffffffffffffff168273ffffffffffffffffffffffffffffffffffffffff1603610e9c576040517f08c379a0000000000000000000000000000000000000000000000000000000008152600401610e9390613dc7565b60405180910390fd5b600360008373ffffffffffffffffffffffffffffffffffffffff1673ffffffffffffffffffffffffffffffffffffffff168152602001908152602001600020549050919050565b610eeb611cc5565b610ef56000611d80565b565b600860009054906101000a900460ff16610f46576040517f08c379a0000000000000000000000000000000000000000000000000000000008152600401610f3d90613926565b60405180910390fd5b60006007549050600086905060008173ffffffffffffffffffffffffffffffffffffffff1663dd62ed3e33306040518363ffffffff1660e01b8152600401610f8f929190613de7565b602060405180830381865afa158015610fac573d6000803e3d6000fd5b505050506040513d601f19601f82011682018060405250810190610fd09190613e25565b905060008614158015610fe4575060008714155b611023576040517f08c379a000000000000000000000000000000000000000000000000000000000815260040161101a90613ec4565b60405180910390fd5b600073ffffffffffffffffffffffffffffffffffffffff168873ffffffffffffffffffffffffffffffffffffffff1603611092576040517f08c379a000000000000000000000000000000000000000000000000000000000815260040161108990613cc9565b60405180910390fd5b868110156110d5576040517f08c379a00000000000000000000000000000000000000000000000000000000081526004016110cc90613f30565b60405180910390fd5b868273ffffffffffffffffffffffffffffffffffffffff166370a08231336040518263ffffffff1660e01b815260040161110f9190612fbd565b602060405180830381865afa15801561112c573d6000803e3d6000fd5b505050506040513d601f19601f820116820180604052508101906111509190613e25565b1015611191576040517f08c379a000000000000000000000000000000000000000000000000000000000815260040161118890613f9c565b60405180910390fd5b611199611427565b73ffffffffffffffffffffffffffffffffffffffff166111b986866114e3565b73ffffffffffffffffffffffffffffffffffffffff161461120f576040517f08c379a0000000000000000000000000000000000000000000000000000000008152600401611206906139fe565b60405180910390fd5b60098460405161121f9190613a65565b908152602001604051809103902060009054906101000a900460ff161561127b576040517f08c379a000000000000000000000000000000000000000000000000000000000815260040161127290613ac8565b60405180910390fd5b60005b868110156113dd57868a51146112c9576040517f08c379a00000000000000000000000000000000000000000000000000000000081526004016112c090613b5a565b60405180910390fd5b6112d58333308b611e46565b6112f9338b83815181106112ec576112eb613b7a565b5b6020026020010151611ca7565b60018a828151811061130e5761130d613b7a565b5b602002602001018181516113229190613bd8565b915081815250506001846113369190613bd8565b9350868a828151811061134c5761134b613b7a565b5b60200260200101517f7bc3ddf0bf2ada973906c61001cd8f787646720bb7da90229e5bf81fa71bab6d33600c604051611386929190613c0c565b60405180910390a3877fa7814aaf178d6c8e61b2703f3dc1b8328dd6c99cbb405bf8f1bb0cb1bbb051a58a33306040516113c293929190613fbc565b60405180910390a280806113d590613c35565b91505061127e565b508260078190555060016009856040516113f79190613a65565b908152602001604051809103902060006101000a81548160ff021916908315150217905550505050505050505050565b6000600660019054906101000a900473ffffffffffffffffffffffffffffffffffffffff16905090565b606060018054611460906136f3565b80601f016020809104026020016040519081016040528092919081815260200182805461148c906136f3565b80156114d95780601f106114ae576101008083540402835291602001916114d9565b820191906000526020600020905b8154815290600101906020018083116114bc57829003601f168201915b5050505050905090565b600080836040516020016114f7919061406b565b6040516020818303038152906040528051906020012090506115198184611ecf565b91505092915050565b61153461152d611858565b8383611ef6565b5050565b611549611543611858565b83611919565b611588576040517f08c379a000000000000000000000000000000000000000000000000000000000815260040161157f906138ba565b60405180910390fd5b61159484848484612062565b50505050565b6009818051602081018201805184825260208301602085012081835280955050505050506000915054906101000a900460ff1681565b60606115db8261180d565b60006115e56120be565b905060008151116116055760405180602001604052806000815250611630565b8061160f846120de565b6040516020016116209291906140c2565b6040516020818303038152906040525b915050919050565b611640611cc5565b600860009054906101000a900460ff1615600860006101000a81548160ff021916908315150217905550565b6060604051806060016040528060238152602001614a2c60239139905090565b6000600560008473ffffffffffffffffffffffffffffffffffffffff1673ffffffffffffffffffffffffffffffffffffffff16815260200190815260200160002060008373ffffffffffffffffffffffffffffffffffffffff1673ffffffffffffffffffffffffffffffffffffffff16815260200190815260200160002060009054906101000a900460ff16905092915050565b611728611cc5565b600073ffffffffffffffffffffffffffffffffffffffff168173ffffffffffffffffffffffffffffffffffffffff1603611797576040517f08c379a000000000000000000000000000000000000000000000000000000000815260040161178e90614158565b60405180910390fd5b6117a081611d80565b50565b60007f01ffc9a7000000000000000000000000000000000000000000000000000000007bffffffffffffffffffffffffffffffffffffffffffffffffffffffff1916827bffffffffffffffffffffffffffffffffffffffffffffffffffffffff1916149050919050565b611816816121ac565b611855576040517f08c379a000000000000000000000000000000000000000000000000000000000815260040161184c90613d35565b60405180910390fd5b50565b600033905090565b816004600083815260200190815260200160002060006101000a81548173ffffffffffffffffffffffffffffffffffffffff021916908373ffffffffffffffffffffffffffffffffffffffff160217905550808273ffffffffffffffffffffffffffffffffffffffff166118d383610d9e565b73ffffffffffffffffffffffffffffffffffffffff167f8c5be1e5ebec7d5bd14f71427d1e84f3dd0314c0f7b2291e5b200ac8c7c3b92560405160405180910390a45050565b60008061192583610d9e565b90508073ffffffffffffffffffffffffffffffffffffffff168473ffffffffffffffffffffffffffffffffffffffff1614806119675750611966818561168c565b5b806119a557508373ffffffffffffffffffffffffffffffffffffffff1661198d846107e7565b73ffffffffffffffffffffffffffffffffffffffff16145b91505092915050565b8273ffffffffffffffffffffffffffffffffffffffff166119ce82610d9e565b73ffffffffffffffffffffffffffffffffffffffff1614611a24576040517f08c379a0000000000000000000000000000000000000000000000000000000008152600401611a1b906141ea565b60405180910390fd5b600073ffffffffffffffffffffffffffffffffffffffff168273ffffffffffffffffffffffffffffffffffffffff1603611a93576040517f08c379a0000000000000000000000000000000000000000000000000000000008152600401611a8a9061427c565b60405180910390fd5b611aa083838360016121ed565b8273ffffffffffffffffffffffffffffffffffffffff16611ac082610d9e565b73ffffffffffffffffffffffffffffffffffffffff1614611b16576040517f08c379a0000000000000000000000000000000000000000000000000000000008152600401611b0d906141ea565b60405180910390fd5b6004600082815260200190815260200160002060006101000a81549073ffffffffffffffffffffffffffffffffffffffff02191690556001600360008573ffffffffffffffffffffffffffffffffffffffff1673ffffffffffffffffffffffffffffffffffffffff168152602001908152602001600020600082825403925050819055506001600360008473ffffffffffffffffffffffffffffffffffffffff1673ffffffffffffffffffffffffffffffffffffffff16815260200190815260200160002060008282540192505081905550816002600083815260200190815260200160002060006101000a81548173ffffffffffffffffffffffffffffffffffffffff021916908373ffffffffffffffffffffffffffffffffffffffff160217905550808273ffffffffffffffffffffffffffffffffffffffff168473ffffffffffffffffffffffffffffffffffffffff167fddf252ad1be2c89b69c2b068fc378daa952ba7f163c4a11628f55a4df523b3ef60405160405180910390a4611ca28383836001612313565b505050565b611cc1828260405180602001604052806000815250612319565b5050565b611ccd611858565b73ffffffffffffffffffffffffffffffffffffffff16611ceb611427565b73ffffffffffffffffffffffffffffffffffffffff1614611d41576040517f08c379a0000000000000000000000000000000000000000000000000000000008152600401611d38906142e8565b60405180910390fd5b565b60006002600083815260200190815260200160002060009054906101000a900473ffffffffffffffffffffffffffffffffffffffff169050919050565b6000600660019054906101000a900473ffffffffffffffffffffffffffffffffffffffff16905081600660016101000a81548173ffffffffffffffffffffffffffffffffffffffff021916908373ffffffffffffffffffffffffffffffffffffffff1602179055508173ffffffffffffffffffffffffffffffffffffffff168173ffffffffffffffffffffffffffffffffffffffff167f8be0079c531659141344cd1fd0a4f28419497f9722a3daafe3b4186f6b6457e060405160405180910390a35050565b611ec9846323b872dd60e01b858585604051602401611e6793929190614308565b604051602081830303815290604052907bffffffffffffffffffffffffffffffffffffffffffffffffffffffff19166020820180517bffffffffffffffffffffffffffffffffffffffffffffffffffffffff8381831617835250505050612374565b50505050565b6000806000611ede858561243b565b91509150611eeb8161248c565b819250505092915050565b8173ffffffffffffffffffffffffffffffffffffffff168373ffffffffffffffffffffffffffffffffffffffff1603611f64576040517f08c379a0000000000000000000000000000000000000000000000000000000008152600401611f5b9061438b565b60405180910390fd5b80600560008573ffffffffffffffffffffffffffffffffffffffff1673ffffffffffffffffffffffffffffffffffffffff16815260200190815260200160002060008473ffffffffffffffffffffffffffffffffffffffff1673ffffffffffffffffffffffffffffffffffffffff16815260200190815260200160002060006101000a81548160ff0219169083151502179055508173ffffffffffffffffffffffffffffffffffffffff168373ffffffffffffffffffffffffffffffffffffffff167f17307eab39ab6107e8899845ad3d59bd9653f200f220920489ca2b5937696c31836040516120559190612e4c565b60405180910390a3505050565b61206d8484846119ae565b612079848484846125f2565b6120b8576040517f08c379a00000000000000000000000000000000000000000000000000000000081526004016120af9061441d565b60405180910390fd5b50505050565b6060604051806060016040528060238152602001614a2c60239139905090565b6060600060016120ed84612779565b01905060008167ffffffffffffffff81111561210c5761210b6130c6565b5b6040519080825280601f01601f19166020018201604052801561213e5781602001600182028036833780820191505090505b509050600082602001820190505b6001156121a1578080600190039150507f3031323334353637383961626364656600000000000000000000000000000000600a86061a8153600a85816121955761219461443d565b5b0494506000850361214c575b819350505050919050565b60008073ffffffffffffffffffffffffffffffffffffffff166121ce83611d43565b73ffffffffffffffffffffffffffffffffffffffff1614159050919050565b600181111561230d57600073ffffffffffffffffffffffffffffffffffffffff168473ffffffffffffffffffffffffffffffffffffffff16146122815780600360008673ffffffffffffffffffffffffffffffffffffffff1673ffffffffffffffffffffffffffffffffffffffff1681526020019081526020016000206000828254612279919061446c565b925050819055505b600073ffffffffffffffffffffffffffffffffffffffff168373ffffffffffffffffffffffffffffffffffffffff161461230c5780600360008573ffffffffffffffffffffffffffffffffffffffff1673ffffffffffffffffffffffffffffffffffffffff16815260200190815260200160002060008282546123049190613bd8565b925050819055505b5b50505050565b50505050565b61232383836128cc565b61233060008484846125f2565b61236f576040517f08c379a00000000000000000000000000000000000000000000000000000000081526004016123669061441d565b60405180910390fd5b505050565b60006123d6826040518060400160405280602081526020017f5361666545524332303a206c6f772d6c6576656c2063616c6c206661696c65648152508573ffffffffffffffffffffffffffffffffffffffff16612ae99092919063ffffffff16565b905060008151111561243657808060200190518101906123f691906144b5565b612435576040517f08c379a000000000000000000000000000000000000000000000000000000000815260040161242c90614554565b60405180910390fd5b5b505050565b600080604183510361247c5760008060006020860151925060408601519150606086015160001a905061247087828585612b01565b94509450505050612485565b60006002915091505b9250929050565b600060048111156124a05761249f614574565b5b8160048111156124b3576124b2614574565b5b03156125ef57600160048111156124cd576124cc614574565b5b8160048111156124e0576124df614574565b5b03612520576040517f08c379a0000000000000000000000000000000000000000000000000000000008152600401612517906145ef565b60405180910390fd5b6002600481111561253457612533614574565b5b81600481111561254757612546614574565b5b03612587576040517f08c379a000000000000000000000000000000000000000000000000000000000815260040161257e9061465b565b60405180910390fd5b6003600481111561259b5761259a614574565b5b8160048111156125ae576125ad614574565b5b036125ee576040517f08c379a00000000000000000000000000000000000000000000000000000000081526004016125e5906146ed565b60405180910390fd5b5b50565b60006126138473ffffffffffffffffffffffffffffffffffffffff16612be3565b1561276c578373ffffffffffffffffffffffffffffffffffffffff1663150b7a0261263c611858565b8786866040518563ffffffff1660e01b815260040161265e9493929190614757565b6020604051808303816000875af192505050801561269a57506040513d601f19601f8201168201806040525081019061269791906147b8565b60015b61271c573d80600081146126ca576040519150601f19603f3d011682016040523d82523d6000602084013e6126cf565b606091505b506000815103612714576040517f08c379a000000000000000000000000000000000000000000000000000000000815260040161270b9061441d565b60405180910390fd5b805181602001fd5b63150b7a0260e01b7bffffffffffffffffffffffffffffffffffffffffffffffffffffffff1916817bffffffffffffffffffffffffffffffffffffffffffffffffffffffff191614915050612771565b600190505b949350505050565b600080600090507a184f03e93ff9f4daa797ed6e38ed64bf6a1f01000000000000000083106127d7577a184f03e93ff9f4daa797ed6e38ed64bf6a1f01000000000000000083816127cd576127cc61443d565b5b0492506040810190505b6d04ee2d6d415b85acef81000000008310612814576d04ee2d6d415b85acef8100000000838161280a5761280961443d565b5b0492506020810190505b662386f26fc10000831061284357662386f26fc1000083816128395761283861443d565b5b0492506010810190505b6305f5e100831061286c576305f5e10083816128625761286161443d565b5b0492506008810190505b61271083106128915761271083816128875761288661443d565b5b0492506004810190505b606483106128b457606483816128aa576128a961443d565b5b0492506002810190505b600a83106128c3576001810190505b80915050919050565b600073ffffffffffffffffffffffffffffffffffffffff168273ffffffffffffffffffffffffffffffffffffffff160361293b576040517f08c379a000000000000000000000000000000000000000000000000000000000815260040161293290614831565b60405180910390fd5b612944816121ac565b15612984576040517f08c379a000000000000000000000000000000000000000000000000000000000815260040161297b9061489d565b60405180910390fd5b6129926000838360016121ed565b61299b816121ac565b156129db576040517f08c379a00000000000000000000000000000000000000000000000000000000081526004016129d29061489d565b60405180910390fd5b6001600360008473ffffffffffffffffffffffffffffffffffffffff1673ffffffffffffffffffffffffffffffffffffffff16815260200190815260200160002060008282540192505081905550816002600083815260200190815260200160002060006101000a81548173ffffffffffffffffffffffffffffffffffffffff021916908373ffffffffffffffffffffffffffffffffffffffff160217905550808273ffffffffffffffffffffffffffffffffffffffff16600073ffffffffffffffffffffffffffffffffffffffff167fddf252ad1be2c89b69c2b068fc378daa952ba7f163c4a11628f55a4df523b3ef60405160405180910390a4612ae5600083836001612313565b5050565b6060612af88484600085612c06565b90509392505050565b6000807f7fffffffffffffffffffffffffffffff5d576e7357a4501ddfe92f46681b20a08360001c1115612b3c576000600391509150612bda565b600060018787878760405160008152602001604052604051612b6194939291906148e8565b6020604051602081039080840390855afa158015612b83573d6000803e3d6000fd5b505050602060405103519050600073ffffffffffffffffffffffffffffffffffffffff168173ffffffffffffffffffffffffffffffffffffffff1603612bd157600060019250925050612bda565b80600092509250505b94509492505050565b6000808273ffffffffffffffffffffffffffffffffffffffff163b119050919050565b606082471015612c4b576040517f08c379a0000000000000000000000000000000000000000000000000000000008152600401612c429061499f565b60405180910390fd5b6000808673ffffffffffffffffffffffffffffffffffffffff168587604051612c749190613a65565b60006040518083038185875af1925050503d8060008114612cb1576040519150601f19603f3d011682016040523d82523d6000602084013e612cb6565b606091505b5091509150612cc787838387612cd3565b92505050949350505050565b60608315612d35576000835103612d2d57612ced85612be3565b612d2c576040517f08c379a0000000000000000000000000000000000000000000000000000000008152600401612d2390614a0b565b60405180910390fd5b5b829050612d40565b612d3f8383612d48565b5b949350505050565b600082511115612d5b5781518083602001fd5b806040517f08c379a0000000000000000000000000000000000000000000000000000000008152600401612d8f9190612ef7565b60405180910390fd5b6000604051905090565b600080fd5b600080fd5b60007fffffffff0000000000000000000000000000000000000000000000000000000082169050919050565b612de181612dac565b8114612dec57600080fd5b50565b600081359050612dfe81612dd8565b92915050565b600060208284031215612e1a57612e19612da2565b5b6000612e2884828501612def565b91505092915050565b60008115159050919050565b612e4681612e31565b82525050565b6000602082019050612e616000830184612e3d565b92915050565b600081519050919050565b600082825260208201905092915050565b60005b83811015612ea1578082015181840152602081019050612e86565b60008484015250505050565b6000601f19601f8301169050919050565b6000612ec982612e67565b612ed38185612e72565b9350612ee3818560208601612e83565b612eec81612ead565b840191505092915050565b60006020820190508181036000830152612f118184612ebe565b905092915050565b6000819050919050565b612f2c81612f19565b8114612f3757600080fd5b50565b600081359050612f4981612f23565b92915050565b600060208284031215612f6557612f64612da2565b5b6000612f7384828501612f3a565b91505092915050565b600073ffffffffffffffffffffffffffffffffffffffff82169050919050565b6000612fa782612f7c565b9050919050565b612fb781612f9c565b82525050565b6000602082019050612fd26000830184612fae565b92915050565b612fe181612f9c565b8114612fec57600080fd5b50565b600081359050612ffe81612fd8565b92915050565b6000806040838503121561301b5761301a612da2565b5b600061302985828601612fef565b925050602061303a85828601612f3a565b9150509250929050565b61304d81612f19565b82525050565b60006020820190506130686000830184613044565b92915050565b60008060006060848603121561308757613086612da2565b5b600061309586828701612fef565b93505060206130a686828701612fef565b92505060406130b786828701612f3a565b9150509250925092565b600080fd5b7f4e487b7100000000000000000000000000000000000000000000000000000000600052604160045260246000fd5b6130fe82612ead565b810181811067ffffffffffffffff8211171561311d5761311c6130c6565b5b80604052505050565b6000613130612d98565b905061313c82826130f5565b919050565b600067ffffffffffffffff82111561315c5761315b6130c6565b5b602082029050602081019050919050565b600080fd5b600061318561318084613141565b613126565b905080838252602082019050602084028301858111156131a8576131a761316d565b5b835b818110156131d157806131bd8882612f3a565b8452602084019350506020810190506131aa565b5050509392505050565b600082601f8301126131f0576131ef6130c1565b5b8135613200848260208601613172565b91505092915050565b6000819050919050565b61321c81613209565b811461322757600080fd5b50565b60008135905061323981613213565b92915050565b600080fd5b600067ffffffffffffffff82111561325f5761325e6130c6565b5b61326882612ead565b9050602081019050919050565b82818337600083830152505050565b600061329761329284613244565b613126565b9050828152602081018484840111156132b3576132b261323f565b5b6132be848285613275565b509392505050565b600082601f8301126132db576132da6130c1565b5b81356132eb848260208601613284565b91505092915050565b6000806000806080858703121561330e5761330d612da2565b5b600085013567ffffffffffffffff81111561332c5761332b612da7565b5b613338878288016131db565b945050602061334987828801612f3a565b935050604061335a8782880161322a565b925050606085013567ffffffffffffffff81111561337b5761337a612da7565b5b613387878288016132c6565b91505092959194509250565b600061339e82612f7c565b9050919050565b6133ae81613393565b81146133b957600080fd5b50565b6000813590506133cb816133a5565b92915050565b6000602082840312156133e7576133e6612da2565b5b60006133f5848285016133bc565b91505092915050565b60006020828403121561341457613413612da2565b5b600061342284828501612fef565b91505092915050565b60008060008060008060c0878903121561344857613447612da2565b5b600087013567ffffffffffffffff81111561346657613465612da7565b5b61347289828a016131db565b965050602061348389828a01612fef565b955050604061349489828a01612f3a565b94505060606134a589828a01612f3a565b93505060806134b689828a0161322a565b92505060a087013567ffffffffffffffff8111156134d7576134d6612da7565b5b6134e389828a016132c6565b9150509295509295509295565b6000806040838503121561350757613506612da2565b5b60006135158582860161322a565b925050602083013567ffffffffffffffff81111561353657613535612da7565b5b613542858286016132c6565b9150509250929050565b61355581612e31565b811461356057600080fd5b50565b6000813590506135728161354c565b92915050565b6000806040838503121561358f5761358e612da2565b5b600061359d85828601612fef565b92505060206135ae85828601613563565b9150509250929050565b600080600080608085870312156135d2576135d1612da2565b5b60006135e087828801612fef565b94505060206135f187828801612fef565b935050604061360287828801612f3a565b925050606085013567ffffffffffffffff81111561362357613622612da7565b5b61362f878288016132c6565b91505092959194509250565b60006020828403121561365157613650612da2565b5b600082013567ffffffffffffffff81111561366f5761366e612da7565b5b61367b848285016132c6565b91505092915050565b6000806040838503121561369b5761369a612da2565b5b60006136a985828601612fef565b92505060206136ba85828601612fef565b9150509250929050565b7f4e487b7100000000000000000000000000000000000000000000000000000000600052602260045260246000fd5b6000600282049050600182168061370b57607f821691505b60208210810361371e5761371d6136c4565b5b50919050565b7f4552433732313a20617070726f76616c20746f2063757272656e74206f776e6560008201527f7200000000000000000000000000000000000000000000000000000000000000602082015250565b6000613780602183612e72565b915061378b82613724565b604082019050919050565b600060208201905081810360008301526137af81613773565b9050919050565b7f4552433732313a20617070726f76652063616c6c6572206973206e6f7420746f60008201527f6b656e206f776e6572206f7220617070726f76656420666f7220616c6c000000602082015250565b6000613812603d83612e72565b915061381d826137b6565b604082019050919050565b6000602082019050818103600083015261384181613805565b9050919050565b7f4552433732313a2063616c6c6572206973206e6f7420746f6b656e206f776e6560008201527f72206f7220617070726f76656400000000000000000000000000000000000000602082015250565b60006138a4602d83612e72565b91506138af82613848565b604082019050919050565b600060208201905081810360008301526138d381613897565b9050919050565b7f53616c65206973206e6f74206163746976650000000000000000000000000000600082015250565b6000613910601283612e72565b915061391b826138da565b602082019050919050565b6000602082019050818103600083015261393f81613903565b9050919050565b7f5175616e746974792063616e6e6f74206265207a65726f000000000000000000600082015250565b600061397c601783612e72565b915061398782613946565b602082019050919050565b600060208201905081810360008301526139ab8161396f565b9050919050565b7f41646472657373206973206e6f7420616c6c6f776c6973746564000000000000600082015250565b60006139e8601a83612e72565b91506139f3826139b2565b602082019050919050565b60006020820190508181036000830152613a17816139db565b9050919050565b600081519050919050565b600081905092915050565b6000613a3f82613a1e565b613a498185613a29565b9350613a59818560208601612e83565b80840191505092915050565b6000613a718284613a34565b915081905092915050565b7f5369676e61747572652068617320616c7265616479206265656e20757365642e600082015250565b6000613ab2602083612e72565b9150613abd82613a7c565b602082019050919050565b60006020820190508181036000830152613ae181613aa5565b9050919050565b7f546f6b656e496420616e64207175616e74697479206c656e6774682073686f7560008201527f6c64206265206d61746368000000000000000000000000000000000000000000602082015250565b6000613b44602b83612e72565b9150613b4f82613ae8565b604082019050919050565b60006020820190508181036000830152613b7381613b37565b9050919050565b7f4e487b7100000000000000000000000000000000000000000000000000000000600052603260045260246000fd5b7f4e487b7100000000000000000000000000000000000000000000000000000000600052601160045260246000fd5b6000613be382612f19565b9150613bee83612f19565b9250828201905080821115613c0657613c05613ba9565b5b92915050565b6000604082019050613c216000830185612fae565b613c2e6020830184613044565b9392505050565b6000613c4082612f19565b91507fffffffffffffffffffffffffffffffffffffffffffffffffffffffffffffffff8203613c7257613c71613ba9565b5b600182019050919050565b7f416464726573732063616e6e6f74206265207a65726f00000000000000000000600082015250565b6000613cb3601683612e72565b9150613cbe82613c7d565b602082019050919050565b60006020820190508181036000830152613ce281613ca6565b9050919050565b7f4552433732313a20696e76616c696420746f6b656e2049440000000000000000600082015250565b6000613d1f601883612e72565b9150613d2a82613ce9565b602082019050919050565b60006020820190508181036000830152613d4e81613d12565b9050919050565b7f4552433732313a2061646472657373207a65726f206973206e6f74206120766160008201527f6c6964206f776e65720000000000000000000000000000000000000000000000602082015250565b6000613db1602983612e72565b9150613dbc82613d55565b604082019050919050565b60006020820190508181036000830152613de081613da4565b9050919050565b6000604082019050613dfc6000830185612fae565b613e096020830184612fae565b9392505050565b600081519050613e1f81612f23565b92915050565b600060208284031215613e3b57613e3a612da2565b5b6000613e4984828501613e10565b91505092915050565b7f5175616e74697479206f7220416d6f756e742063616e6e6f74206265207a657260008201527f6f00000000000000000000000000000000000000000000000000000000000000602082015250565b6000613eae602183612e72565b9150613eb982613e52565b604082019050919050565b60006020820190508181036000830152613edd81613ea1565b9050919050565b7f436865636b2074686520746f6b656e20616c6c6f77616e636500000000000000600082015250565b6000613f1a601983612e72565b9150613f2582613ee4565b602082019050919050565b60006020820190508181036000830152613f4981613f0d565b9050919050565b7f496e73756666696369656e7420746f6b656e2062616c616e6365000000000000600082015250565b6000613f86601a83612e72565b9150613f9182613f50565b602082019050919050565b60006020820190508181036000830152613fb581613f79565b9050919050565b6000606082019050613fd16000830186612fae565b613fde6020830185612fae565b613feb6040830184612fae565b949350505050565b600081905092915050565b7f19457468657265756d205369676e6564204d6573736167653a0a333200000000600082015250565b6000614034601c83613ff3565b915061403f82613ffe565b601c82019050919050565b6000819050919050565b61406561406082613209565b61404a565b82525050565b600061407682614027565b91506140828284614054565b60208201915081905092915050565b600061409c82612e67565b6140a68185613ff3565b93506140b6818560208601612e83565b80840191505092915050565b60006140ce8285614091565b91506140da8284614091565b91508190509392505050565b7f4f776e61626c653a206e6577206f776e657220697320746865207a65726f206160008201527f6464726573730000000000000000000000000000000000000000000000000000602082015250565b6000614142602683612e72565b915061414d826140e6565b604082019050919050565b6000602082019050818103600083015261417181614135565b9050919050565b7f4552433732313a207472616e736665722066726f6d20696e636f72726563742060008201527f6f776e6572000000000000000000000000000000000000000000000000000000602082015250565b60006141d4602583612e72565b91506141df82614178565b604082019050919050565b60006020820190508181036000830152614203816141c7565b9050919050565b7f4552433732313a207472616e7366657220746f20746865207a65726f2061646460008201527f7265737300000000000000000000000000000000000000000000000000000000602082015250565b6000614266602483612e72565b91506142718261420a565b604082019050919050565b6000602082019050818103600083015261429581614259565b9050919050565b7f4f776e61626c653a2063616c6c6572206973206e6f7420746865206f776e6572600082015250565b60006142d2602083612e72565b91506142dd8261429c565b602082019050919050565b60006020820190508181036000830152614301816142c5565b9050919050565b600060608201905061431d6000830186612fae565b61432a6020830185612fae565b6143376040830184613044565b949350505050565b7f4552433732313a20617070726f766520746f2063616c6c657200000000000000600082015250565b6000614375601983612e72565b91506143808261433f565b602082019050919050565b600060208201905081810360008301526143a481614368565b9050919050565b7f4552433732313a207472616e7366657220746f206e6f6e20455243373231526560008201527f63656976657220696d706c656d656e7465720000000000000000000000000000602082015250565b6000614407603283612e72565b9150614412826143ab565b604082019050919050565b60006020820190508181036000830152614436816143fa565b9050919050565b7f4e487b7100000000000000000000000000000000000000000000000000000000600052601260045260246000fd5b600061447782612f19565b915061448283612f19565b925082820390508181111561449a57614499613ba9565b5b92915050565b6000815190506144af8161354c565b92915050565b6000602082840312156144cb576144ca612da2565b5b60006144d9848285016144a0565b91505092915050565b7f5361666545524332303a204552433230206f7065726174696f6e20646964206e60008201527f6f74207375636365656400000000000000000000000000000000000000000000602082015250565b600061453e602a83612e72565b9150614549826144e2565b604082019050919050565b6000602082019050818103600083015261456d81614531565b9050919050565b7f4e487b7100000000000000000000000000000000000000000000000000000000600052602160045260246000fd5b7f45434453413a20696e76616c6964207369676e61747572650000000000000000600082015250565b60006145d9601883612e72565b91506145e4826145a3565b602082019050919050565b60006020820190508181036000830152614608816145cc565b9050919050565b7f45434453413a20696e76616c6964207369676e6174757265206c656e67746800600082015250565b6000614645601f83612e72565b91506146508261460f565b602082019050919050565b6000602082019050818103600083015261467481614638565b9050919050565b7f45434453413a20696e76616c6964207369676e6174757265202773272076616c60008201527f7565000000000000000000000000000000000000000000000000000000000000602082015250565b60006146d7602283612e72565b91506146e28261467b565b604082019050919050565b60006020820190508181036000830152614706816146ca565b9050919050565b600082825260208201905092915050565b600061472982613a1e565b614733818561470d565b9350614743818560208601612e83565b61474c81612ead565b840191505092915050565b600060808201905061476c6000830187612fae565b6147796020830186612fae565b6147866040830185613044565b8181036060830152614798818461471e565b905095945050505050565b6000815190506147b281612dd8565b92915050565b6000602082840312156147ce576147cd612da2565b5b60006147dc848285016147a3565b91505092915050565b7f4552433732313a206d696e7420746f20746865207a65726f2061646472657373600082015250565b600061481b602083612e72565b9150614826826147e5565b602082019050919050565b6000602082019050818103600083015261484a8161480e565b9050919050565b7f4552433732313a20746f6b656e20616c7265616479206d696e74656400000000600082015250565b6000614887601c83612e72565b915061489282614851565b602082019050919050565b600060208201905081810360008301526148b68161487a565b9050919050565b6148c681613209565b82525050565b600060ff82169050919050565b6148e2816148cc565b82525050565b60006080820190506148fd60008301876148bd565b61490a60208301866148d9565b61491760408301856148bd565b61492460608301846148bd565b95945050505050565b7f416464726573733a20696e73756666696369656e742062616c616e636520666f60008201527f722063616c6c0000000000000000000000000000000000000000000000000000602082015250565b6000614989602683612e72565b91506149948261492d565b604082019050919050565b600060208201905081810360008301526149b88161497c565b9050919050565b7f416464726573733a2063616c6c20746f206e6f6e2d636f6e7472616374000000600082015250565b60006149f5601d83612e72565b9150614a00826149bf565b602082019050919050565b60006020820190508181036000830152614a24816149e8565b905091905056fe68747470733a2f2f67616d652e6b3472616c6c792e696f2f6e66742f6361722f31322fa2646970667358221220836151274bef19aac23e9ae4f3d7af423f1b6ecd8edd9c37c9c847d9038fa7ca64736f6c634300081000334b34205369676e61747572652045646974696f6e2032202d204a616e204365726e6579",
  "linkReferences": {},
  "deployedLinkReferences": {}
}